{
  "contractName": "Timelock",
  "abi": [
    {
      "inputs": [
        {
          "internalType": "uint256",
          "name": "delay_",
          "type": "uint256"
        }
      ],
      "stateMutability": "nonpayable",
      "type": "constructor"
    },
    {
      "anonymous": false,
      "inputs": [
        {
          "indexed": true,
          "internalType": "address",
          "name": "admin",
          "type": "address"
        },
        {
          "indexed": false,
          "internalType": "bool",
          "name": "enable",
          "type": "bool"
        }
      ],
      "name": "AuthorizeAdmin",
      "type": "event"
    },
    {
      "anonymous": false,
      "inputs": [
        {
          "indexed": true,
          "internalType": "address",
          "name": "farmer",
          "type": "address"
        },
        {
          "indexed": false,
          "internalType": "bool",
          "name": "enable",
          "type": "bool"
        }
      ],
      "name": "AuthorizeFarmer",
      "type": "event"
    },
    {
      "anonymous": false,
      "inputs": [
        {
          "indexed": true,
          "internalType": "address",
          "name": "router",
          "type": "address"
        },
        {
          "indexed": false,
          "internalType": "uint256",
          "name": "mask",
          "type": "uint256"
        }
      ],
      "name": "AuthorizeRouter",
      "type": "event"
    },
    {
      "anonymous": false,
      "inputs": [
        {
          "indexed": true,
          "internalType": "address",
          "name": "token",
          "type": "address"
        },
        {
          "indexed": false,
          "internalType": "uint256",
          "name": "level",
          "type": "uint256"
        }
      ],
      "name": "AuthorizeToken",
      "type": "event"
    },
    {
      "anonymous": false,
      "inputs": [
        {
          "indexed": true,
          "internalType": "address",
          "name": "router",
          "type": "address"
        },
        {
          "indexed": true,
          "internalType": "bytes4",
          "name": "func",
          "type": "bytes4"
        },
        {
          "indexed": false,
          "internalType": "uint256",
          "name": "mask",
          "type": "uint256"
        }
      ],
      "name": "AuthorizeWithdrawalFunc",
      "type": "event"
    },
    {
      "anonymous": false,
      "inputs": [
        {
          "indexed": true,
          "internalType": "bytes32",
          "name": "txHash",
          "type": "bytes32"
        },
        {
          "indexed": true,
          "internalType": "address",
          "name": "target",
          "type": "address"
        },
        {
          "indexed": false,
          "internalType": "uint256",
          "name": "value",
          "type": "uint256"
        },
        {
          "indexed": false,
          "internalType": "string",
          "name": "signature",
          "type": "string"
        },
        {
          "indexed": false,
          "internalType": "bytes",
          "name": "data",
          "type": "bytes"
        },
        {
          "indexed": false,
          "internalType": "uint256",
          "name": "eta",
          "type": "uint256"
        }
      ],
      "name": "CancelTransaction",
      "type": "event"
    },
    {
      "anonymous": false,
      "inputs": [
        {
          "indexed": true,
          "internalType": "address",
          "name": "sender",
          "type": "address"
        },
        {
          "indexed": true,
          "internalType": "address",
          "name": "token",
          "type": "address"
        },
        {
          "indexed": false,
          "internalType": "uint256",
          "name": "value",
          "type": "uint256"
        }
      ],
      "name": "Deposit",
      "type": "event"
    },
    {
      "anonymous": false,
      "inputs": [
        {
          "indexed": true,
          "internalType": "bytes32",
          "name": "txHash",
          "type": "bytes32"
        },
        {
          "indexed": true,
          "internalType": "address",
          "name": "target",
          "type": "address"
        },
        {
          "indexed": false,
          "internalType": "uint256",
          "name": "value",
          "type": "uint256"
        },
        {
          "indexed": false,
          "internalType": "string",
          "name": "signature",
          "type": "string"
        },
        {
          "indexed": false,
          "internalType": "bytes",
          "name": "data",
          "type": "bytes"
        },
        {
          "indexed": false,
          "internalType": "uint256",
          "name": "eta",
          "type": "uint256"
        }
      ],
      "name": "ExecuteTransaction",
      "type": "event"
    },
    {
      "anonymous": false,
      "inputs": [
        {
          "indexed": true,
          "internalType": "address",
          "name": "sender",
          "type": "address"
        },
        {
          "indexed": false,
          "internalType": "uint256",
          "name": "value",
          "type": "uint256"
        },
        {
          "indexed": false,
          "internalType": "uint256",
          "name": "subsidy",
          "type": "uint256"
        }
      ],
      "name": "Harvest",
      "type": "event"
    },
    {
      "anonymous": false,
      "inputs": [
        {
          "indexed": true,
          "internalType": "uint256",
          "name": "newDelay",
          "type": "uint256"
        }
      ],
      "name": "NewDelay",
      "type": "event"
    },
    {
      "anonymous": false,
      "inputs": [
        {
          "indexed": true,
          "internalType": "bytes32",
          "name": "txHash",
          "type": "bytes32"
        },
        {
          "indexed": true,
          "internalType": "address",
          "name": "target",
          "type": "address"
        },
        {
          "indexed": false,
          "internalType": "uint256",
          "name": "value",
          "type": "uint256"
        },
        {
          "indexed": false,
          "internalType": "string",
          "name": "signature",
          "type": "string"
        },
        {
          "indexed": false,
          "internalType": "bytes",
          "name": "data",
          "type": "bytes"
        },
        {
          "indexed": false,
          "internalType": "uint256",
          "name": "eta",
          "type": "uint256"
        }
      ],
      "name": "QueueTransaction",
      "type": "event"
    },
    {
      "anonymous": false,
      "inputs": [
        {
          "indexed": true,
          "internalType": "address",
          "name": "sender",
          "type": "address"
        },
        {
          "indexed": true,
          "internalType": "address",
          "name": "token",
          "type": "address"
        },
        {
          "indexed": false,
          "internalType": "uint256",
          "name": "value",
          "type": "uint256"
        }
      ],
      "name": "Withdraw",
      "type": "event"
    },
    {
      "inputs": [],
      "name": "GRACE_PERIOD",
      "outputs": [
        {
          "internalType": "uint256",
          "name": "",
          "type": "uint256"
        }
      ],
      "stateMutability": "view",
      "type": "function"
    },
    {
      "inputs": [],
      "name": "MAXIMUM_DELAY",
      "outputs": [
        {
          "internalType": "uint256",
          "name": "",
          "type": "uint256"
        }
      ],
      "stateMutability": "view",
      "type": "function"
    },
    {
      "inputs": [],
      "name": "MINIMUM_DELAY",
      "outputs": [
        {
          "internalType": "uint256",
          "name": "",
          "type": "uint256"
        }
      ],
      "stateMutability": "view",
      "type": "function"
    },
    {
      "inputs": [],
      "name": "delay",
      "outputs": [
        {
          "internalType": "uint256",
          "name": "",
          "type": "uint256"
        }
      ],
      "stateMutability": "view",
      "type": "function"
    },
    {
      "inputs": [
        {
          "internalType": "bytes32",
          "name": "",
          "type": "bytes32"
        }
      ],
      "name": "queuedTransactions",
      "outputs": [
        {
          "internalType": "bool",
          "name": "",
          "type": "bool"
        }
      ],
      "stateMutability": "view",
      "type": "function"
    },
    {
      "stateMutability": "payable",
      "type": "receive"
    },
    {
      "inputs": [
        {
          "internalType": "uint256",
          "name": "delay_",
          "type": "uint256"
        }
      ],
      "name": "setDelay",
      "outputs": [],
      "stateMutability": "nonpayable",
      "type": "function"
    },
    {
      "inputs": [
        {
          "internalType": "address",
          "name": "target",
          "type": "address"
        },
        {
          "internalType": "uint256",
          "name": "value",
          "type": "uint256"
        },
        {
          "internalType": "string",
          "name": "signature",
          "type": "string"
        },
        {
          "internalType": "bytes",
          "name": "data",
          "type": "bytes"
        },
        {
          "internalType": "uint256",
          "name": "eta",
          "type": "uint256"
        }
      ],
      "name": "queueTransaction",
      "outputs": [
        {
          "internalType": "bytes32",
          "name": "",
          "type": "bytes32"
        }
      ],
      "stateMutability": "nonpayable",
      "type": "function"
    },
    {
      "inputs": [
        {
          "internalType": "address",
          "name": "target",
          "type": "address"
        },
        {
          "internalType": "uint256",
          "name": "value",
          "type": "uint256"
        },
        {
          "internalType": "string",
          "name": "signature",
          "type": "string"
        },
        {
          "internalType": "bytes",
          "name": "data",
          "type": "bytes"
        },
        {
          "internalType": "uint256",
          "name": "eta",
          "type": "uint256"
        }
      ],
      "name": "cancelTransaction",
      "outputs": [],
      "stateMutability": "nonpayable",
      "type": "function"
    },
    {
      "inputs": [
        {
          "internalType": "address",
          "name": "target",
          "type": "address"
        },
        {
          "internalType": "uint256",
          "name": "value",
          "type": "uint256"
        },
        {
          "internalType": "string",
          "name": "signature",
          "type": "string"
        },
        {
          "internalType": "bytes",
          "name": "data",
          "type": "bytes"
        },
        {
          "internalType": "uint256",
          "name": "eta",
          "type": "uint256"
        }
      ],
      "name": "executeTransaction",
      "outputs": [],
      "stateMutability": "payable",
      "type": "function"
    }
  ],
  "bytecode": "0x608060405234801561001057600080fd5b506040516117bf3803806117bf8339818101604052602081101561003357600080fd5b50516202a3008110156100775760405162461bcd60e51b81526004018080602001828103825260378152602001806117506037913960400191505060405180910390fd5b62278d008111156100b95760405162461bcd60e51b81526004018080602001828103825260388152602001806117876038913960400191505060405180910390fd5b600055611685806100cb6000396000f3fe60806040526004361061009a5760003560e01c80637d645fab11610069578063c1a287e21161004e578063c1a287e21461056b578063e177246e14610580578063f2b06537146105aa57610106565b80637d645fab14610541578063b1b43ae51461055657610106565b80630825f38f1461010b5780633a66f9011461025e578063591fcdfe146103ce5780636a42b8f81461052c57610106565b3661010657604080517f08c379a000000000000000000000000000000000000000000000000000000000815260206004820152600a60248201527f4e6f207468616e6b732100000000000000000000000000000000000000000000604482015290519081900360640190fd5b600080fd5b61025c600480360360a081101561012157600080fd5b73ffffffffffffffffffffffffffffffffffffffff8235169160208101359181019060608101604082013564010000000081111561015e57600080fd5b82018360208201111561017057600080fd5b8035906020019184600183028401116401000000008311171561019257600080fd5b91908080601f01602080910402602001604051908101604052809392919081815260200183838082843760009201919091525092959493602081019350359150506401000000008111156101e557600080fd5b8201836020820111156101f757600080fd5b8035906020019184600183028401116401000000008311171561021957600080fd5b91908080601f01602080910402602001604051908101604052809392919081815260200183838082843760009201919091525092955050913592506105e8915050565b005b34801561026a57600080fd5b506103bc600480360360a081101561028157600080fd5b73ffffffffffffffffffffffffffffffffffffffff823516916020810135918101906060810160408201356401000000008111156102be57600080fd5b8201836020820111156102d057600080fd5b803590602001918460018302840111640100000000831117156102f257600080fd5b91908080601f016020809104026020016040519081016040528093929190818152602001838380828437600092019190915250929594936020810193503591505064010000000081111561034557600080fd5b82018360208201111561035757600080fd5b8035906020019184600183028401116401000000008311171561037957600080fd5b91908080601f0160208091040260200160405190810160405280939291908181526020018383808284376000920191909152509295505091359250610c25915050565b60408051918252519081900360200190f35b3480156103da57600080fd5b5061025c600480360360a08110156103f157600080fd5b73ffffffffffffffffffffffffffffffffffffffff8235169160208101359181019060608101604082013564010000000081111561042e57600080fd5b82018360208201111561044057600080fd5b8035906020019184600183028401116401000000008311171561046257600080fd5b91908080601f01602080910402602001604051908101604052809392919081815260200183838082843760009201919091525092959493602081019350359150506401000000008111156104b557600080fd5b8201836020820111156104c757600080fd5b803590602001918460018302840111640100000000831117156104e957600080fd5b91908080601f0160208091040260200160405190810160405280939291908181526020018383808284376000920191909152509295505091359250610faa915050565b34801561053857600080fd5b506103bc6112bc565b34801561054d57600080fd5b506103bc6112c2565b34801561056257600080fd5b506103bc6112c9565b34801561057757600080fd5b506103bc6112d0565b34801561058c57600080fd5b5061025c600480360360208110156105a357600080fd5b50356112d7565b3480156105b657600080fd5b506105d4600480360360208110156105cd57600080fd5b503561143d565b604080519115158252519081900360200190f35b3360009081526005602052604090205460ff1661066657604080517f08c379a000000000000000000000000000000000000000000000000000000000815260206004820152600660248201527f2161646d696e0000000000000000000000000000000000000000000000000000604482015290519081900360640190fd5b60008585858585604051602001808673ffffffffffffffffffffffffffffffffffffffff1673ffffffffffffffffffffffffffffffffffffffff1681526020018581526020018060200180602001848152602001838103835286818151815260200191508051906020019080838360005b838110156106ef5781810151838201526020016106d7565b50505050905090810190601f16801561071c5780820380516001836020036101000a031916815260200191505b50838103825285518152855160209182019187019080838360005b8381101561074f578181015183820152602001610737565b50505050905090810190601f16801561077c5780820380516001836020036101000a031916815260200191505b50604080517fffffffffffffffffffffffffffffffffffffffffffffffffffffffffffffffe081840301815291815281516020928301206000818152600190935291205490995060ff1697506108259650505050505050576040517f08c379a000000000000000000000000000000000000000000000000000000000815260040180806020018281038252603d8152602001806115ca603d913960400191505060405180910390fd5b8161082e611452565b1015610885576040517f08c379a00000000000000000000000000000000000000000000000000000000081526004018080602001828103825260458152602001806115196045913960600191505060405180910390fd5b610898826212750063ffffffff61145616565b6108a0611452565b11156108f7576040517f08c379a00000000000000000000000000000000000000000000000000000000081526004018080602001828103825260338152602001806114e66033913960400191505060405180910390fd5b600081815260016020526040902080547fffffffffffffffffffffffffffffffffffffffffffffffffffffffffffffff00169055835160609061093b575082610a10565b84805190602001208460405160200180837bffffffffffffffffffffffffffffffffffffffffffffffffffffffff19167bffffffffffffffffffffffffffffffffffffffffffffffffffffffff1916815260040182805190602001908083835b602083106109d857805182527fffffffffffffffffffffffffffffffffffffffffffffffffffffffffffffffe0909201916020918201910161099b565b6001836020036101000a0380198251168184511680821785525050505050509050019250505060405160208183030381529060405290505b60008773ffffffffffffffffffffffffffffffffffffffff1687836040518082805190602001908083835b60208310610a7857805182527fffffffffffffffffffffffffffffffffffffffffffffffffffffffffffffffe09092019160209182019101610a3b565b6001836020036101000a03801982511681845116808217855250505050505090500191505060006040518083038185875af1925050503d8060008114610ada576040519150601f19603f3d011682016040523d82523d6000602084013e610adf565b606091505b505090508015610c12578773ffffffffffffffffffffffffffffffffffffffff16837fa560e3198060a2f10670c1ec5b403077ea6ae93ca8de1c32b451dc1a943cd6e789898989604051808581526020018060200180602001848152602001838103835286818151815260200191508051906020019080838360005b83811015610b73578181015183820152602001610b5b565b50505050905090810190601f168015610ba05780820380516001836020036101000a031916815260200191505b50838103825285518152855160209182019187019080838360005b83811015610bd3578181015183820152602001610bbb565b50505050905090810190601f168015610c005780820380516001836020036101000a031916815260200191505b50965050505050505060405180910390a35b610c1b816114ce565b5050505050505050565b3360009081526005602052604081205460ff16610ca357604080517f08c379a000000000000000000000000000000000000000000000000000000000815260206004820152600660248201527f2161646d696e0000000000000000000000000000000000000000000000000000604482015290519081900360640190fd5b610cbd600054610cb1611452565b9063ffffffff61145616565b821015610d15576040517f08c379a00000000000000000000000000000000000000000000000000000000081526004018080602001828103825260498152602001806116076049913960600191505060405180910390fd5b60008686868686604051602001808673ffffffffffffffffffffffffffffffffffffffff1673ffffffffffffffffffffffffffffffffffffffff1681526020018581526020018060200180602001848152602001838103835286818151815260200191508051906020019080838360005b83811015610d9e578181015183820152602001610d86565b50505050905090810190601f168015610dcb5780820380516001836020036101000a031916815260200191505b50838103825285518152855160209182019187019080838360005b83811015610dfe578181015183820152602001610de6565b50505050905090810190601f168015610e2b5780820380516001836020036101000a031916815260200191505b50975050505050505050604051602081830303815290604052805190602001209050600180600083815260200190815260200160002060006101000a81548160ff0219169083151502179055508673ffffffffffffffffffffffffffffffffffffffff16817f76e2796dc3a81d57b0e8504b647febcbeeb5f4af818e164f11eef8131a6a763f88888888604051808581526020018060200180602001848152602001838103835286818151815260200191508051906020019080838360005b83811015610f02578181015183820152602001610eea565b50505050905090810190601f168015610f2f5780820380516001836020036101000a031916815260200191505b50838103825285518152855160209182019187019080838360005b83811015610f62578181015183820152602001610f4a565b50505050905090810190601f168015610f8f5780820380516001836020036101000a031916815260200191505b50965050505050505060405180910390a39695505050505050565b3360009081526005602052604090205460ff1661102857604080517f08c379a000000000000000000000000000000000000000000000000000000000815260206004820152600660248201527f2161646d696e0000000000000000000000000000000000000000000000000000604482015290519081900360640190fd5b60008585858585604051602001808673ffffffffffffffffffffffffffffffffffffffff1673ffffffffffffffffffffffffffffffffffffffff1681526020018581526020018060200180602001848152602001838103835286818151815260200191508051906020019080838360005b838110156110b1578181015183820152602001611099565b50505050905090810190601f1680156110de5780820380516001836020036101000a031916815260200191505b50838103825285518152855160209182019187019080838360005b838110156111115781810151838201526020016110f9565b50505050905090810190601f16801561113e5780820380516001836020036101000a031916815260200191505b5097505050505050505060405160208183030381529060405280519060200120905060006001600083815260200190815260200160002060006101000a81548160ff0219169083151502179055508573ffffffffffffffffffffffffffffffffffffffff16817f2fffc091a501fd91bfbff27141450d3acb40fb8e6d8382b243ec7a812a3aaf8787878787604051808581526020018060200180602001848152602001838103835286818151815260200191508051906020019080838360005b838110156112165781810151838201526020016111fe565b50505050905090810190601f1680156112435780820380516001836020036101000a031916815260200191505b50838103825285518152855160209182019187019080838360005b8381101561127657818101518382015260200161125e565b50505050905090810190601f1680156112a35780820380516001836020036101000a031916815260200191505b50965050505050505060405180910390a3505050505050565b60005481565b62278d0081565b6202a30081565b6212750081565b3360009081526005602052604090205460ff1661135557604080517f08c379a000000000000000000000000000000000000000000000000000000000815260206004820152600660248201527f2161646d696e0000000000000000000000000000000000000000000000000000604482015290519081900360640190fd5b6202a3008110156113b1576040517f08c379a000000000000000000000000000000000000000000000000000000000815260040180806020018281038252603481526020018061155e6034913960400191505060405180910390fd5b62278d0081111561140d576040517f08c379a00000000000000000000000000000000000000000000000000000000081526004018080602001828103825260388152602001806115926038913960400191505060405180910390fd5b600081815560405182917f948b1f6a42ee138b7e34058ba85a37f716d55ff25ff05a763f15bed6a04c8d2c91a250565b60016020526000908152604090205460ff1681565b4290565b808201828110156114c857604080517f08c379a000000000000000000000000000000000000000000000000000000000815260206004820152601460248201527f64732d6d6174682d6164642d6f766572666c6f77000000000000000000000000604482015290519081900360640190fd5b92915050565b3d806000803e8180156114e057816000f35b816000fdfe54696d656c6f636b3a3a657865637574655472616e73616374696f6e3a205472616e73616374696f6e206973207374616c652e54696d656c6f636b3a3a657865637574655472616e73616374696f6e3a205472616e73616374696f6e206861736e2774207375727061737365642074696d65206c6f636b2e54696d656c6f636b3a3a73657444656c61793a2044656c6179206d75737420657863656564206d696e696d756d2064656c61792e54696d656c6f636b3a3a73657444656c61793a2044656c6179206d757374206e6f7420657863656564206d6178696d756d2064656c61792e54696d656c6f636b3a3a657865637574655472616e73616374696f6e3a205472616e73616374696f6e206861736e2774206265656e207175657565642e54696d656c6f636b3a3a71756575655472616e73616374696f6e3a20457374696d6174656420657865637574696f6e20626c6f636b206d75737420736174697366792064656c61792ea26469706673582212208c7e5a4d25c54faaf1a22a0543658c1212a8582c257c43ad0ba7e30afde69c1a64736f6c6343000602003354696d656c6f636b3a3a636f6e7374727563746f723a2044656c6179206d75737420657863656564206d696e696d756d2064656c61792e54696d656c6f636b3a3a73657444656c61793a2044656c6179206d757374206e6f7420657863656564206d6178696d756d2064656c61792e",
  "source": "pragma solidity >=0.6.2;\n\nimport \"./DataStructure.sol\";\nimport \"./lib/SafeMath.sol\";\n\ncontract Timelock is DataStructure {\n    using SafeMath for uint;\n\n    event NewDelay(uint indexed newDelay);\n    event CancelTransaction(bytes32 indexed txHash, address indexed target, uint value, string signature,  bytes data, uint eta);\n    event ExecuteTransaction(bytes32 indexed txHash, address indexed target, uint value, string signature,  bytes data, uint eta);\n    event QueueTransaction(bytes32 indexed txHash, address indexed target, uint value, string signature, bytes data, uint eta);\n\n    uint public constant GRACE_PERIOD = 14 days;\n    uint public constant MINIMUM_DELAY = 2 days;\n    uint public constant MAXIMUM_DELAY = 30 days;\n\n    constructor(uint delay_) public {\n        require(delay_ >= MINIMUM_DELAY, \"Timelock::constructor: Delay must exceed minimum delay.\");\n        require(delay_ <= MAXIMUM_DELAY, \"Timelock::setDelay: Delay must not exceed maximum delay.\");\n\n        delay = delay_;\n    }\n\n    function setDelay(uint delay_) public {\n        require(authorizedAdmins[msg.sender], \"!admin\");\n        require(delay_ >= MINIMUM_DELAY, \"Timelock::setDelay: Delay must exceed minimum delay.\");\n        require(delay_ <= MAXIMUM_DELAY, \"Timelock::setDelay: Delay must not exceed maximum delay.\");\n        delay = delay_;\n\n        emit NewDelay(delay);\n    }\n\n    function queueTransaction(address target, uint value, string memory signature, bytes memory data, uint eta) public returns (bytes32) {\n        require(authorizedAdmins[msg.sender], \"!admin\");\n        require(eta >= getBlockTimestamp().add(delay), \"Timelock::queueTransaction: Estimated execution block must satisfy delay.\");\n\n        bytes32 txHash = keccak256(abi.encode(target, value, signature, data, eta));\n        queuedTransactions[txHash] = true;\n\n        emit QueueTransaction(txHash, target, value, signature, data, eta);\n        return txHash;\n    }\n\n    function cancelTransaction(address target, uint value, string memory signature, bytes memory data, uint eta) public {\n        require(authorizedAdmins[msg.sender], \"!admin\");\n\n        bytes32 txHash = keccak256(abi.encode(target, value, signature, data, eta));\n        queuedTransactions[txHash] = false;\n\n        emit CancelTransaction(txHash, target, value, signature, data, eta);\n    }\n\n    function executeTransaction(address target, uint value, string memory signature, bytes memory data, uint eta) public payable {\n        require(authorizedAdmins[msg.sender], \"!admin\");\n\n        bytes32 txHash = keccak256(abi.encode(target, value, signature, data, eta));\n        require(queuedTransactions[txHash], \"Timelock::executeTransaction: Transaction hasn't been queued.\");\n        require(getBlockTimestamp() >= eta, \"Timelock::executeTransaction: Transaction hasn't surpassed time lock.\");\n        require(getBlockTimestamp() <= eta.add(GRACE_PERIOD), \"Timelock::executeTransaction: Transaction is stale.\");\n\n        queuedTransactions[txHash] = false;\n\n        bytes memory callData;\n\n        if (bytes(signature).length == 0) {\n            callData = data;\n        } else {\n            callData = abi.encodePacked(bytes4(keccak256(bytes(signature))), data);\n        }\n\n        // solium-disable-next-line security/no-call-value\n        (bool success,) = target.call.value(value)(callData);\n\n        if (success) {\n            emit ExecuteTransaction(txHash, target, value, signature, data, eta);\n        }\n\n        return _forwardCallResult(success);\n    }\n\n    function getBlockTimestamp() internal view returns (uint) {\n        // solium-disable-next-line security/no-block-members\n        return block.timestamp;\n    }\n}",
  "sourcePath": "/home/zergity/src/github.com/ezDeFi/sfarm-contracts/contracts/Timelock.sol",
  "compiler": {
    "name": "solc",
    "version": "0.6.2+commit.bacdbe57.Emscripten.clang"
  },
  "schemaVersion": "3.2.4",
  "updatedAt": "2021-05-28T15:27:51.027Z",
  "devdoc": {
    "methods": {}
  },
  "userdoc": {
    "methods": {}
  }
}