{
    "contractName": "SFarm",
    "abi": [
        {
            "inputs": [
                {
                    "internalType": "address",
                    "name": "_earnToken",
                    "type": "address"
                },
                {
                    "internalType": "address",
                    "name": "_admin",
                    "type": "address"
                },
                {
                    "internalType": "uint256",
                    "name": "_subsidyRate",
                    "type": "uint256"
                },
                {
                    "internalType": "uint256",
                    "name": "_delay",
                    "type": "uint256"
                }
            ],
            "stateMutability": "nonpayable",
            "type": "constructor"
        },
        {
            "anonymous": false,
            "inputs": [
                {
                    "indexed": true,
                    "internalType": "address",
                    "name": "admin",
                    "type": "address"
                },
                {
                    "indexed": false,
                    "internalType": "bool",
                    "name": "enable",
                    "type": "bool"
                }
            ],
            "name": "AuthorizeAdmin",
            "type": "event"
        },
        {
            "anonymous": false,
            "inputs": [
                {
                    "indexed": true,
                    "internalType": "address",
                    "name": "farmer",
                    "type": "address"
                },
                {
                    "indexed": false,
                    "internalType": "bool",
                    "name": "enable",
                    "type": "bool"
                }
            ],
            "name": "AuthorizeFarmer",
            "type": "event"
        },
        {
            "anonymous": false,
            "inputs": [
                {
                    "indexed": true,
                    "internalType": "address",
                    "name": "router",
                    "type": "address"
                },
                {
                    "indexed": false,
                    "internalType": "uint256",
                    "name": "mask",
                    "type": "uint256"
                }
            ],
            "name": "AuthorizeRouter",
            "type": "event"
        },
        {
            "anonymous": false,
            "inputs": [
                {
                    "indexed": true,
                    "internalType": "address",
                    "name": "token",
                    "type": "address"
                },
                {
                    "indexed": false,
                    "internalType": "uint256",
                    "name": "level",
                    "type": "uint256"
                }
            ],
            "name": "AuthorizeToken",
            "type": "event"
        },
        {
            "anonymous": false,
            "inputs": [
                {
                    "indexed": true,
                    "internalType": "address",
                    "name": "router",
                    "type": "address"
                },
                {
                    "indexed": true,
                    "internalType": "bytes4",
                    "name": "func",
                    "type": "bytes4"
                },
                {
                    "indexed": false,
                    "internalType": "uint256",
                    "name": "mask",
                    "type": "uint256"
                }
            ],
            "name": "AuthorizeWithdrawalFunc",
            "type": "event"
        },
        {
            "anonymous": false,
            "inputs": [
                {
                    "indexed": true,
                    "internalType": "bytes32",
                    "name": "txHash",
                    "type": "bytes32"
                },
                {
                    "indexed": true,
                    "internalType": "address",
                    "name": "target",
                    "type": "address"
                },
                {
                    "indexed": false,
                    "internalType": "uint256",
                    "name": "value",
                    "type": "uint256"
                },
                {
                    "indexed": false,
                    "internalType": "string",
                    "name": "signature",
                    "type": "string"
                },
                {
                    "indexed": false,
                    "internalType": "bytes",
                    "name": "data",
                    "type": "bytes"
                },
                {
                    "indexed": false,
                    "internalType": "uint256",
                    "name": "eta",
                    "type": "uint256"
                }
            ],
            "name": "CancelTransaction",
            "type": "event"
        },
        {
            "anonymous": false,
            "inputs": [
                {
                    "indexed": true,
                    "internalType": "address",
                    "name": "sender",
                    "type": "address"
                },
                {
                    "indexed": true,
                    "internalType": "address",
                    "name": "token",
                    "type": "address"
                },
                {
                    "indexed": false,
                    "internalType": "uint256",
                    "name": "value",
                    "type": "uint256"
                }
            ],
            "name": "Deposit",
            "type": "event"
        },
        {
            "anonymous": false,
            "inputs": [
                {
                    "indexed": true,
                    "internalType": "bytes32",
                    "name": "txHash",
                    "type": "bytes32"
                },
                {
                    "indexed": true,
                    "internalType": "address",
                    "name": "target",
                    "type": "address"
                },
                {
                    "indexed": false,
                    "internalType": "uint256",
                    "name": "value",
                    "type": "uint256"
                },
                {
                    "indexed": false,
                    "internalType": "string",
                    "name": "signature",
                    "type": "string"
                },
                {
                    "indexed": false,
                    "internalType": "bytes",
                    "name": "data",
                    "type": "bytes"
                },
                {
                    "indexed": false,
                    "internalType": "uint256",
                    "name": "eta",
                    "type": "uint256"
                }
            ],
            "name": "ExecuteTransaction",
            "type": "event"
        },
        {
            "anonymous": false,
            "inputs": [
                {
                    "indexed": true,
                    "internalType": "address",
                    "name": "receivingToken",
                    "type": "address"
                },
                {
                    "indexed": true,
                    "internalType": "address",
                    "name": "router",
                    "type": "address"
                },
                {
                    "indexed": true,
                    "internalType": "bytes4",
                    "name": "func",
                    "type": "bytes4"
                }
            ],
            "name": "FarmerExec",
            "type": "event"
        },
        {
            "anonymous": false,
            "inputs": [
                {
                    "indexed": true,
                    "internalType": "address",
                    "name": "sender",
                    "type": "address"
                },
                {
                    "indexed": false,
                    "internalType": "uint256",
                    "name": "value",
                    "type": "uint256"
                },
                {
                    "indexed": false,
                    "internalType": "uint256",
                    "name": "subsidy",
                    "type": "uint256"
                }
            ],
            "name": "Harvest",
            "type": "event"
        },
        {
            "anonymous": false,
            "inputs": [
                {
                    "indexed": true,
                    "internalType": "uint256",
                    "name": "newDelay",
                    "type": "uint256"
                }
            ],
            "name": "NewDelay",
            "type": "event"
        },
        {
            "anonymous": false,
            "inputs": [
                {
                    "indexed": true,
                    "internalType": "bytes32",
                    "name": "txHash",
                    "type": "bytes32"
                },
                {
                    "indexed": true,
                    "internalType": "address",
                    "name": "target",
                    "type": "address"
                },
                {
                    "indexed": false,
                    "internalType": "uint256",
                    "name": "value",
                    "type": "uint256"
                },
                {
                    "indexed": false,
                    "internalType": "string",
                    "name": "signature",
                    "type": "string"
                },
                {
                    "indexed": false,
                    "internalType": "bytes",
                    "name": "data",
                    "type": "bytes"
                },
                {
                    "indexed": false,
                    "internalType": "uint256",
                    "name": "eta",
                    "type": "uint256"
                }
            ],
            "name": "QueueTransaction",
            "type": "event"
        },
        {
            "anonymous": false,
            "inputs": [
                {
                    "indexed": true,
                    "internalType": "address",
                    "name": "sender",
                    "type": "address"
                },
                {
                    "indexed": true,
                    "internalType": "address",
                    "name": "token",
                    "type": "address"
                },
                {
                    "indexed": false,
                    "internalType": "uint256",
                    "name": "value",
                    "type": "uint256"
                }
            ],
            "name": "Withdraw",
            "type": "event"
        },
        {
            "inputs": [],
            "name": "GRACE_PERIOD",
            "outputs": [
                {
                    "internalType": "uint256",
                    "name": "",
                    "type": "uint256"
                }
            ],
            "stateMutability": "view",
            "type": "function",
            "constant": true
        },
        {
            "inputs": [],
            "name": "MAXIMUM_DELAY",
            "outputs": [
                {
                    "internalType": "uint256",
                    "name": "",
                    "type": "uint256"
                }
            ],
            "stateMutability": "view",
            "type": "function",
            "constant": true
        },
        {
            "inputs": [],
            "name": "MINIMUM_DELAY",
            "outputs": [
                {
                    "internalType": "uint256",
                    "name": "",
                    "type": "uint256"
                }
            ],
            "stateMutability": "view",
            "type": "function",
            "constant": true
        },
        {
            "inputs": [
                {
                    "internalType": "address",
                    "name": "target",
                    "type": "address"
                },
                {
                    "internalType": "uint256",
                    "name": "value",
                    "type": "uint256"
                },
                {
                    "internalType": "string",
                    "name": "signature",
                    "type": "string"
                },
                {
                    "internalType": "bytes",
                    "name": "data",
                    "type": "bytes"
                },
                {
                    "internalType": "uint256",
                    "name": "eta",
                    "type": "uint256"
                }
            ],
            "name": "cancelTransaction",
            "outputs": [],
            "stateMutability": "nonpayable",
            "type": "function"
        },
        {
            "inputs": [],
            "name": "delay",
            "outputs": [
                {
                    "internalType": "uint256",
                    "name": "",
                    "type": "uint256"
                }
            ],
            "stateMutability": "view",
            "type": "function",
            "constant": true
        },
        {
            "inputs": [
                {
                    "internalType": "address",
                    "name": "target",
                    "type": "address"
                },
                {
                    "internalType": "uint256",
                    "name": "value",
                    "type": "uint256"
                },
                {
                    "internalType": "string",
                    "name": "signature",
                    "type": "string"
                },
                {
                    "internalType": "bytes",
                    "name": "data",
                    "type": "bytes"
                },
                {
                    "internalType": "uint256",
                    "name": "eta",
                    "type": "uint256"
                }
            ],
            "name": "executeTransaction",
            "outputs": [],
            "stateMutability": "payable",
            "type": "function",
            "payable": true
        },
        {
            "inputs": [
                {
                    "internalType": "address",
                    "name": "target",
                    "type": "address"
                },
                {
                    "internalType": "uint256",
                    "name": "value",
                    "type": "uint256"
                },
                {
                    "internalType": "string",
                    "name": "signature",
                    "type": "string"
                },
                {
                    "internalType": "bytes",
                    "name": "data",
                    "type": "bytes"
                },
                {
                    "internalType": "uint256",
                    "name": "eta",
                    "type": "uint256"
                }
            ],
            "name": "queueTransaction",
            "outputs": [
                {
                    "internalType": "bytes32",
                    "name": "",
                    "type": "bytes32"
                }
            ],
            "stateMutability": "nonpayable",
            "type": "function"
        },
        {
            "inputs": [
                {
                    "internalType": "bytes32",
                    "name": "",
                    "type": "bytes32"
                }
            ],
            "name": "queuedTransactions",
            "outputs": [
                {
                    "internalType": "bool",
                    "name": "",
                    "type": "bool"
                }
            ],
            "stateMutability": "view",
            "type": "function",
            "constant": true
        },
        {
            "inputs": [
                {
                    "internalType": "uint256",
                    "name": "delay_",
                    "type": "uint256"
                }
            ],
            "name": "setDelay",
            "outputs": [],
            "stateMutability": "nonpayable",
            "type": "function"
        },
        {
            "inputs": [
                {
                    "internalType": "address",
                    "name": "token",
                    "type": "address"
                },
                {
                    "internalType": "uint256",
                    "name": "amount",
                    "type": "uint256"
                }
            ],
            "name": "deposit",
            "outputs": [],
            "stateMutability": "nonpayable",
            "type": "function"
        },
        {
            "inputs": [
                {
                    "internalType": "address",
                    "name": "token",
                    "type": "address"
                },
                {
                    "internalType": "uint256",
                    "name": "amount",
                    "type": "uint256"
                },
                {
                    "components": [
                        {
                            "internalType": "address",
                            "name": "receivingToken",
                            "type": "address"
                        },
                        {
                            "components": [
                                {
                                    "internalType": "address",
                                    "name": "router",
                                    "type": "address"
                                },
                                {
                                    "internalType": "bytes",
                                    "name": "input",
                                    "type": "bytes"
                                }
                            ],
                            "internalType": "struct SFarm.paramExec[]",
                            "name": "execs",
                            "type": "tuple[]"
                        }
                    ],
                    "internalType": "struct SFarm.paramRL[]",
                    "name": "rls",
                    "type": "tuple[]"
                }
            ],
            "name": "withdraw",
            "outputs": [],
            "stateMutability": "nonpayable",
            "type": "function"
        },
        {
            "inputs": [
                {
                    "internalType": "uint256",
                    "name": "scale",
                    "type": "uint256"
                }
            ],
            "name": "harvest",
            "outputs": [
                {
                    "internalType": "uint256",
                    "name": "earn",
                    "type": "uint256"
                }
            ],
            "stateMutability": "nonpayable",
            "type": "function"
        },
        {
            "inputs": [
                {
                    "internalType": "address",
                    "name": "receivingToken",
                    "type": "address"
                },
                {
                    "internalType": "address",
                    "name": "router",
                    "type": "address"
                },
                {
                    "internalType": "bytes",
                    "name": "input",
                    "type": "bytes"
                }
            ],
            "name": "farmerExec",
            "outputs": [],
            "stateMutability": "nonpayable",
            "type": "function"
        },
        {
            "inputs": [
                {
                    "internalType": "address",
                    "name": "router",
                    "type": "address"
                },
                {
                    "internalType": "bytes",
                    "name": "input",
                    "type": "bytes"
                },
                {
                    "internalType": "address[]",
                    "name": "tokens",
                    "type": "address[]"
                }
            ],
            "name": "farmerProcessOutstandingToken",
            "outputs": [],
            "stateMutability": "nonpayable",
            "type": "function"
        },
        {
            "inputs": [
                {
                    "internalType": "address",
                    "name": "recipient",
                    "type": "address"
                },
                {
                    "internalType": "uint256",
                    "name": "rate",
                    "type": "uint256"
                }
            ],
            "name": "setSubsidy",
            "outputs": [],
            "stateMutability": "nonpayable",
            "type": "function"
        },
        {
            "inputs": [
                {
                    "internalType": "address[]",
                    "name": "tokens",
                    "type": "address[]"
                },
                {
                    "internalType": "address[]",
                    "name": "routers",
                    "type": "address[]"
                },
                {
                    "internalType": "uint256",
                    "name": "amount",
                    "type": "uint256"
                }
            ],
            "name": "approve",
            "outputs": [],
            "stateMutability": "nonpayable",
            "type": "function"
        },
        {
            "inputs": [
                {
                    "internalType": "bytes32[]",
                    "name": "changes",
                    "type": "bytes32[]"
                }
            ],
            "name": "authorizeAdmins",
            "outputs": [],
            "stateMutability": "nonpayable",
            "type": "function"
        },
        {
            "inputs": [
                {
                    "internalType": "bytes32[]",
                    "name": "changes",
                    "type": "bytes32[]"
                }
            ],
            "name": "authorizeFarmers",
            "outputs": [],
            "stateMutability": "nonpayable",
            "type": "function"
        },
        {
            "inputs": [
                {
                    "internalType": "bytes32[]",
                    "name": "changes",
                    "type": "bytes32[]"
                }
            ],
            "name": "authorizeRouters",
            "outputs": [],
            "stateMutability": "nonpayable",
            "type": "function"
        },
        {
            "inputs": [
                {
                    "internalType": "bytes32[]",
                    "name": "changes",
                    "type": "bytes32[]"
                }
            ],
            "name": "authorizeTokens",
            "outputs": [],
            "stateMutability": "nonpayable",
            "type": "function"
        },
        {
            "inputs": [
                {
                    "internalType": "bytes32[]",
                    "name": "changes",
                    "type": "bytes32[]"
                }
            ],
            "name": "authorizeWithdrawalFuncs",
            "outputs": [],
            "stateMutability": "nonpayable",
            "type": "function"
        },
        {
            "inputs": [
                {
                    "internalType": "address",
                    "name": "a",
                    "type": "address"
                }
            ],
            "name": "query",
            "outputs": [
                {
                    "internalType": "uint256",
                    "name": "stake",
                    "type": "uint256"
                },
                {
                    "internalType": "uint256",
                    "name": "value",
                    "type": "uint256"
                },
                {
                    "internalType": "uint256",
                    "name": "totalStake",
                    "type": "uint256"
                },
                {
                    "internalType": "uint256",
                    "name": "totalValue",
                    "type": "uint256"
                }
            ],
            "stateMutability": "view",
            "type": "function",
            "constant": true
        },
        {
            "inputs": [],
            "name": "queryConfig",
            "outputs": [
                {
                    "internalType": "uint256",
                    "name": "delay_",
                    "type": "uint256"
                },
                {
                    "internalType": "address",
                    "name": "earnToken_",
                    "type": "address"
                },
                {
                    "internalType": "uint256",
                    "name": "subsidyRate_",
                    "type": "uint256"
                },
                {
                    "internalType": "address",
                    "name": "subsidyRecipient_",
                    "type": "address"
                },
                {
                    "internalType": "uint256",
                    "name": "stakeTokensCount_",
                    "type": "uint256"
                }
            ],
            "stateMutability": "view",
            "type": "function",
            "constant": true
        }
    ],
    "bytecode": "0x60806040523480156200001157600080fd5b50604051620058cf380380620058cf83398101604081905262000034916200019d565b806202a300811015620000645760405162461bcd60e51b81526004016200005b90620001f1565b60405180910390fd5b62278d008111156200008a5760405162461bcd60e51b81526004016200005b9062000285565b600055670de0b6b3a76400008210620000b75760405162461bcd60e51b81526004016200005b906200024e565b60028054600160a01b600160e01b031916600160a01b6001600160401b038516021790556001600160a01b038316620000ee573392505b600380546001600160a01b038086166001600160a01b0319928316811790935560008381526005602052604090819020805460ff1916600190811790915560028054938a16939094169290921790925590517f9f2a093206efd0cf9bfd4b196198ff63477b0fb72075b86fb6c326e9b992c6c8916200016d91620001e6565b60405180910390a250505050620002e2565b80516001600160a01b03811681146200019757600080fd5b92915050565b60008060008060808587031215620001b3578384fd5b620001bf86866200017f565b9350620001d086602087016200017f565b6040860151606090960151949790965092505050565b901515815260200190565b60208082526037908201527f54696d656c6f636b3a3a636f6e7374727563746f723a2044656c6179206d757360408201527f7420657863656564206d696e696d756d2064656c61792e000000000000000000606082015260800190565b60208082526014908201527f7375627369647952617465206f766572666c6f77000000000000000000000000604082015260600190565b60208082526038908201527f54696d656c6f636b3a3a73657444656c61793a2044656c6179206d757374206e60408201527f6f7420657863656564206d6178696d756d2064656c61792e0000000000000000606082015260800190565b6155dd80620002f26000396000f3fe6080604052600436106101805760003560e01c80637d645fab116100d6578063d4fc9fc61161007f578063e68f909d11610059578063e68f909d146103f4578063eb63a3d51461041a578063f2b065371461043a57610180565b8063d4fc9fc614610384578063ddc63262146103b4578063e177246e146103d457610180565b8063c1a287e2116100b0578063c1a287e21461032f578063d296215214610344578063d3af07921461036457610180565b80637d645fab146102e55780639999d616146102fa578063b1b43ae51461031a57610180565b806347e7ef2411610138578063596412b311610112578063596412b3146102905780636a42b8f8146102b057806376f95301146102c557610180565b806347e7ef241461023057806350658dad14610250578063591fcdfe1461027057610180565b806323ebd04f1161016957806323ebd04f146101ba57806326cab58f146101da5780633a66f901146101fa57610180565b80630825f38f14610185578063222da3cf1461019a575b600080fd5b6101986101933660046148ab565b610467565b005b3480156101a657600080fd5b506101986101b53660046149a0565b610735565b3480156101c657600080fd5b506101986101d53660046149a0565b61098f565b3480156101e657600080fd5b506101986101f536600461492f565b610bcf565b34801561020657600080fd5b5061021a6102153660046148ab565b610e21565b6040516102279190614bcb565b60405180910390f35b34801561023c57600080fd5b5061019861024b366004614834565b610fa7565b34801561025c57600080fd5b5061019861026b366004614752565b61128d565b34801561027c57600080fd5b5061019861028b3660046148ab565b61171b565b34801561029c57600080fd5b506101986102ab3660046149a0565b611847565b3480156102bc57600080fd5b5061021a611abe565b3480156102d157600080fd5b506101986102e03660046149a0565b611ac4565b3480156102f157600080fd5b5061021a611d7f565b34801561030657600080fd5b50610198610315366004614834565b611d86565b34801561032657600080fd5b5061021a611f65565b34801561033b57600080fd5b5061021a611f6c565b34801561035057600080fd5b5061019861035f36600461485e565b611f73565b34801561037057600080fd5b5061019861037f3660046149a0565b612cf8565b34801561039057600080fd5b506103a461039f366004614730565b612f6b565b6040516102279493929190615522565b3480156103c057600080fd5b5061021a6103cf366004614a00565b613142565b3480156103e057600080fd5b506101986103ef366004614a00565b6136be565b34801561040057600080fd5b506104096137b1565b60405161022795949392919061549c565b34801561042657600080fd5b506101986104353660046147b5565b613801565b34801561044657600080fd5b5061045a610455366004614a00565b613d16565b6040516102279190614bc0565b3360009081526005602052604090205460ff166104b9576040517f08c379a00000000000000000000000000000000000000000000000000000000081526004016104b09061505d565b60405180910390fd5b600085858585856040516020016104d4959493929190614b66565b604080517fffffffffffffffffffffffffffffffffffffffffffffffffffffffffffffffe081840301815291815281516020928301206000818152600190935291205490915060ff16610553576040517f08c379a00000000000000000000000000000000000000000000000000000000081526004016104b090615196565b8161055c613d2b565b1015610594576040517f08c379a00000000000000000000000000000000000000000000000000000000081526004016104b090614e35565b6105a7826212750063ffffffff613d2f16565b6105af613d2b565b11156105e7576040517f08c379a00000000000000000000000000000000000000000000000000000000081526004016104b090614d44565b600081815260016020526040902080547fffffffffffffffffffffffffffffffffffffffffffffffffffffffffffffff00169055835160609061062b575082610657565b848051906020012084604051602001610645929190614a7a565b60405160208183030381529060405290505b60008773ffffffffffffffffffffffffffffffffffffffff16878360405161067f9190614ad2565b60006040518083038185875af1925050503d80600081146106bc576040519150601f19603f3d011682016040523d82523d6000602084013e6106c1565b606091505b505090508015610721578773ffffffffffffffffffffffffffffffffffffffff16837fa560e3198060a2f10670c1ec5b403077ea6ae93ca8de1c32b451dc1a943cd6e78989898960405161071894939291906154d7565b60405180910390a35b61072a81613d72565b5050505b5050505050565b3330146108275760408051808201909152600b5477ffffffffffffffffffffffffffffffffffffffffffffffff811682527801000000000000000000000000000000000000000000000000900467ffffffffffffffff16602082015269021e19e0c9bab2400000906107a690613d89565b11156107de576040517f08c379a00000000000000000000000000000000000000000000000000000000081526004016104b09061542e565b3360009081526005602052604090205460ff16610827576040517f08c379a00000000000000000000000000000000000000000000000000000000081526004016104b09061505d565b600760005b8281101561098957600084848381811061084257fe5b602002919091013560601c9150503081141561088a576040517f08c379a00000000000000000000000000000000000000000000000000000000081526004016104b090614fb8565b60008386868581811061089957fe5b9050602002013560001c16905080600860008473ffffffffffffffffffffffffffffffffffffffff1673ffffffffffffffffffffffffffffffffffffffff16815260200190815260200160002054141561091f576040517f08c379a00000000000000000000000000000000000000000000000000000000081526004016104b090615298565b73ffffffffffffffffffffffffffffffffffffffff821660008181526008602052604090819020839055517fa15b8110a6fcdec2df48ef83fd2394988b05b4e18d3b03528c020f22ed01418a90610977908490614bcb565b60405180910390a2505060010161082c565b50505050565b333014610a815760408051808201909152600b5477ffffffffffffffffffffffffffffffffffffffffffffffff811682527801000000000000000000000000000000000000000000000000900467ffffffffffffffff16602082015269021e19e0c9bab240000090610a0090613d89565b1115610a38576040517f08c379a00000000000000000000000000000000000000000000000000000000081526004016104b09061542e565b3360009081526005602052604090205460ff16610a81576040517f08c379a00000000000000000000000000000000000000000000000000000000081526004016104b09061505d565b60005b81811015610bca576000838383818110610a9a57fe5b9050602002013560601c9050600080858585818110610ab557fe5b73ffffffffffffffffffffffffffffffffffffffff8616600090815260066020908152604090912054910292909201356bffffffffffffffffffffffff1692909211925060ff1615158214159050610b39576040517f08c379a00000000000000000000000000000000000000000000000000000000081526004016104b090614c9f565b73ffffffffffffffffffffffffffffffffffffffff82166000818152600660205260409081902080547fffffffffffffffffffffffffffffffffffffffffffffffffffffffffffffff0016841515179055517ff34010570b871c11ed8fb2fbcfc5ee7344a8c24c82654b2c69ed935f6230447990610bb8908490614bc0565b60405180910390a25050600101610a84565b505050565b333014610cc15760408051808201909152600b5477ffffffffffffffffffffffffffffffffffffffffffffffff811682527801000000000000000000000000000000000000000000000000900467ffffffffffffffff16602082015269021e19e0c9bab240000090610c4090613d89565b1115610c78576040517f08c379a00000000000000000000000000000000000000000000000000000000081526004016104b09061542e565b3360009081526005602052604090205460ff16610cc1576040517f08c379a00000000000000000000000000000000000000000000000000000000081526004016104b09061505d565b60005b82811015610e19576000848483818110610cda57fe5b9050602002016020610cef9190810190614730565b73ffffffffffffffffffffffffffffffffffffffff8116600090815260086020526040902054909150610d4e576040517f08c379a00000000000000000000000000000000000000000000000000000000081526004016104b09061522a565b60005b86811015610e0f57878782818110610d6557fe5b9050602002016020610d7a9190810190614730565b73ffffffffffffffffffffffffffffffffffffffff1663095ea7b383866040518363ffffffff1660e01b8152600401610db4929190614b40565b602060405180830381600087803b158015610dce57600080fd5b505af1158015610de2573d6000803e3d6000fd5b505050506040513d601f19601f82011682018060405250610e0691908101906149e0565b50600101610d51565b5050600101610cc4565b505050505050565b3360009081526005602052604081205460ff16610e6a576040517f08c379a00000000000000000000000000000000000000000000000000000000081526004016104b09061505d565b610e84600054610e78613d2b565b9063ffffffff613d2f16565b821015610ebd576040517f08c379a00000000000000000000000000000000000000000000000000000000081526004016104b090615374565b60008686868686604051602001610ed8959493929190614b66565b604080517fffffffffffffffffffffffffffffffffffffffffffffffffffffffffffffffe0818403018152828252805160209182012060008181526001928390529290922080547fffffffffffffffffffffffffffffffffffffffffffffffffffffffffffffff00169091179055915073ffffffffffffffffffffffffffffffffffffffff88169082907f76e2796dc3a81d57b0e8504b647febcbeeb5f4af818e164f11eef8131a6a763f90610f95908a908a908a908a906154d7565b60405180910390a39695505050505050565b81610fb181613dd4565b610fe7576040517f08c379a00000000000000000000000000000000000000000000000000000000081526004016104b090615306565b6040517f23b872dd00000000000000000000000000000000000000000000000000000000815273ffffffffffffffffffffffffffffffffffffffff8416906323b872dd9061103d90339030908790600401614b0f565b602060405180830381600087803b15801561105757600080fd5b505af115801561106b573d6000803e3d6000fd5b505050506040513d601f19601f8201168201806040525061108f91908101906149e0565b5060408051808201909152600b5477ffffffffffffffffffffffffffffffffffffffffffffffff811682527801000000000000000000000000000000000000000000000000900467ffffffffffffffff1660208201526110ef9083613e00565b8051600b805460209384015167ffffffffffffffff908116780100000000000000000000000000000000000000000000000090810277ffffffffffffffffffffffffffffffffffffffffffffffff9586167fffffffffffffffff00000000000000000000000000000000000000000000000090941693909317851692909217909255336000908152600a85526040908190208151808301909252549384168152920416918101919091526111a9908363ffffffff613e0016565b336000818152600a602090815260409182902084518154959092015167ffffffffffffffff1678010000000000000000000000000000000000000000000000000277ffffffffffffffffffffffffffffffffffffffffffffffff9283167fffffffffffffffff0000000000000000000000000000000000000000000000009096169590951790911693909317909255905173ffffffffffffffffffffffffffffffffffffffff851691907f5548c837ab068cf56a2c2479df0882a4922fd203edb7517321831d95078c5f6290611280908690614bcb565b60405180910390a3505050565b3360009081526006602052604090205460ff166112d6576040517f08c379a00000000000000000000000000000000000000000000000000000000081526004016104b090615261565b73ffffffffffffffffffffffffffffffffffffffff831660009081526008602052604090205461130581614086565b61133b576040517f08c379a00000000000000000000000000000000000000000000000000000000081526004016104b09061522a565b61137a83838080601f01602080910402602001604051908101604052809392919081815260200183838082843760009201919091525061408e92505050565b7bffffffffffffffffffffffffffffffffffffffffffffffffffffffff19168473ffffffffffffffffffffffffffffffffffffffff168673ffffffffffffffffffffffffffffffffffffffff167f511218d9b83eadd28e653fb499a10038af8945e42040f21943c3c5fff3b4439660405160405180910390a473ffffffffffffffffffffffffffffffffffffffff85166114cc5761141781614095565b61144d576040517f08c379a00000000000000000000000000000000000000000000000000000000081526004016104b090614da1565b60008473ffffffffffffffffffffffffffffffffffffffff168484604051611476929190614ac2565b6000604051808303816000865af19150503d80600081146114b3576040519150601f19603f3d011682016040523d82523d6000602084013e6114b8565b606091505b505090506114c581613d72565b5050610989565b6114d58561409d565b61150b576040517f08c379a00000000000000000000000000000000000000000000000000000000081526004016104b090614f24565b6040517f70a0823100000000000000000000000000000000000000000000000000000000815260009073ffffffffffffffffffffffffffffffffffffffff8716906370a0823190611560903090600401614aee565b60206040518083038186803b15801561157857600080fd5b505afa15801561158c573d6000803e3d6000fd5b505050506040513d601f19601f820116820180604052506115b09190810190614a18565b905060008573ffffffffffffffffffffffffffffffffffffffff1685856040516115db929190614ac2565b6000604051808303816000865af19150503d8060008114611618576040519150601f19603f3d011682016040523d82523d6000602084013e61161d565b606091505b50509050806116375761162f81613d72565b505050610989565b6040517f70a08231000000000000000000000000000000000000000000000000000000008152829073ffffffffffffffffffffffffffffffffffffffff8916906370a082319061168b903090600401614aee565b60206040518083038186803b1580156116a357600080fd5b505afa1580156116b7573d6000803e3d6000fd5b505050506040513d601f19601f820116820180604052506116db9190810190614a18565b11611712576040517f08c379a00000000000000000000000000000000000000000000000000000000081526004016104b09061533d565b50505050505050565b3360009081526005602052604090205460ff16611764576040517f08c379a00000000000000000000000000000000000000000000000000000000081526004016104b09061505d565b6000858585858560405160200161177f959493929190614b66565b604080517fffffffffffffffffffffffffffffffffffffffffffffffffffffffffffffffe081840301815282825280516020918201206000818152600190925291902080547fffffffffffffffffffffffffffffffffffffffffffffffffffffffffffffff00169055915073ffffffffffffffffffffffffffffffffffffffff87169082907f2fffc091a501fd91bfbff27141450d3acb40fb8e6d8382b243ec7a812a3aaf87906118379089908990899089906154d7565b60405180910390a3505050505050565b3330146119395760408051808201909152600b5477ffffffffffffffffffffffffffffffffffffffffffffffff811682527801000000000000000000000000000000000000000000000000900467ffffffffffffffff16602082015269021e19e0c9bab2400000906118b890613d89565b11156118f0576040517f08c379a00000000000000000000000000000000000000000000000000000000081526004016104b09061542e565b3360009081526005602052604090205460ff16611939576040517f08c379a00000000000000000000000000000000000000000000000000000000081526004016104b09061505d565b60005b81811015610bca57600083838381811061195257fe5b602002919091013560601c9150503381141561199a576040517f08c379a00000000000000000000000000000000000000000000000000000000081526004016104b0906150cb565b6000808585858181106119a957fe5b73ffffffffffffffffffffffffffffffffffffffff8616600090815260056020908152604090912054910292909201356bffffffffffffffffffffffff1692909211925060ff1615158214159050611a2d576040517f08c379a00000000000000000000000000000000000000000000000000000000081526004016104b090614c9f565b73ffffffffffffffffffffffffffffffffffffffff82166000818152600560205260409081902080547fffffffffffffffffffffffffffffffffffffffffffffffffffffffffffffff0016841515179055517f9f2a093206efd0cf9bfd4b196198ff63477b0fb72075b86fb6c326e9b992c6c890611aac908490614bc0565b60405180910390a2505060010161193c565b60005481565b333014611bb65760408051808201909152600b5477ffffffffffffffffffffffffffffffffffffffffffffffff811682527801000000000000000000000000000000000000000000000000900467ffffffffffffffff16602082015269021e19e0c9bab240000090611b3590613d89565b1115611b6d576040517f08c379a00000000000000000000000000000000000000000000000000000000081526004016104b09061542e565b3360009081526005602052604090205460ff16611bb6576040517f08c379a00000000000000000000000000000000000000000000000000000000081526004016104b09061505d565b600660005b82811015610989576000848483818110611bd157fe5b602002919091013560601c91505030811415611c19576040517f08c379a00000000000000000000000000000000000000000000000000000000081526004016104b090614fb8565b6000858584818110611c2757fe5b9050602002013560001c60a01b9050600084878786818110611c4557fe5b73ffffffffffffffffffffffffffffffffffffffff871660009081526009602090815260408083207fffffffff000000000000000000000000000000000000000000000000000000008a168452825290912054910292909201359290921692508214159050611ce0576040517f08c379a00000000000000000000000000000000000000000000000000000000081526004016104b090615298565b73ffffffffffffffffffffffffffffffffffffffff831660008181526009602090815260408083207fffffffff00000000000000000000000000000000000000000000000000000000871680855292529182902084905590519091907f096b0e8ebc1569dc4e7407479a63ddf5f833ffc3251b2368a5b61f13256d06c990611d69908590614bcb565b60405180910390a3505050806001019050611bbb565b62278d0081565b333014611e785760408051808201909152600b5477ffffffffffffffffffffffffffffffffffffffffffffffff811682527801000000000000000000000000000000000000000000000000900467ffffffffffffffff16602082015269021e19e0c9bab240000090611df790613d89565b1115611e2f576040517f08c379a00000000000000000000000000000000000000000000000000000000081526004016104b09061542e565b3360009081526005602052604090205460ff16611e78576040517f08c379a00000000000000000000000000000000000000000000000000000000081526004016104b09061505d565b670de0b6b3a76400008110611eb9576040517f08c379a00000000000000000000000000000000000000000000000000000000081526004016104b090615026565b600280547fffffffff0000000000000000ffffffffffffffffffffffffffffffffffffffff167401000000000000000000000000000000000000000067ffffffffffffffff84160217905573ffffffffffffffffffffffffffffffffffffffff821615611f6157600380547fffffffffffffffffffffffff00000000000000000000000000000000000000001673ffffffffffffffffffffffffffffffffffffffff84161790555b5050565b6202a30081565b6212750081565b83611f7d81613dd4565b611fb3576040517f08c379a00000000000000000000000000000000000000000000000000000000081526004016104b090615306565b336000908152600a602090815260409182902082518084019093525477ffffffffffffffffffffffffffffffffffffffffffffffff811683527801000000000000000000000000000000000000000000000000900467ffffffffffffffff169082015261202090856140c9565b336000908152600a602090815260409182902083518154948301517fffffffffffffffff00000000000000000000000000000000000000000000000090951677ffffffffffffffffffffffffffffffffffffffffffffffff918216178116780100000000000000000000000000000000000000000000000067ffffffffffffffff9687168102919091179092558351808501909452600b54908116845204909216918101919091526120d290856140c9565b8051600b805460209384015167ffffffffffffffff1678010000000000000000000000000000000000000000000000000277ffffffffffffffffffffffffffffffffffffffffffffffff9384167fffffffffffffffff00000000000000000000000000000000000000000000000090921691909117909216919091179055604080518481528483028101909201905260609083801561217b578160200160208202803883390190505b50905060005b83811015612a8957600085858381811061219757fe5b6020028201905080357fffffffffffffffffffffffffffffffffffffffffffffffffffffffffffffffc1368490030181126121d157600080fd5b6121e19201602081019150614730565b905073ffffffffffffffffffffffffffffffffffffffff8116156122f9576122088161409d565b61223e576040517f08c379a00000000000000000000000000000000000000000000000000000000081526004016104b090614f24565b6040517f70a0823100000000000000000000000000000000000000000000000000000000815273ffffffffffffffffffffffffffffffffffffffff8216906370a0823190612290903090600401614aee565b60206040518083038186803b1580156122a857600080fd5b505afa1580156122bc573d6000803e3d6000fd5b505050506040513d601f19601f820116820180604052506122e09190810190614a18565b8383815181106122ec57fe5b6020026020010181815250505b60005b86868481811061230857fe5b6020028201905080357fffffffffffffffffffffffffffffffffffffffffffffffffffffffffffffffc13684900301811261234257600080fd5b9190910190506020810180357fffffffffffffffffffffffffffffffffffffffffffffffffffffffffffffffe13684900301811261237f57600080fd5b9091016020810191503567ffffffffffffffff81111561239e57600080fd5b6020810236038213156123b057600080fd5b9050811015612a7f5760008787858181106123c757fe5b6020028201905080357fffffffffffffffffffffffffffffffffffffffffffffffffffffffffffffffc13684900301811261240157600080fd5b9190910190506020810180357fffffffffffffffffffffffffffffffffffffffffffffffffffffffffffffffe13684900301811261243e57600080fd5b9091016020810191503567ffffffffffffffff81111561245d57600080fd5b60208102360382131561246f57600080fd5b8381811061247957fe5b6020028201905080357fffffffffffffffffffffffffffffffffffffffffffffffffffffffffffffffc1368490030181126124b357600080fd5b6124c39201602081019150614730565b73ffffffffffffffffffffffffffffffffffffffff81166000908152600960205260408120919250908161268e8b8b898181106124fc57fe5b6020028201905080357fffffffffffffffffffffffffffffffffffffffffffffffffffffffffffffffc13684900301811261253657600080fd5b9190910190506020810180357fffffffffffffffffffffffffffffffffffffffffffffffffffffffffffffffe13684900301811261257357600080fd5b9091016020810191503567ffffffffffffffff81111561259257600080fd5b6020810236038213156125a457600080fd5b878181106125ae57fe5b6020028201905080357fffffffffffffffffffffffffffffffffffffffffffffffffffffffffffffffc1368490030181126125e857600080fd5b9190910190506020810180357fffffffffffffffffffffffffffffffffffffffffffffffffffffffffffffffe13684900301811261262557600080fd5b9091016020810191503567ffffffffffffffff81111561264457600080fd5b3681900382131561265457600080fd5b8080601f01602080910402602001604051908101604052809392919081815260200183838082843760009201919091525061408e92505050565b7fffffffff0000000000000000000000000000000000000000000000000000000016815260208101919091526040016000205490506126cc81614086565b612702576040517f08c379a00000000000000000000000000000000000000000000000000000000081526004016104b0906152cf565b73ffffffffffffffffffffffffffffffffffffffff841661275c5761272681614095565b61275c576040517f08c379a00000000000000000000000000000000000000000000000000000000081526004016104b090614da1565b60008273ffffffffffffffffffffffffffffffffffffffff168a8a8881811061278157fe5b6020028201905080357fffffffffffffffffffffffffffffffffffffffffffffffffffffffffffffffc1368490030181126127bb57600080fd5b9190910190506020810180357fffffffffffffffffffffffffffffffffffffffffffffffffffffffffffffffe1368490030181126127f857600080fd5b9091016020810191503567ffffffffffffffff81111561281757600080fd5b60208102360382131561282957600080fd5b8681811061283357fe5b6020028201905080357fffffffffffffffffffffffffffffffffffffffffffffffffffffffffffffffc13684900301811261286d57600080fd5b9190910190506020810180357fffffffffffffffffffffffffffffffffffffffffffffffffffffffffffffffe1368490030181126128aa57600080fd5b9091016020810191503567ffffffffffffffff8111156128c957600080fd5b368190038213156128d957600080fd5b6040516128e7929190614ac2565b6000604051808303816000865af19150503d8060008114612924576040519150601f19603f3d011682016040523d82523d6000602084013e612929565b606091505b50509050806129475761293b81613d72565b5050505050505061072e565b73ffffffffffffffffffffffffffffffffffffffff851615612a71576040517f70a0823100000000000000000000000000000000000000000000000000000000815260009073ffffffffffffffffffffffffffffffffffffffff8716906370a08231906129b8903090600401614aee565b60206040518083038186803b1580156129d057600080fd5b505afa1580156129e4573d6000803e3d6000fd5b505050506040513d601f19601f82011682018060405250612a089190810190614a18565b9050878781518110612a1657fe5b60200260200101518111612a56576040517f08c379a00000000000000000000000000000000000000000000000000000000081526004016104b09061533d565b80888881518110612a6357fe5b602002602001018181525050505b5050508060010190506122fc565b5050600101612181565b506040517fa9059cbb00000000000000000000000000000000000000000000000000000000815273ffffffffffffffffffffffffffffffffffffffff87169063a9059cbb90612ade9033908990600401614b40565b602060405180830381600087803b158015612af857600080fd5b505af1158015612b0c573d6000803e3d6000fd5b505050506040513d601f19601f82011682018060405250612b3091908101906149e0565b5060005b83811015612c9a576000858583818110612b4a57fe5b6020028201905080357fffffffffffffffffffffffffffffffffffffffffffffffffffffffffffffffc136849003018112612b8457600080fd5b612b949201602081019150614730565b905073ffffffffffffffffffffffffffffffffffffffff811615612c91576064838381518110612bc057fe5b602002602001015181612bcf57fe5b048173ffffffffffffffffffffffffffffffffffffffff166370a08231306040518263ffffffff1660e01b8152600401612c099190614aee565b60206040518083038186803b158015612c2157600080fd5b505afa158015612c35573d6000803e3d6000fd5b505050506040513d601f19601f82011682018060405250612c599190810190614a18565b1115612c91576040517f08c379a00000000000000000000000000000000000000000000000000000000081526004016104b090615094565b50600101612b34565b508573ffffffffffffffffffffffffffffffffffffffff163373ffffffffffffffffffffffffffffffffffffffff167f9b1bfa7fa9ee420a16e124f794c35ac9f90472acc99140eb2f6447c714cad8eb876040516118379190614bcb565b333014612dea5760408051808201909152600b5477ffffffffffffffffffffffffffffffffffffffffffffffff811682527801000000000000000000000000000000000000000000000000900467ffffffffffffffff16602082015269021e19e0c9bab240000090612d6990613d89565b1115612da1576040517f08c379a00000000000000000000000000000000000000000000000000000000081526004016104b09061542e565b3360009081526005602052604090205460ff16612dea576040517f08c379a00000000000000000000000000000000000000000000000000000000081526004016104b09061505d565b60005b81811015610bca576000838383818110612e0357fe5b9050602002013560601c90506000848484818110612e1d57fe5b73ffffffffffffffffffffffffffffffffffffffff8516600090815260076020908152604090912054910292909201359250506bffffffffffffffffffffffff8216811415612e98576040517f08c379a00000000000000000000000000000000000000000000000000000000081526004016104b0906151f3565b6002826bffffffffffffffffffffffff161415612ebd57600480546001019055612eef565b6002811415612eef57600480547fffffffffffffffffffffffffffffffffffffffffffffffffffffffffffffffff0190555b73ffffffffffffffffffffffffffffffffffffffff8316600081815260076020526040908190206bffffffffffffffffffffffff85169055517f1464b325679b3d6e47425f6f128fa127a13e437cd0614dc73559bf67ab24f08d90612f5590859061553d565b60405180910390a2505050806001019050612ded565b73ffffffffffffffffffffffffffffffffffffffff81166000908152600a6020908152604080832081518083019092525477ffffffffffffffffffffffffffffffffffffffffffffffff811682527801000000000000000000000000000000000000000000000000900467ffffffffffffffff1691810191909152819081908190612ff590613d89565b73ffffffffffffffffffffffffffffffffffffffff86166000908152600a602090815260409182902082518084019093525477ffffffffffffffffffffffffffffffffffffffffffffffff811683527801000000000000000000000000000000000000000000000000900467ffffffffffffffff169082015261307790614308565b60408051808201909152600b5477ffffffffffffffffffffffffffffffffffffffffffffffff811682527801000000000000000000000000000000000000000000000000900467ffffffffffffffff1660208201526130d590613d89565b60408051808201909152600b5477ffffffffffffffffffffffffffffffffffffffffffffffff811682527801000000000000000000000000000000000000000000000000900467ffffffffffffffff16602082015261313390614308565b93509350935093509193509193565b600061314c6145d0565b50336000908152600a6020908152604080832081518083019092525477ffffffffffffffffffffffffffffffffffffffffffffffff811682527801000000000000000000000000000000000000000000000000900467ffffffffffffffff1691810191909152906131bc826143a8565b60408051808201909152600b5477ffffffffffffffffffffffffffffffffffffffffffffffff811682527801000000000000000000000000000000000000000000000000900467ffffffffffffffff166020820152909150600090613220906143a8565b9050613232838363ffffffff61442c16565b336000908152600a602090815260409182902083518154948301517fffffffffffffffff00000000000000000000000000000000000000000000000090951677ffffffffffffffffffffffffffffffffffffffffffffffff918216178116780100000000000000000000000000000000000000000000000067ffffffffffffffff9687168102919091179092558351808501909452600b54908116845204909216918101919091526132e4908361442c565b8051600b805460209093015167ffffffffffffffff1678010000000000000000000000000000000000000000000000000277ffffffffffffffffffffffffffffffffffffffffffffffff9283167fffffffffffffffff000000000000000000000000000000000000000000000000909416939093179091169190911790556002546040517f70a0823100000000000000000000000000000000000000000000000000000000815260009173ffffffffffffffffffffffffffffffffffffffff16906370a08231906133b9903090600401614aee565b60206040518083038186803b1580156133d157600080fd5b505afa1580156133e5573d6000803e3d6000fd5b505050506040513d601f19601f820116820180604052506134099190810190614a18565b90508561341557600195505b82811161343c5761343786848161342857fe5b8391900463ffffffff61453a16565b613457565b61345786828161344857fe5b8591900463ffffffff61453a16565b905060006134758784848161346857fe5b049063ffffffff61453a16565b905060006134c98885670de0b6b3a76400006134ba600260149054906101000a900467ffffffffffffffff1667ffffffffffffffff168861453a90919063ffffffff16565b816134c157fe5b048161346857fe5b90506000811180156134f2575060035473ffffffffffffffffffffffffffffffffffffffff1615155b156135a7576002546003546040517fa9059cbb00000000000000000000000000000000000000000000000000000000815273ffffffffffffffffffffffffffffffffffffffff9283169263a9059cbb92613553929116908590600401614b40565b602060405180830381600087803b15801561356d57600080fd5b505af1158015613581573d6000803e3d6000fd5b505050506040513d601f19601f820116820180604052506135a591908101906149e0565b505b6135b7828263ffffffff61458b16565b6002546040517fa9059cbb00000000000000000000000000000000000000000000000000000000815291985073ffffffffffffffffffffffffffffffffffffffff169063a9059cbb906136109033908b90600401614b40565b602060405180830381600087803b15801561362a57600080fd5b505af115801561363e573d6000803e3d6000fd5b505050506040513d601f19601f8201168201806040525061366291908101906149e0565b503373ffffffffffffffffffffffffffffffffffffffff167f71bab65ced2e5750775a0613be067df48ef06cf92a496ebf7663ae066092495488836040516136ab929190615514565b60405180910390a2505050505050919050565b3360009081526005602052604090205460ff16613707576040517f08c379a00000000000000000000000000000000000000000000000000000000081526004016104b09061505d565b6202a300811015613744576040517f08c379a00000000000000000000000000000000000000000000000000000000081526004016104b090614f5b565b62278d00811115613781576040517f08c379a00000000000000000000000000000000000000000000000000000000081526004016104b090615139565b600081815560405182917f948b1f6a42ee138b7e34058ba85a37f716d55ff25ff05a763f15bed6a04c8d2c91a250565b60005460025460035460045473ffffffffffffffffffffffffffffffffffffffff8084169367ffffffffffffffff7401000000000000000000000000000000000000000090910416921691929394565b3360009081526006602052604090205460ff1661384a576040517f08c379a00000000000000000000000000000000000000000000000000000000081526004016104b090615261565b6004548114613885576040517f08c379a00000000000000000000000000000000000000000000000000000000081526004016104b0906153f7565b73ffffffffffffffffffffffffffffffffffffffff85166000908152600860205260409020546138b4906145c8565b6138ea576040517f08c379a00000000000000000000000000000000000000000000000000000000081526004016104b09061522a565b6002546040517f70a0823100000000000000000000000000000000000000000000000000000000815260009173ffffffffffffffffffffffffffffffffffffffff16906370a0823190613941903090600401614aee565b60206040518083038186803b15801561395957600080fd5b505afa15801561396d573d6000803e3d6000fd5b505050506040513d601f19601f820116820180604052506139919190810190614a18565b905060008673ffffffffffffffffffffffffffffffffffffffff1686866040516139bc929190614ac2565b6000604051808303816000865af19150503d80600081146139f9576040519150601f19603f3d011682016040523d82523d6000602084013e6139fe565b606091505b5050905080613a1757613a1081613d72565b505061072e565b6002546040517f70a08231000000000000000000000000000000000000000000000000000000008152839173ffffffffffffffffffffffffffffffffffffffff16906370a0823190613a6d903090600401614aee565b60206040518083038186803b158015613a8557600080fd5b505afa158015613a99573d6000803e3d6000fd5b505050506040513d601f19601f82011682018060405250613abd9190810190614a18565b11613af4576040517f08c379a00000000000000000000000000000000000000000000000000000000081526004016104b090614cd6565b6000805b84811015613c7d576000868683818110613b0e57fe5b9050602002016020613b239190810190614730565b905060005b82811015613bbe57878782818110613b3c57fe5b9050602002016020613b519190810190614730565b73ffffffffffffffffffffffffffffffffffffffff168273ffffffffffffffffffffffffffffffffffffffff161415613bb6576040517f08c379a00000000000000000000000000000000000000000000000000000000081526004016104b090614fef565b600101613b28565b506040517f70a08231000000000000000000000000000000000000000000000000000000008152613c729073ffffffffffffffffffffffffffffffffffffffff8316906370a0823190613c15903090600401614aee565b60206040518083038186803b158015613c2d57600080fd5b505afa158015613c41573d6000803e3d6000fd5b505050506040513d601f19601f82011682018060405250613c659190810190614a18565b849063ffffffff613d2f16565b925050600101613af8565b5060408051808201909152600b5477ffffffffffffffffffffffffffffffffffffffffffffffff811682527801000000000000000000000000000000000000000000000000900467ffffffffffffffff1660208201528190613cde90613d89565b111561072a576040517f08c379a00000000000000000000000000000000000000000000000000000000081526004016104b090615465565b60016020526000908152604090205460ff1681565b4290565b80820182811015613d6c576040517f08c379a00000000000000000000000000000000000000000000000000000000081526004016104b090614eed565b92915050565b3d806000803e818015613d8457816000f35b816000fd5b600067ffffffffffffffff826020015167ffffffffffffffff1614613daf578151613db2565b60005b77ffffffffffffffffffffffffffffffffffffffffffffffff1690505b919050565b73ffffffffffffffffffffffffffffffffffffffff166000908152600760205260409020546002111590565b613e086145d0565b60008067ffffffffffffffff856020015167ffffffffffffffff161415613e7357839150613e6c62015180610e7886886000015177ffffffffffffffffffffffffffffffffffffffffffffffff1681613e5d57fe5b4291900463ffffffff61458b16565b9050613fb3565b8451613e9f9077ffffffffffffffffffffffffffffffffffffffffffffffff168563ffffffff613d2f16565b9150846020015167ffffffffffffffff164210613f1d576000613f07866000015177ffffffffffffffffffffffffffffffffffffffffffffffff16613efb886020015167ffffffffffffffff164261458b90919063ffffffff16565b9063ffffffff61453a16565b9050613f15838281613e5d57fe5b915050613f83565b6000613f62866000015177ffffffffffffffffffffffffffffffffffffffffffffffff16613efb42896020015167ffffffffffffffff1661458b90919063ffffffff16565b9050613f7f838281613f7057fe5b4291900463ffffffff613d2f16565b9150505b613fb082613f9a620151808763ffffffff61453a16565b81613fa157fe5b8391900463ffffffff613d2f16565b90505b77ffffffffffffffffffffffffffffffffffffffffffffffff821115614005576040517f08c379a00000000000000000000000000000000000000000000000000000000081526004016104b090614bd4565b67ffffffffffffffff811115614047576040517f08c379a00000000000000000000000000000000000000000000000000000000081526004016104b090614eb8565b6040805180820190915277ffffffffffffffffffffffffffffffffffffffffffffffff909216825267ffffffffffffffff166020820152905092915050565b600216151590565b6020015190565b600416151590565b73ffffffffffffffffffffffffffffffffffffffff166000908152600760205260409020546001111590565b6140d16145d0565b67ffffffffffffffff836020015167ffffffffffffffff1610614120576040517f08c379a00000000000000000000000000000000000000000000000000000000081526004016104b090614c31565b826020015167ffffffffffffffff16421015614168576040517f08c379a00000000000000000000000000000000000000000000000000000000081526004016104b090615102565b60006141ad846000015177ffffffffffffffffffffffffffffffffffffffffffffffff16613efb866020015167ffffffffffffffff164261458b90919063ffffffff16565b84519091506000906141df9077ffffffffffffffffffffffffffffffffffffffffffffffff168563ffffffff61458b16565b9050806142765777ffffffffffffffffffffffffffffffffffffffffffffffff821115614238576040517f08c379a00000000000000000000000000000000000000000000000000000000081526004016104b090614dfe565b506040805180820190915277ffffffffffffffffffffffffffffffffffffffffffffffff909116815267ffffffffffffffff60208201529050613d6c565b6000614284828481613e5d57fe5b905067ffffffffffffffff8111156142c8576040517f08c379a00000000000000000000000000000000000000000000000000000000081526004016104b090614eb8565b6040805180820190915277ffffffffffffffffffffffffffffffffffffffffffffffff909216825267ffffffffffffffff16602082015291505092915050565b600067ffffffffffffffff826020015167ffffffffffffffff16141561434a5750805177ffffffffffffffffffffffffffffffffffffffffffffffff16613dcf565b816020015167ffffffffffffffff16421161436757506000613dcf565b81516020830151613d6c9177ffffffffffffffffffffffffffffffffffffffffffffffff1690613efb90429067ffffffffffffffff1663ffffffff61458b16565b600067ffffffffffffffff826020015167ffffffffffffffff161461440d57815160208301516144089177ffffffffffffffffffffffffffffffffffffffffffffffff1690613efb90429067ffffffffffffffff1663ffffffff61458b16565b613d6c565b505177ffffffffffffffffffffffffffffffffffffffffffffffff1690565b6144346145d0565b67ffffffffffffffff836020015167ffffffffffffffff16141561449f57825161447e9077ffffffffffffffffffffffffffffffffffffffffffffffff168363ffffffff61458b16565b77ffffffffffffffffffffffffffffffffffffffffffffffff168352614533565b60006144e4846000015177ffffffffffffffffffffffffffffffffffffffffffffffff16613efb866020015167ffffffffffffffff164261458b90919063ffffffff16565b84519091506000906145219077ffffffffffffffffffffffffffffffffffffffffffffffff1661451a848763ffffffff61458b16565b81613e5d57fe5b67ffffffffffffffff16602086015250505b5090919050565b60008115806145555750508082028282828161455257fe5b04145b613d6c576040517f08c379a00000000000000000000000000000000000000000000000000000000081526004016104b090614d0d565b80820382811115613d6c576040517f08c379a00000000000000000000000000000000000000000000000000000000081526004016104b090614c68565b600116151590565b604080518082019091526000808252602082015290565b803573ffffffffffffffffffffffffffffffffffffffff81168114613d6c57600080fd5b60008083601f84011261461c578182fd5b50813567ffffffffffffffff811115614633578182fd5b602083019150836020808302850101111561464d57600080fd5b9250929050565b60008083601f840112614665578182fd5b50813567ffffffffffffffff81111561467c578182fd5b60208301915083602082850101111561464d57600080fd5b600082601f8301126146a4578081fd5b813567ffffffffffffffff808211156146bb578283fd5b60405160207fffffffffffffffffffffffffffffffffffffffffffffffffffffffffffffffe0601f85011682010181811083821117156146f9578485fd5b60405282815292508284830160200186101561471457600080fd5b8260208601602083013760006020848301015250505092915050565b600060208284031215614741578081fd5b61474b83836145e7565b9392505050565b60008060008060608587031215614767578283fd5b843561477281615582565b9350602085013561478281615582565b9250604085013567ffffffffffffffff81111561479d578283fd5b6147a987828801614654565b95989497509550505050565b6000806000806000606086880312156147cc578081fd5b6147d687876145e7565b9450602086013567ffffffffffffffff808211156147f2578283fd5b6147fe89838a01614654565b90965094506040880135915080821115614816578283fd5b506148238882890161460b565b969995985093965092949392505050565b60008060408385031215614846578182fd5b61485084846145e7565b946020939093013593505050565b60008060008060608587031215614873578384fd5b61487d86866145e7565b935060208501359250604085013567ffffffffffffffff81111561489f578283fd5b6147a98782880161460b565b600080600080600060a086880312156148c2578081fd5b6148cc87876145e7565b945060208601359350604086013567ffffffffffffffff808211156148ef578283fd5b6148fb89838a01614694565b94506060880135915080821115614910578283fd5b5061491d88828901614694565b95989497509295608001359392505050565b600080600080600060608688031215614946578081fd5b853567ffffffffffffffff8082111561495d578283fd5b61496989838a0161460b565b90975095506020880135915080821115614981578283fd5b5061498e8882890161460b565b96999598509660400135949350505050565b600080602083850312156149b2578182fd5b823567ffffffffffffffff8111156149c8578283fd5b6149d48582860161460b565b90969095509350505050565b6000602082840312156149f1578081fd5b8151801515811461474b578182fd5b600060208284031215614a11578081fd5b5035919050565b600060208284031215614a29578081fd5b5051919050565b60008151808452614a48816020860160208601615556565b601f017fffffffffffffffffffffffffffffffffffffffffffffffffffffffffffffffe0169290920160200192915050565b60007fffffffff00000000000000000000000000000000000000000000000000000000841682528251614ab4816004850160208701615556565b919091016004019392505050565b6000828483379101908152919050565b60008251614ae4818460208701615556565b9190910192915050565b73ffffffffffffffffffffffffffffffffffffffff91909116815260200190565b73ffffffffffffffffffffffffffffffffffffffff9384168152919092166020820152604081019190915260600190565b73ffffffffffffffffffffffffffffffffffffffff929092168252602082015260400190565b600073ffffffffffffffffffffffffffffffffffffffff8716825285602083015260a06040830152614b9b60a0830186614a30565b8281036060840152614bad8186614a30565b9150508260808301529695505050505050565b901515815260200190565b90815260200190565b60208082526021908201527f5374616b654c69623a206164646974696f6e207374616b65206f766572666c6f60408201527f7700000000000000000000000000000000000000000000000000000000000000606082015260800190565b60208082526010908201527f5374616b654c69623a20215374616b6500000000000000000000000000000000604082015260600190565b60208082526015908201527f64732d6d6174682d7375622d756e646572666c6f770000000000000000000000604082015260600190565b60208082526017908201527f617574686f72697a6174696f6e20756e6368616e676564000000000000000000604082015260600190565b6020808252601c908201527f6561726e20746f6b656e2062616c616e636520756e6368616e67656400000000604082015260600190565b60208082526014908201527f64732d6d6174682d6d756c2d6f766572666c6f77000000000000000000000000604082015260600190565b60208082526033908201527f54696d656c6f636b3a3a657865637574655472616e73616374696f6e3a20547260408201527f616e73616374696f6e206973207374616c652e00000000000000000000000000606082015260800190565b6020808252602c908201527f726f75746572206e6f7420617574686f72697a6564206173206f776e6572736860408201527f6970207072657365727665640000000000000000000000000000000000000000606082015260800190565b6020808252601d908201527f5374616b654c69623a20756e636c61696d6564206f766572666c6f776e000000604082015260600190565b60208082526045908201527f54696d656c6f636b3a3a657865637574655472616e73616374696f6e3a20547260408201527f616e73616374696f6e206861736e2774207375727061737365642074696d652060608201527f6c6f636b2e000000000000000000000000000000000000000000000000000000608082015260a00190565b6020808252818101527f5374616b654c69623a206164646974696f6e2074696d65206f766572666c6f77604082015260600190565b60208082526014908201527f64732d6d6174682d6164642d6f766572666c6f77000000000000000000000000604082015260600190565b6020808252601c908201527f756e617574686f72697a656420726563656976696e6720746f6b656e00000000604082015260600190565b60208082526034908201527f54696d656c6f636b3a3a73657444656c61793a2044656c6179206d757374206560408201527f7863656564206d696e696d756d2064656c61792e000000000000000000000000606082015260800190565b60208082526008908201527f6e69636520747279000000000000000000000000000000000000000000000000604082015260600190565b60208082526010908201527f6475706c696361746520746f6b656e7300000000000000000000000000000000604082015260600190565b60208082526014908201527f7375627369647952617465206f766572666c6f77000000000000000000000000604082015260600190565b60208082526006908201527f2161646d696e0000000000000000000000000000000000000000000000000000604082015260600190565b60208082526017908201527f746f6f206d616e7920746f6b656e206c6566746f766572000000000000000000604082015260600190565b6020808252600e908201527f6e6f2073656c662072656d6f7665000000000000000000000000000000000000604082015260600190565b60208082526010908201527f5374616b654c69623a206c6f636b656400000000000000000000000000000000604082015260600190565b60208082526038908201527f54696d656c6f636b3a3a73657444656c61793a2044656c6179206d757374206e60408201527f6f7420657863656564206d6178696d756d2064656c61792e0000000000000000606082015260800190565b6020808252603d908201527f54696d656c6f636b3a3a657865637574655472616e73616374696f6e3a20547260408201527f616e73616374696f6e206861736e2774206265656e207175657565642e000000606082015260800190565b6020808252601d908201527f617574686f72697a6174696f6e206c6576656c20756e6368616e676564000000604082015260600190565b60208082526013908201527f756e617574686f72697a656420726f7574657200000000000000000000000000604082015260600190565b60208082526013908201527f756e617574686f72697a6564206661726d657200000000000000000000000000604082015260600190565b6020808252601c908201527f617574686f72697a6174696f6e206d61736b20756e6368616e67656400000000604082015260600190565b6020808252601c908201527f756e617574686f72697a656420726f757465722e66756e6374696f6e00000000604082015260600190565b60208082526012908201527f756e617574686f72697a656420746f6b656e0000000000000000000000000000604082015260600190565b60208082526017908201527f746f6b656e2062616c616e636520756e6368616e676564000000000000000000604082015260600190565b60208082526049908201527f54696d656c6f636b3a3a71756575655472616e73616374696f6e3a204573746960408201527f6d6174656420657865637574696f6e20626c6f636b206d75737420736174697360608201527f66792064656c61792e0000000000000000000000000000000000000000000000608082015260a00190565b60208082526016908201527f696e636f727265637420746f6b656e7320636f756e7400000000000000000000604082015260600190565b60208082526009908201527f2174696d656c6f636b0000000000000000000000000000000000000000000000604082015260600190565b6020808252600f908201527f6f7665722070726f636365737365640000000000000000000000000000000000604082015260600190565b94855273ffffffffffffffffffffffffffffffffffffffff938416602086015260408501929092529091166060830152608082015260a00190565b6000858252608060208301526154f06080830186614a30565b82810360408401526155028186614a30565b91505082606083015295945050505050565b918252602082015260400190565b93845260208401929092526040830152606082015260800190565b6bffffffffffffffffffffffff91909116815260200190565b60005b83811015615571578181015183820152602001615559565b838111156109895750506000910152565b73ffffffffffffffffffffffffffffffffffffffff811681146155a457600080fd5b5056fea264697066735822122067937ad018fcaa2127f767efb2fee69a7c5020372ea8ea7d56aa6f6c6426b09364736f6c63430006020033",
    "source": "// SPDX-License-Identifier: MIT\npragma solidity >=0.6.2;\npragma experimental ABIEncoderV2;\n\n/** @title SFarm */\n/** @author Zergity */\n\n// solium-disable security/no-inline-assembly\n\nimport \"./Timelock.sol\";\nimport './interfaces/IUniswapV2Router01.sol';\nimport './interfaces/IERC20.sol';\n\ncontract SFarm is Timelock {\n    using SafeMath for uint;\n    using SafeMath for uint192;\n    using SafeMath for uint64;\n\n    // accept 1/LEFT_OVER_RATE token left over\n    uint constant LEFT_OVER_RATE = 100;\n\n    // admin operations require no locktime when the total stake in the farm not more than this value\n    uint constant LOCK_FREE_STAKE = 10000 * 10**18;\n\n    constructor(\n        address _earnToken,\n        address _admin,\n        uint _subsidyRate,\n        uint _delay\n    ) Timelock(_delay) public {\n        require(_subsidyRate < SUBSIDY_UNIT, \"subsidyRate overflow\");\n        subsidyRate = uint64(_subsidyRate);\n        if (_admin == address(0x0)) {\n            _admin = msg.sender;\n        }\n        subsidyRecipient = _admin;\n        authorizedAdmins[_admin] = true;\n        earnToken = _earnToken;\n        emit AuthorizeAdmin(_admin, true);\n    }\n\n    modifier onlyStakeToken(address token) {\n        require(_isTokenStakable(token), \"unauthorized token\"); _;\n    }\n\n    modifier onlyFarmer {\n        require(authorizedFarmers[msg.sender], \"unauthorized farmer\"); _;\n    }\n\n    modifier onlyAdmin {\n        if (msg.sender != address(this)) {\n            require(total.stake() <= LOCK_FREE_STAKE, \"!timelock\");\n            require(authorizedAdmins[msg.sender], \"!admin\");\n        }\n        _;\n    }\n\n    function deposit(address token, uint amount) external onlyStakeToken(token) {\n        IERC20(token).transferFrom(msg.sender, address(this), amount);\n        total = total.deposit(amount);\n        stakes[msg.sender] = stakes[msg.sender].deposit(amount);\n        emit Deposit(msg.sender, token, amount);\n    }\n\n    struct paramRL {\n        address receivingToken;\n        paramExec[] execs;\n    }\n\n    struct paramExec {\n        address router;\n        bytes   input;\n    }\n\n    function withdraw(\n        address     token,\n        uint        amount,\n        paramRL[]   calldata rls\n    ) external onlyStakeToken(token) {\n        stakes[msg.sender] = stakes[msg.sender].withdraw(amount);\n        total = total.withdraw(amount);\n\n        uint[] memory lastBalance = new uint[](rls.length);\n\n        for (uint i = 0; i < rls.length; ++i) {\n            address receivingToken = rls[i].receivingToken;\n\n            if (receivingToken != address(0x0)) {\n                require(_isTokenReceivable(receivingToken), \"unauthorized receiving token\");\n                lastBalance[i] = IERC20(receivingToken).balanceOf(address(this));\n            }\n\n            for (uint j = 0; j < rls[i].execs.length; ++j) {\n                address router = rls[i].execs[j].router;\n\n                uint mask = authorizedWithdrawalFunc[router][_funcSign(rls[i].execs[j].input)];\n                require(_isRouterForFarmToken(mask), \"unauthorized router.function\");\n                if (receivingToken == address(0x0)) {\n                    require(_isRouterPreserveOwnership(mask), \"router not authorized as ownership preserved\");\n                }\n\n                (bool success,) = router.call(rls[i].execs[j].input);\n                if (!success) {\n                    return _forwardCallResult(success);\n                }\n\n                if (receivingToken != address(0x0)) {\n                    uint newBalance = IERC20(receivingToken).balanceOf(address(this));\n                    require(newBalance > lastBalance[i], \"token balance unchanged\");\n                    lastBalance[i] = newBalance;\n                }\n            }\n        }\n\n        IERC20(token).transfer(msg.sender, amount);\n\n        // accept 1% token left over\n        for (uint i = 0; i < rls.length; ++i) {\n            address receivingToken = rls[i].receivingToken;\n            if (receivingToken != address(0x0)) {\n                require(IERC20(receivingToken).balanceOf(address(this)) <= lastBalance[i] / LEFT_OVER_RATE, \"too many token leftover\");\n            }\n        }\n\n        emit Withdraw(msg.sender, token, amount);\n    }\n\n    // harvest ZD\n    function harvest(uint scale) external returns (uint earn) {\n        Stake memory stake = stakes[msg.sender];\n        uint value = stake.value();\n        uint totalValue = total.value();\n\n        // update the sender and total stake\n        stakes[msg.sender] = stake.harvest(value);\n        total = total.harvest(value);\n\n        uint totalEarn = IERC20(earnToken).balanceOf(address(this));\n        if (scale == 0) {\n            scale = 1;\n        }\n        totalEarn = totalEarn > value ? value.mul(totalEarn/scale) : totalEarn.mul(value/scale);\n        uint bothEarn = (totalEarn/totalValue).mul(scale);    // first, assign the total earned\n\n        uint subsidyEarn = (totalEarn.mul(subsidyRate)/SUBSIDY_UNIT/totalValue).mul(scale);\n        if (subsidyEarn > 0 && subsidyRecipient != address(0x0)) {\n            IERC20(earnToken).transfer(subsidyRecipient, subsidyEarn);\n        }\n\n        earn = bothEarn.sub(subsidyEarn);\n        IERC20(earnToken).transfer(msg.sender, earn);\n\n        emit Harvest(msg.sender, earn, subsidyEarn);\n    }\n\n    function farmerExec(address receivingToken, address router, bytes calldata input) external onlyFarmer {\n        uint mask = authorizedRouters[router];\n        require(_isRouterForFarmToken(mask), \"unauthorized router\");\n\n        emit FarmerExec(receivingToken, router, _funcSign(input));\n\n        // skip the balance check for router that always use msg.sender instead of `recipient` field (unlike Uniswap)\n        if (receivingToken == address(0x0)) {\n            require(_isRouterPreserveOwnership(mask), \"router not authorized as ownership preserved\");\n            (bool success,) = router.call(input);\n            return _forwardCallResult(success);\n        }\n\n        require(_isTokenReceivable(receivingToken), \"unauthorized receiving token\");\n        uint balanceBefore = IERC20(receivingToken).balanceOf(address(this));\n\n        (bool success,) = router.call(input);\n        if (!success) {\n            return _forwardCallResult(success);\n        }\n\n        require(IERC20(receivingToken).balanceOf(address(this)) > balanceBefore, \"token balance unchanged\");\n    }\n\n    // this function allow farmer to convert token fee earn from LP in the authorizedTokens\n    function farmerProcessOutstandingToken(\n        address             router,           // LP router to swap token to earnToken\n        bytes     calldata  input,\n        address[] calldata  tokens\n    ) external onlyFarmer {\n        require(tokens.length == stakeTokensCount, \"incorrect tokens count\");\n        require(_isRouterForEarnToken(authorizedRouters[router]), \"unauthorized router\");\n\n        uint lastBalance = IERC20(earnToken).balanceOf(address(this));\n\n        (bool success,) = router.call(input);\n        if (!success) {\n            return _forwardCallResult(success);\n        }\n\n        require(IERC20(earnToken).balanceOf(address(this)) > lastBalance, \"earn token balance unchanged\");\n\n        // verify the remaining stake is sufficient\n        uint totalBalance;\n        for (uint i; i < tokens.length; ++i) {\n            address token = tokens[i];\n            for (uint j; j < i; ++j) {\n                require(token != tokens[j], \"duplicate tokens\");\n            }\n            totalBalance = totalBalance.add(IERC20(token).balanceOf(address(this)));\n        }\n        require(total.stake() <= totalBalance, \"over proccessed\");\n    }\n\n    function setSubsidy(address recipient, uint rate) external onlyAdmin {\n        require(rate < SUBSIDY_UNIT, \"subsidyRate overflow\");\n        subsidyRate = uint64(rate);\n        if (recipient != address(0x0)) {\n            subsidyRecipient = recipient;\n        }\n    }\n\n    function approve(address[] calldata tokens, address[] calldata routers, uint amount) external onlyAdmin {\n        for (uint j = 0; j < routers.length; ++j) {\n            address router = routers[j];\n            require(authorizedRouters[router] > 0, \"unauthorized router\");\n            for (uint i = 0; i < tokens.length; ++i) {\n                IERC20(tokens[i]).approve(router, amount);\n            }\n        }\n    }\n\n    function authorizeAdmins(bytes32[] calldata changes) external onlyAdmin {\n        for (uint i; i < changes.length; ++i) {\n            address admin = address(bytes20(changes[i]));\n            require(admin != msg.sender, \"no self remove\");\n            bool  enable = uint96(uint(changes[i])) > 0;\n            require(authorizedAdmins[admin] != enable, \"authorization unchanged\");\n            authorizedAdmins[admin] = enable;\n            emit AuthorizeAdmin(admin, enable);\n        }\n    }\n\n    function authorizeFarmers(bytes32[] calldata changes) external onlyAdmin {\n        for (uint i; i < changes.length; ++i) {\n            address farmer = address(bytes20(changes[i]));\n            bool  enable = uint96(uint(changes[i])) > 0;\n            require(authorizedFarmers[farmer] != enable, \"authorization unchanged\");\n            authorizedFarmers[farmer] = enable;\n            emit AuthorizeFarmer(farmer, enable);\n        }\n    }\n\n    function authorizeRouters(bytes32[] calldata changes) external onlyAdmin {\n        uint ROUTER_MASK = ROUTER_EARN_TOKEN + ROUTER_FARM_TOKEN + ROUTER_OWNERSHIP_PRESERVED;\n        for (uint i; i < changes.length; ++i) {\n            address router = address(bytes20(changes[i]));\n            require(router != address(this), \"nice try\");\n            uint mask = uint(changes[i]) & ROUTER_MASK;\n            require(authorizedRouters[router] != mask, \"authorization mask unchanged\");\n            authorizedRouters[router] = mask;\n            emit AuthorizeRouter(router, mask);\n        }\n    }\n\n    function authorizeTokens(bytes32[] calldata changes) external onlyAdmin {\n        for (uint i; i < changes.length; ++i) {\n            address token = address(bytes20(changes[i]));\n            uint96  level = uint96(uint(changes[i]));\n            uint oldLevel = authorizedTokens[token];\n            require(oldLevel != level, \"authorization level unchanged\");\n            if (level == TOKEN_LEVEL_STAKE) {\n                stakeTokensCount++;\n            } else if (oldLevel == TOKEN_LEVEL_STAKE) {\n                stakeTokensCount--;\n            }\n            authorizedTokens[token] = level;\n            emit AuthorizeToken(token, level);\n        }\n    }\n\n    // 20 bytes router address + 4 bytes func signature + 8 bytes bool\n    function authorizeWithdrawalFuncs(bytes32[] calldata changes) external onlyAdmin {\n        uint ROUTER_MASK = ROUTER_FARM_TOKEN + ROUTER_OWNERSHIP_PRESERVED;\n        for (uint i; i < changes.length; ++i) {\n            address router = address(bytes20(changes[i]));\n            require(router != address(this), \"nice try\");\n            bytes4 func = bytes4(bytes12(uint96(uint(changes[i]))));\n            uint mask = uint(changes[i]) & ROUTER_MASK;\n            require(authorizedWithdrawalFunc[router][func] != mask, \"authorization mask unchanged\");\n            authorizedWithdrawalFunc[router][func] = mask;\n            emit AuthorizeWithdrawalFunc(router, func, mask);\n        }\n    }\n\n    function query(address a) external view returns (\n        uint stake,\n        uint value,\n        uint totalStake,\n        uint totalValue\n    ) {\n        return (\n            stakes[a].stake(),\n            stakes[a].safeValue(),\n            total.stake(),\n            total.safeValue()\n        );\n    }\n\n    function queryConfig() external view returns (\n        uint delay_,\n        address earnToken_,\n        uint subsidyRate_,\n        address subsidyRecipient_,\n        uint stakeTokensCount_\n    ) {\n        return (\n            delay,\n            earnToken,\n            uint(subsidyRate),\n            subsidyRecipient,\n            stakeTokensCount\n        );\n    }\n\n    function _funcSign(bytes memory input) internal pure returns (bytes4 output) {\n        assembly {\n            output := mload(add(input, 32))\n        }\n    }\n\n    function _isRouterForEarnToken(uint mask) internal pure returns (bool) {\n        return mask & ROUTER_EARN_TOKEN != 0;\n    }\n\n    function _isRouterForFarmToken(uint mask) internal pure returns (bool) {\n        return mask & ROUTER_FARM_TOKEN != 0;\n    }\n\n    function _isRouterPreserveOwnership(uint mask) internal pure returns (bool) {\n        return mask & ROUTER_OWNERSHIP_PRESERVED != 0;\n    }\n\n    function _isTokenReceivable(address token) internal view returns (bool) {\n        return authorizedTokens[token] >= TOKEN_LEVEL_RECEIVABLE;\n    }\n\n    function _isTokenStakable(address token) internal view returns (bool) {\n        return authorizedTokens[token] >= TOKEN_LEVEL_STAKE;\n    }\n}\n",
    "sourcePath": "/home/zergity/src/github.com/ezDeFi/sfarm-contracts/contracts/SFarm.sol",
    "compiler": {
        "name": "solc",
        "version": "0.6.2+commit.bacdbe57.Emscripten.clang"
    },
    "schemaVersion": "3.2.4",
    "updatedAt": "2021-07-08T04:50:24.361Z",
    "networkType": "ethereum",
    "devdoc": {
        "methods": {}
    },
    "userdoc": {
        "methods": {}
    }
}