{
  "contractName": "Aggregator",
  "abi": [
    {
      "inputs": [
        {
          "internalType": "address",
          "name": "prev",
          "type": "address"
        }
      ],
      "stateMutability": "nonpayable",
      "type": "constructor"
    },
    {
      "inputs": [],
      "name": "destruct",
      "outputs": [],
      "stateMutability": "nonpayable",
      "type": "function"
    },
    {
      "inputs": [
        {
          "internalType": "address",
          "name": "tokenIn",
          "type": "address"
        },
        {
          "internalType": "uint256",
          "name": "amountIn",
          "type": "uint256"
        },
        {
          "components": [
            {
              "internalType": "address",
              "name": "router",
              "type": "address"
            },
            {
              "internalType": "uint256",
              "name": "amount",
              "type": "uint256"
            },
            {
              "internalType": "address[]",
              "name": "path",
              "type": "address[]"
            }
          ],
          "internalType": "struct Aggregator.Step[]",
          "name": "steps",
          "type": "tuple[]"
        },
        {
          "internalType": "address",
          "name": "tokenOut",
          "type": "address"
        },
        {
          "internalType": "uint256",
          "name": "amountOutMin",
          "type": "uint256"
        },
        {
          "internalType": "uint256",
          "name": "deadline",
          "type": "uint256"
        },
        {
          "internalType": "uint256",
          "name": "flags",
          "type": "uint256"
        }
      ],
      "name": "swap",
      "outputs": [
        {
          "internalType": "uint256[]",
          "name": "amountOuts",
          "type": "uint256[]"
        }
      ],
      "stateMutability": "payable",
      "type": "function",
      "payable": true
    }
  ],
  "bytecode": "0x6080604052600080546001600160a01b03191673c06f7cf8c9e8a8d39b0df5a105d66127912bc98017905534801561003657600080fd5b506040516117d13803806117d1833981016040819052610055916100be565b6001600160a01b038116156100b857806001600160a01b0316632b68b9c66040518163ffffffff1660e01b8152600401600060405180830381600087803b15801561009f57600080fd5b505af11580156100b3573d6000803e3d6000fd5b505050505b506100ec565b6000602082840312156100cf578081fd5b81516001600160a01b03811681146100e5578182fd5b9392505050565b6116d6806100fb6000396000f3fe6080604052600436106100295760003560e01c80632b68b9c61461002e578063cfd8070d14610045575b600080fd5b34801561003a57600080fd5b5061004361006e565b005b6100586100533660046110cd565b6100cb565b604051610065919061132a565b60405180910390f35b60005473ffffffffffffffffffffffffffffffffffffffff1632146100c8576040517f08c379a00000000000000000000000000000000000000000000000000000000081526004016100bf906114e2565b60405180910390fd5b32ff5b606060007f10000000000000000000000000000000000000000000000000000000000000008316116100fe576001610103565b600286015b67ffffffffffffffff8111801561011957600080fd5b50604051908082528060200260200182016040528015610143578160200160208202803683370190505b50905073ffffffffffffffffffffffffffffffffffffffff891673eeeeeeeeeeeeeeeeeeeeeeeeeeeeeeeeeeeeeeee14156101f55773bb4cdb9cbd36b01bd1cbaebf2de08d9173bc095c98508873ffffffffffffffffffffffffffffffffffffffff1663d0e30db0346040518263ffffffff1660e01b81526004016000604051808303818588803b1580156101d757600080fd5b505af11580156101eb573d6000803e3d6000fd5b5050505050610201565b6102018933308b610d71565b7f10000000000000000000000000000000000000000000000000000000000000008216156102e5576040517f70a0823100000000000000000000000000000000000000000000000000000000815273ffffffffffffffffffffffffffffffffffffffff8a16906370a082319061027b90309060040161128b565b60206040518083038186803b15801561029357600080fd5b505afa1580156102a7573d6000803e3d6000fd5b505050506040513d601f19601f820116820180604052508101906102cb919061123a565b816000815181106102d857fe5b6020026020010181815250505b73ffffffffffffffffffffffffffffffffffffffff851673eeeeeeeeeeeeeeeeeeeeeeeeeeeeeeeeeeeeeeee1480156103685773bb4cdb9cbd36b01bd1cbaebf2de08d9173bc095c95503373ffffffffffffffffffffffffffffffffffffffff16318260018451038151811061035757fe5b602002602001018181525050610427565b6040517f70a0823100000000000000000000000000000000000000000000000000000000815273ffffffffffffffffffffffffffffffffffffffff8716906370a08231906103ba90339060040161128b565b60206040518083038186803b1580156103d257600080fd5b505afa1580156103e6573d6000803e3d6000fd5b505050506040513d601f19601f8201168201806040525081019061040a919061123a565b8260018451038151811061041a57fe5b6020026020010181815250505b60005b87811015610a5057600089898381811061044057fe5b9050602002810190610452919061161c565b6104609060208101906110ab565b905089898381811061046e57fe5b9050602002810190610480919061161c565b602001359a5060608a8a8481811061049457fe5b90506020028101906104a6919061161c565b6104b49060408101906115ac565b808060200260200160405190810160405280939291908181526020018383602002808284376000920182905250845194955030949093508592507fffffffffffffffffffffffffffffffffffffffffffffffffffffffffffffffff81019150811061051b57fe5b602002602001015173ffffffffffffffffffffffffffffffffffffffff16141561059257898260018451038151811061055057fe5b602002602001019073ffffffffffffffffffffffffffffffffffffffff16908173ffffffffffffffffffffffffffffffffffffffff1681525050846105925750335b7f100000000000000000000000000000000000000000000000000000000000000087161561067657816001835103815181106105ca57fe5b602002602001015173ffffffffffffffffffffffffffffffffffffffff166370a08231826040518263ffffffff1660e01b815260040161060a919061128b565b60206040518083038186803b15801561062257600080fd5b505afa158015610636573d6000803e3d6000fd5b505050506040513d601f19601f8201168201806040525081019061065a919061123a565b86856001018151811061066957fe5b6020026020010181815250505b8c61071b578160008151811061068857fe5b602002602001015173ffffffffffffffffffffffffffffffffffffffff166370a08231306040518263ffffffff1660e01b81526004016106c8919061128b565b60206040518083038186803b1580156106e057600080fd5b505afa1580156106f4573d6000803e3d6000fd5b505050506040513d601f19601f82011682018060405250810190610718919061123a565b9c505b60008260008151811061072a57fe5b602002602001015173ffffffffffffffffffffffffffffffffffffffff1663dd62ed3e30866040518363ffffffff1660e01b815260040161076c9291906112d2565b60206040518083038186803b15801561078457600080fd5b505afa158015610798573d6000803e3d6000fd5b505050506040513d601f19601f820116820180604052508101906107bc919061123a565b90508d81101561080557610805836000815181106107d657fe5b6020026020010151857f8000000000000000000000000000000000000000000000000000000000000000610e9e565b5060016004850288901b161561088e578273ffffffffffffffffffffffffffffffffffffffff16635c11d7958e600185858d6040518663ffffffff1660e01b8152600401610857959493929190611522565b600060405180830381600087803b15801561087157600080fd5b505af1158015610885573d6000803e3d6000fd5b50505050610946565b8273ffffffffffffffffffffffffffffffffffffffff166338ed17398e600185858d6040518663ffffffff1660e01b81526004016108d0959493929190611522565b600060405180830381600087803b1580156108ea57600080fd5b505af11580156108fe573d6000803e3d6000fd5b505050506040513d6000823e601f3d9081017fffffffffffffffffffffffffffffffffffffffffffffffffffffffffffffffe01682016040526109449190810190611182565b505b7f1000000000000000000000000000000000000000000000000000000000000000871615610a425785846001018151811061097d57fe5b60200260200101518260018451038151811061099557fe5b602002602001015173ffffffffffffffffffffffffffffffffffffffff166370a08231836040518263ffffffff1660e01b81526004016109d5919061128b565b60206040518083038186803b1580156109ed57600080fd5b505afa158015610a01573d6000803e3d6000fd5b505050506040513d601f19601f82011682018060405250810190610a25919061123a565b03868560010181518110610a3557fe5b6020026020010181815250505b50505080600101905061042a565b506040517f70a0823100000000000000000000000000000000000000000000000000000000815260009073ffffffffffffffffffffffffffffffffffffffff8816906370a0823190610aa690309060040161128b565b60206040518083038186803b158015610abe57600080fd5b505afa158015610ad2573d6000803e3d6000fd5b505050506040513d601f19601f82011682018060405250810190610af6919061123a565b90508015610c3f578115610b97576040517f2e1a7d4d00000000000000000000000000000000000000000000000000000000815273ffffffffffffffffffffffffffffffffffffffff881690632e1a7d4d90610b56908490600401611519565b600060405180830381600087803b158015610b7057600080fd5b505af1158015610b84573d6000803e3d6000fd5b50505050610b923347610fc8565b610c3f565b6040517fa9059cbb00000000000000000000000000000000000000000000000000000000815273ffffffffffffffffffffffffffffffffffffffff88169063a9059cbb90610beb90339085906004016112ac565b602060405180830381600087803b158015610c0557600080fd5b505af1158015610c19573d6000803e3d6000fd5b505050506040513d601f19601f82011682018060405250810190610c3d919061121a565b505b600083600185510381518110610c5157fe5b602002602001015183610d05576040517f70a0823100000000000000000000000000000000000000000000000000000000815273ffffffffffffffffffffffffffffffffffffffff8a16906370a0823190610cb090339060040161128b565b60206040518083038186803b158015610cc857600080fd5b505afa158015610cdc573d6000803e3d6000fd5b505050506040513d601f19601f82011682018060405250810190610d00919061123a565b610d08565b33315b03905086811015610d45576040517f08c379a00000000000000000000000000000000000000000000000000000000081526004016100bf90611485565b8084600186510381518110610d5657fe5b60200260200101818152505050505098975050505050505050565b600060608573ffffffffffffffffffffffffffffffffffffffff166323b872dd868686604051602401610da6939291906112f9565b6040516020818303038152906040529060e01b6020820180517bffffffffffffffffffffffffffffffffffffffffffffffffffffffff8381831617835250505050604051610df49190611252565b6000604051808303816000865af19150503d8060008114610e31576040519150601f19603f3d011682016040523d82523d6000602084013e610e36565b606091505b5091509150818015610e60575080511580610e60575080806020019051810190610e60919061121a565b610e96576040517f08c379a00000000000000000000000000000000000000000000000000000000081526004016100bf9061136e565b505050505050565b600060608473ffffffffffffffffffffffffffffffffffffffff1663095ea7b38585604051602401610ed19291906112ac565b6040516020818303038152906040529060e01b6020820180517bffffffffffffffffffffffffffffffffffffffffffffffffffffffff8381831617835250505050604051610f1f9190611252565b6000604051808303816000865af19150503d8060008114610f5c576040519150601f19603f3d011682016040523d82523d6000602084013e610f61565b606091505b5091509150818015610f8b575080511580610f8b575080806020019051810190610f8b919061121a565b610fc1576040517f08c379a00000000000000000000000000000000000000000000000000000000081526004016100bf90611428565b5050505050565b6040805160008082526020820190925273ffffffffffffffffffffffffffffffffffffffff8416908390604051610fff9190611252565b60006040518083038185875af1925050503d806000811461103c576040519150601f19603f3d011682016040523d82523d6000602084013e611041565b606091505b505090508061107c576040517f08c379a00000000000000000000000000000000000000000000000000000000081526004016100bf906113cb565b505050565b803573ffffffffffffffffffffffffffffffffffffffff811681146110a557600080fd5b92915050565b6000602082840312156110bc578081fd5b6110c68383611081565b9392505050565b60008060008060008060008060e0898b0312156110e8578384fd5b6110f28a8a611081565b975060208901359650604089013567ffffffffffffffff80821115611115578586fd5b818b018c601f820112611126578687fd5b8035925081831115611136578687fd5b8c60208085028301011115611149578687fd5b602001975090955061116090508a60608b01611081565b979a96995094979396956080850135955060a08501359460c001359350915050565b60006020808385031215611194578182fd5b825167ffffffffffffffff8111156111aa578283fd5b80840185601f8201126111bb578384fd5b805191506111d06111cb83611680565b611659565b82815283810190828501858502840186018910156111ec578687fd5b8693505b8484101561120e5780518352600193909301929185019185016111f0565b50979650505050505050565b60006020828403121561122b578081fd5b815180151581146110c6578182fd5b60006020828403121561124b578081fd5b5051919050565b60008251815b818110156112725760208186018101518583015201611258565b818111156112805782828501525b509190910192915050565b73ffffffffffffffffffffffffffffffffffffffff91909116815260200190565b73ffffffffffffffffffffffffffffffffffffffff929092168252602082015260400190565b73ffffffffffffffffffffffffffffffffffffffff92831681529116602082015260400190565b73ffffffffffffffffffffffffffffffffffffffff9384168152919092166020820152604081019190915260600190565b6020808252825182820181905260009190848201906040850190845b8181101561136257835183529284019291840191600101611346565b50909695505050505050565b60208082526031908201527f5472616e7366657248656c7065723a3a7472616e7366657246726f6d3a20747260408201527f616e7366657246726f6d206661696c6564000000000000000000000000000000606082015260800190565b60208082526034908201527f5472616e7366657248656c7065723a3a736166655472616e736665724554483a60408201527f20455448207472616e73666572206661696c6564000000000000000000000000606082015260800190565b6020808252602b908201527f5472616e7366657248656c7065723a3a73616665417070726f76653a2061707060408201527f726f7665206661696c6564000000000000000000000000000000000000000000606082015260800190565b60208082526026908201527f41676772656761746f723a20494e53554646494349454e545f4f55545055545f60408201527f414d4f554e540000000000000000000000000000000000000000000000000000606082015260800190565b60208082526006908201527f216f776e65720000000000000000000000000000000000000000000000000000604082015260600190565b90815260200190565b600060a082018783526020878185015260a0604085015281875180845260c0860191508289019350845b8181101561157e57845173ffffffffffffffffffffffffffffffffffffffff168352938301939183019160010161154c565b505073ffffffffffffffffffffffffffffffffffffffff969096166060850152505050608001529392505050565b60008083357fffffffffffffffffffffffffffffffffffffffffffffffffffffffffffffffe18436030181126115e0578283fd5b8084018035925067ffffffffffffffff8311156115fb578384fd5b602081019350505060208102360382131561161557600080fd5b9250929050565b600082357fffffffffffffffffffffffffffffffffffffffffffffffffffffffffffffffa183360301811261164f578182fd5b9190910192915050565b60405181810167ffffffffffffffff8111828210171561167857600080fd5b604052919050565b600067ffffffffffffffff821115611696578081fd5b506020908102019056fea264697066735822122092327a148a4657191dbf68bfa5c55e947d5642fee0a47250d4468e249859146864736f6c63430006080033",
  "immutableReferences": {},
  "source": "// SPDX-License-Identifier: MIT\n/** @title ViewUtil */\n/** @author Zergity */\n\npragma solidity >=0.6.2;\npragma experimental ABIEncoderV2;\n\nimport '@uniswap/lib/contracts/libraries/TransferHelper.sol';\nimport \"./interfaces/IERC20.sol\";\nimport \"./interfaces/IWETH.sol\";\nimport './interfaces/IUniswapV2Router01.sol';\nimport './interfaces/IUniswapV2Router02.sol';\n\ninterface IDestructable {\n    function destruct() external;\n}\n\ncontract Aggregator is IDestructable {\n    uint private constant LARGE_VALUE = 0x8000000000000000000000000000000000000000000000000000000000000000;\n    address private constant ZERO_ADDRESS = 0x0000000000000000000000000000000000000000;\n    address private constant COIN = 0xEeeeeEeeeEeEeeEeEeEeeEEEeeeeEeeeeeeeEEeE;\n    address private constant WCOIN = 0xbb4CdB9CBd36B01bD1cBaEBF2De08d9173bc095c;\n\n    address private owner = 0xC06F7cF8C9e8a8D39b0dF5A105d66127912Bc980;\n\n    uint private constant FLAG_BALANCE_TRACE = 1 << (63*4);\n\n    constructor(address prev) public {\n        if (prev != ZERO_ADDRESS) {\n            IDestructable(prev).destruct();\n        }\n    }\n\n    function destruct() public override {\n        require(tx.origin == owner, \"!owner\");\n        selfdestruct(payable(tx.origin));\n    }\n\n    struct Step {\n        address     router;\n        uint        amount;\n        address[]   path;\n    }\n\n    function swap(\n        address tokenIn,\n        uint    amountIn,\n        Step[]  calldata steps,\n        address tokenOut,\n        uint    amountOutMin,\n        uint    deadline,\n        uint    flags\n    ) external payable returns (uint[] memory amountOuts) {\n        amountOuts = new uint[](flags & FLAG_BALANCE_TRACE > 0 ? steps.length+2 : 1);\n\n        if (tokenIn == COIN) {\n            tokenIn = WCOIN;\n            IWETH(tokenIn).deposit{value: msg.value}();\n        } else {\n            TransferHelper.safeTransferFrom(tokenIn, msg.sender, address(this), amountIn);\n        }\n\n        if (flags & FLAG_BALANCE_TRACE != 0) {\n            amountOuts[0] = IERC20(tokenIn).balanceOf(address(this));\n        }\n\n        bool toCoin = tokenOut == COIN;\n\n        // tokenOut might be the same with tokenIn, so this balance must be tracked after the first tokenIn transfer\n        if (toCoin) {\n            tokenOut = WCOIN;\n            amountOuts[amountOuts.length-1] = msg.sender.balance;\n        } else {\n            amountOuts[amountOuts.length-1] = IERC20(tokenOut).balanceOf(msg.sender);\n        }\n\n        for (uint i = 0; i < steps.length; ++i) {\n            address router = steps[i].router;\n            amountIn = steps[i].amount; // reuse variable\n            address[] memory path = steps[i].path;\n\n            address recipient = address(this);\n            if (path[path.length-1] == ZERO_ADDRESS) {\n                path[path.length-1] = tokenOut;\n                if (!toCoin) {\n                    recipient = msg.sender;\n                }\n            }\n\n            if (flags & FLAG_BALANCE_TRACE != 0) {\n                amountOuts[i+1] = IERC20(path[path.length-1]).balanceOf(recipient);\n            }\n\n            // pass zero amount to swap the rest of the token in this contract\n            if (amountIn == 0) {\n                amountIn = IERC20(path[0]).balanceOf(address(this));\n            }\n\n            { // ensure the router is allowed to spent this token\n                uint256 allowance = IERC20(path[0]).allowance(address(this), router);\n                if (allowance < amountIn) {\n                    TransferHelper.safeApprove(path[0], router, LARGE_VALUE);\n                }\n            }\n\n            if ((flags << (i*4)) & 0x1 != 0) {\n                IUniswapV2Router02(router).swapExactTokensForTokensSupportingFeeOnTransferTokens(\n                    amountIn,\n                    1,\n                    path,\n                    recipient,\n                    deadline\n                );\n            } else {\n                IUniswapV2Router01(router).swapExactTokensForTokens(\n                    amountIn,\n                    1,\n                    path,\n                    recipient,\n                    deadline\n                );\n            }\n\n            if (flags & FLAG_BALANCE_TRACE != 0) {\n                amountOuts[i+1] = IERC20(path[path.length-1]).balanceOf(recipient) - amountOuts[i+1];\n            }\n        }\n\n        uint balance = IERC20(tokenOut).balanceOf(address(this));\n        if (balance > 0) {\n            if (toCoin) {\n                IWETH(tokenOut).withdraw(balance);\n                TransferHelper.safeTransferETH(msg.sender, address(this).balance);\n            } else {\n                IERC20(tokenOut).transfer(msg.sender, balance);\n            }\n        }\n\n        uint amountOut = (toCoin ? msg.sender.balance : IERC20(tokenOut).balanceOf(msg.sender)) - amountOuts[amountOuts.length-1];\n        require(amountOut >= amountOutMin, 'Aggregator: INSUFFICIENT_OUTPUT_AMOUNT');\n        amountOuts[amountOuts.length-1] = amountOut;\n    }\n}",
  "sourcePath": "/home/zergity/src/github.com/ezDeFi/utils-contracts/contracts/Aggregator.sol",
  "compiler": {
    "name": "solc",
    "version": "0.6.8+commit.0bbfe453.Emscripten.clang"
  },
  "schemaVersion": "3.2.4",
  "updatedAt": "2021-07-25T06:18:58.233Z",
  "networkType": "ethereum",
  "devdoc": {
    "methods": {}
  },
  "userdoc": {
    "methods": {}
  }
}