{
  "contractName": "Aggregator",
  "abi": [
    {
      "inputs": [
        {
          "internalType": "address",
          "name": "tokenIn",
          "type": "address"
        },
        {
          "internalType": "uint256",
          "name": "amountIn",
          "type": "uint256"
        },
        {
          "components": [
            {
              "internalType": "address",
              "name": "router",
              "type": "address"
            },
            {
              "internalType": "uint256",
              "name": "amount",
              "type": "uint256"
            },
            {
              "internalType": "address[]",
              "name": "path",
              "type": "address[]"
            }
          ],
          "internalType": "struct Aggregator.Step[]",
          "name": "steps",
          "type": "tuple[]"
        },
        {
          "internalType": "address",
          "name": "tokenOut",
          "type": "address"
        },
        {
          "internalType": "uint256",
          "name": "amountOutMin",
          "type": "uint256"
        },
        {
          "internalType": "uint256",
          "name": "deadline",
          "type": "uint256"
        }
      ],
      "name": "swap",
      "outputs": [
        {
          "internalType": "uint256[]",
          "name": "amountOuts",
          "type": "uint256[]"
        }
      ],
      "stateMutability": "payable",
      "type": "function",
      "payable": true
    }
  ],
  "bytecode": "0x608060405234801561001057600080fd5b5061140e806100206000396000f3fe60806040526004361061001e5760003560e01c80637a3d914c14610023575b600080fd5b610036610031366004610eb7565b61004c565b60405161004391906110f1565b60405180910390f35b60408051600286018082526020808202830101909252606091801561007b578160200160208202803883390190505b50905073ffffffffffffffffffffffffffffffffffffffff881673eeeeeeeeeeeeeeeeeeeeeeeeeeeeeeeeeeeeeeee141561012d5773bb4cdb9cbd36b01bd1cbaebf2de08d9173bc095c97508773ffffffffffffffffffffffffffffffffffffffff1663d0e30db0346040518263ffffffff1660e01b81526004016000604051808303818588803b15801561010f57600080fd5b505af1158015610123573d6000803e3d6000fd5b5050505050610139565b6101398833308a610b5b565b6040517f70a0823100000000000000000000000000000000000000000000000000000000815273ffffffffffffffffffffffffffffffffffffffff8916906370a082319061018b903090600401611052565b60206040518083038186803b1580156101a357600080fd5b505afa1580156101b7573d6000803e3d6000fd5b505050506040513d601f19601f820116820180604052506101db919081019061101e565b816000815181106101e857fe5b602090810291909101015273ffffffffffffffffffffffffffffffffffffffff841673eeeeeeeeeeeeeeeeeeeeeeeeeeeeeeeeeeeeeeee1460008115610247575073bb4cdb9cbd36b01bd1cbaebf2de08d9173bc095c945033316102ec565b6040517f70a0823100000000000000000000000000000000000000000000000000000000815273ffffffffffffffffffffffffffffffffffffffff8716906370a0823190610299903390600401611052565b60206040518083038186803b1580156102b157600080fd5b505afa1580156102c5573d6000803e3d6000fd5b505050506040513d601f19601f820116820180604052506102e9919081019061101e565b90505b60005b8781101561084857600089898381811061030557fe5b6020028201905080357fffffffffffffffffffffffffffffffffffffffffffffffffffffffffffffffa13684900301811261033f57600080fd5b61034f9201602081019150610e95565b905089898381811061035d57fe5b6020028201905080357fffffffffffffffffffffffffffffffffffffffffffffffffffffffffffffffa13684900301811261039757600080fd5b80830192505050602001359a5060608a8a848181106103b257fe5b6020028201905080357fffffffffffffffffffffffffffffffffffffffffffffffffffffffffffffffa1368490030181126103ec57600080fd5b9190910190506040810180357fffffffffffffffffffffffffffffffffffffffffffffffffffffffffffffffe13684900301811261042957600080fd5b9091016020810191503567ffffffffffffffff81111561044857600080fd5b60208102360382131561045a57600080fd5b808060200260200160405190810160405280939291908181526020018383602002808284376000920182905250845194955030949093508592507fffffffffffffffffffffffffffffffffffffffffffffffffffffffffffffffff8101915081106104c157fe5b602002602001015173ffffffffffffffffffffffffffffffffffffffff1614156105385789826001845103815181106104f657fe5b602002602001019073ffffffffffffffffffffffffffffffffffffffff16908173ffffffffffffffffffffffffffffffffffffffff1681525050856105385750335b8c6105dd578160008151811061054a57fe5b602002602001015173ffffffffffffffffffffffffffffffffffffffff166370a08231306040518263ffffffff1660e01b815260040161058a9190611052565b60206040518083038186803b1580156105a257600080fd5b505afa1580156105b6573d6000803e3d6000fd5b505050506040513d601f19601f820116820180604052506105da919081019061101e565b9c505b6000826000815181106105ec57fe5b602002602001015173ffffffffffffffffffffffffffffffffffffffff1663dd62ed3e30866040518363ffffffff1660e01b815260040161062e929190611099565b60206040518083038186803b15801561064657600080fd5b505afa15801561065a573d6000803e3d6000fd5b505050506040513d601f19601f8201168201806040525061067e919081019061101e565b90508d8110156106c7576106c78360008151811061069857fe5b6020026020010151857f8000000000000000000000000000000000000000000000000000000000000000610c88565b508273ffffffffffffffffffffffffffffffffffffffff166338ed17398e600185858d6040518663ffffffff1660e01b815260040161070a9594939291906112b2565b600060405180830381600087803b15801561072457600080fd5b505af1158015610738573d6000803e3d6000fd5b505050506040513d6000823e601f3d9081017fffffffffffffffffffffffffffffffffffffffffffffffffffffffffffffffe016820160405261077e9190810190610f66565b508160018351038151811061078f57fe5b602002602001015173ffffffffffffffffffffffffffffffffffffffff166370a08231826040518263ffffffff1660e01b81526004016107cf9190611052565b60206040518083038186803b1580156107e757600080fd5b505afa1580156107fb573d6000803e3d6000fd5b505050506040513d601f19601f8201168201806040525061081f919081019061101e565b87856001018151811061082e57fe5b6020026020010181815250505050508060010190506102ef565b506040517f70a0823100000000000000000000000000000000000000000000000000000000815260009073ffffffffffffffffffffffffffffffffffffffff8816906370a082319061089e903090600401611052565b60206040518083038186803b1580156108b657600080fd5b505afa1580156108ca573d6000803e3d6000fd5b505050506040513d601f19601f820116820180604052506108ee919081019061101e565b90508015610a3757821561098f576040517f2e1a7d4d00000000000000000000000000000000000000000000000000000000815273ffffffffffffffffffffffffffffffffffffffff881690632e1a7d4d9061094e9084906004016112a9565b600060405180830381600087803b15801561096857600080fd5b505af115801561097c573d6000803e3d6000fd5b5050505061098a3347610db2565b610a37565b6040517fa9059cbb00000000000000000000000000000000000000000000000000000000815273ffffffffffffffffffffffffffffffffffffffff88169063a9059cbb906109e39033908590600401611073565b602060405180830381600087803b1580156109fd57600080fd5b505af1158015610a11573d6000803e3d6000fd5b505050506040513d601f19601f82011682018060405250610a359190810190610ffe565b505b60008284610ae6576040517f70a0823100000000000000000000000000000000000000000000000000000000815273ffffffffffffffffffffffffffffffffffffffff8a16906370a0823190610a91903390600401611052565b60206040518083038186803b158015610aa957600080fd5b505afa158015610abd573d6000803e3d6000fd5b505050506040513d601f19601f82011682018060405250610ae1919081019061101e565b610ae9565b33315b03905086811015610b2f576040517f08c379a0000000000000000000000000000000000000000000000000000000008152600401610b269061124c565b60405180910390fd5b8085600187510381518110610b4057fe5b60200260200101818152505050505050979650505050505050565b600060608573ffffffffffffffffffffffffffffffffffffffff166323b872dd868686604051602401610b90939291906110c0565b6040516020818303038152906040529060e01b6020820180517bffffffffffffffffffffffffffffffffffffffffffffffffffffffff8381831617835250505050604051610bde9190611036565b6000604051808303816000865af19150503d8060008114610c1b576040519150601f19603f3d011682016040523d82523d6000602084013e610c20565b606091505b5091509150818015610c4a575080511580610c4a575080806020019051610c4a9190810190610ffe565b610c80576040517f08c379a0000000000000000000000000000000000000000000000000000000008152600401610b2690611135565b505050505050565b600060608473ffffffffffffffffffffffffffffffffffffffff1663095ea7b38585604051602401610cbb929190611073565b6040516020818303038152906040529060e01b6020820180517bffffffffffffffffffffffffffffffffffffffffffffffffffffffff8381831617835250505050604051610d099190611036565b6000604051808303816000865af19150503d8060008114610d46576040519150601f19603f3d011682016040523d82523d6000602084013e610d4b565b606091505b5091509150818015610d75575080511580610d75575080806020019051610d759190810190610ffe565b610dab576040517f08c379a0000000000000000000000000000000000000000000000000000000008152600401610b26906111ef565b5050505050565b6040805160008082526020820190925273ffffffffffffffffffffffffffffffffffffffff8416908390604051610de99190611036565b60006040518083038185875af1925050503d8060008114610e26576040519150601f19603f3d011682016040523d82523d6000602084013e610e2b565b606091505b5050905080610e66576040517f08c379a0000000000000000000000000000000000000000000000000000000008152600401610b2690611192565b505050565b803573ffffffffffffffffffffffffffffffffffffffff81168114610e8f57600080fd5b92915050565b600060208284031215610ea6578081fd5b610eb08383610e6b565b9392505050565b600080600080600080600060c0888a031215610ed1578283fd5b8735610edc816113b3565b965060208801359550604088013567ffffffffffffffff80821115610eff578485fd5b818a018b601f820112610f10578586fd5b8035925081831115610f20578586fd5b8b60208085028301011115610f33578586fd5b6020019650909450610f4a90508960608a01610e6b565b92506080880135915060a0880135905092959891949750929550565b60006020808385031215610f78578182fd5b825167ffffffffffffffff811115610f8e578283fd5b80840185601f820112610f9f578384fd5b80519150610fb4610faf83611363565b61133c565b8281528381019082850185850284018601891015610fd0578687fd5b8693505b84841015610ff2578051835260019390930192918501918501610fd4565b50979650505050505050565b60006020828403121561100f578081fd5b81518015158114610eb0578182fd5b60006020828403121561102f578081fd5b5051919050565b60008251611048818460208701611383565b9190910192915050565b73ffffffffffffffffffffffffffffffffffffffff91909116815260200190565b73ffffffffffffffffffffffffffffffffffffffff929092168252602082015260400190565b73ffffffffffffffffffffffffffffffffffffffff92831681529116602082015260400190565b73ffffffffffffffffffffffffffffffffffffffff9384168152919092166020820152604081019190915260600190565b6020808252825182820181905260009190848201906040850190845b818110156111295783518352928401929184019160010161110d565b50909695505050505050565b60208082526031908201527f5472616e7366657248656c7065723a3a7472616e7366657246726f6d3a20747260408201527f616e7366657246726f6d206661696c6564000000000000000000000000000000606082015260800190565b60208082526034908201527f5472616e7366657248656c7065723a3a736166655472616e736665724554483a60408201527f20455448207472616e73666572206661696c6564000000000000000000000000606082015260800190565b6020808252602b908201527f5472616e7366657248656c7065723a3a73616665417070726f76653a2061707060408201527f726f7665206661696c6564000000000000000000000000000000000000000000606082015260800190565b60208082526026908201527f41676772656761746f723a20494e53554646494349454e545f4f55545055545f60408201527f414d4f554e540000000000000000000000000000000000000000000000000000606082015260800190565b90815260200190565b600060a082018783526020878185015260a0604085015281875180845260c0860191508289019350845b8181101561130e57845173ffffffffffffffffffffffffffffffffffffffff16835293830193918301916001016112dc565b505073ffffffffffffffffffffffffffffffffffffffff969096166060850152505050608001529392505050565b60405181810167ffffffffffffffff8111828210171561135b57600080fd5b604052919050565b600067ffffffffffffffff821115611379578081fd5b5060209081020190565b60005b8381101561139e578181015183820152602001611386565b838111156113ad576000848401525b50505050565b73ffffffffffffffffffffffffffffffffffffffff811681146113d557600080fd5b5056fea2646970667358221220361ac4c2ef9add0095195828f550b08cf7055a1b3b4fdd4b538e24e13d19876c64736f6c63430006020033",
  "source": "// SPDX-License-Identifier: MIT\n/** @title ViewUtil */\n/** @author Zergity */\n\npragma solidity >=0.6.2;\npragma experimental ABIEncoderV2;\n\nimport '@uniswap/lib/contracts/libraries/TransferHelper.sol';\nimport \"./interfaces/IERC20.sol\";\nimport \"./interfaces/IWETH.sol\";\nimport './interfaces/IUniswapV2Router01.sol';\n\ncontract Aggregator {\n    uint private constant LARGE_VALUE = 0x8000000000000000000000000000000000000000000000000000000000000000;\n    address private constant ZERO_ADDRESS = 0x0000000000000000000000000000000000000000;\n    address private constant COIN = 0xEeeeeEeeeEeEeeEeEeEeeEEEeeeeEeeeeeeeEEeE;\n    address private constant WCOIN = 0xbb4CdB9CBd36B01bD1cBaEBF2De08d9173bc095c;\n\n    struct Step {\n        address     router;\n        uint        amount;\n        address[]   path;\n    }\n\n    function swap(\n        address tokenIn,\n        uint    amountIn,\n        Step[]  calldata steps,\n        address tokenOut,\n        uint    amountOutMin,\n        uint    deadline\n    ) external payable returns (uint[] memory amountOuts) {\n        amountOuts = new uint[](steps.length+2);\n\n        if (tokenIn == COIN) {\n            tokenIn = WCOIN;\n            IWETH(tokenIn).deposit{value: msg.value}();\n        } else {\n            TransferHelper.safeTransferFrom(tokenIn, msg.sender, address(this), amountIn);\n        }\n\n        amountOuts[0] = IERC20(tokenIn).balanceOf(address(this));\n\n        bool toCoin = tokenOut == COIN;\n\n        // tokenOut might be the same with tokenIn, so this balance must be tracked after the first tokenIn transfer\n        uint balanceOut;\n        if (toCoin) {\n            tokenOut = WCOIN;\n            balanceOut = msg.sender.balance;\n        } else {\n            balanceOut = IERC20(tokenOut).balanceOf(msg.sender);\n        }\n\n        for (uint i = 0; i < steps.length; ++i) {\n            address router = steps[i].router;\n            amountIn = steps[i].amount; // reuse variable\n            address[] memory path = steps[i].path;\n\n            address recipient = address(this);\n            if (path[path.length-1] == ZERO_ADDRESS) {\n                path[path.length-1] = tokenOut;\n                if (!toCoin) {\n                    recipient = msg.sender;\n                }\n            }\n\n            // pass zero amount to swap the rest of the token in this contract\n            if (amountIn == 0) {\n                amountIn = IERC20(path[0]).balanceOf(address(this));\n            }\n\n            { // ensure the router is allowed to spent this token\n                uint256 allowance = IERC20(path[0]).allowance(address(this), router);\n                if (allowance < amountIn) {\n                    TransferHelper.safeApprove(path[0], router, LARGE_VALUE);\n                }\n            }\n\n            IUniswapV2Router01(router).swapExactTokensForTokens(\n                amountIn,\n                1,\n                path,\n                recipient,\n                deadline\n            );\n\n            amountOuts[i+1] = IERC20(path[path.length-1]).balanceOf(recipient);\n        }\n\n        uint balance = IERC20(tokenOut).balanceOf(address(this));\n        if (balance > 0) {\n            if (toCoin) {\n                IWETH(tokenOut).withdraw(balance);\n                TransferHelper.safeTransferETH(msg.sender, address(this).balance);\n            } else {\n                IERC20(tokenOut).transfer(msg.sender, balance);\n            }\n        }\n\n        uint amountOut = (toCoin ? msg.sender.balance : IERC20(tokenOut).balanceOf(msg.sender)) - balanceOut;\n        require(amountOut >= amountOutMin, 'Aggregator: INSUFFICIENT_OUTPUT_AMOUNT');\n        amountOuts[amountOuts.length-1] = amountOut;\n    }\n}",
  "sourcePath": "/home/zergity/src/github.com/ezDeFi/utils-contracts/contracts/Aggregator.sol",
  "compiler": {
    "name": "solc",
    "version": "0.6.2+commit.bacdbe57.Emscripten.clang"
  },
  "schemaVersion": "3.2.4",
  "updatedAt": "2021-07-22T08:15:08.845Z",
  "networkType": "ethereum",
  "devdoc": {
    "methods": {}
  },
  "userdoc": {
    "methods": {}
  }
}