{
  "contractName": "DataStructure",
  "abi": [
    {
      "anonymous": false,
      "inputs": [
        {
          "indexed": true,
          "internalType": "address",
          "name": "admin",
          "type": "address"
        },
        {
          "indexed": false,
          "internalType": "bool",
          "name": "enable",
          "type": "bool"
        }
      ],
      "name": "AuthorizeAdmin",
      "type": "event"
    },
    {
      "anonymous": false,
      "inputs": [
        {
          "indexed": true,
          "internalType": "address",
          "name": "farmer",
          "type": "address"
        },
        {
          "indexed": false,
          "internalType": "bool",
          "name": "enable",
          "type": "bool"
        }
      ],
      "name": "AuthorizeFarmer",
      "type": "event"
    },
    {
      "anonymous": false,
      "inputs": [
        {
          "indexed": true,
          "internalType": "address",
          "name": "router",
          "type": "address"
        },
        {
          "indexed": false,
          "internalType": "uint256",
          "name": "mask",
          "type": "uint256"
        }
      ],
      "name": "AuthorizeRouter",
      "type": "event"
    },
    {
      "anonymous": false,
      "inputs": [
        {
          "indexed": true,
          "internalType": "address",
          "name": "token",
          "type": "address"
        },
        {
          "indexed": false,
          "internalType": "uint256",
          "name": "level",
          "type": "uint256"
        }
      ],
      "name": "AuthorizeToken",
      "type": "event"
    },
    {
      "anonymous": false,
      "inputs": [
        {
          "indexed": true,
          "internalType": "address",
          "name": "router",
          "type": "address"
        },
        {
          "indexed": true,
          "internalType": "bytes4",
          "name": "func",
          "type": "bytes4"
        },
        {
          "indexed": false,
          "internalType": "uint256",
          "name": "mask",
          "type": "uint256"
        }
      ],
      "name": "AuthorizeWithdrawalFunc",
      "type": "event"
    },
    {
      "anonymous": false,
      "inputs": [
        {
          "indexed": true,
          "internalType": "address",
          "name": "sender",
          "type": "address"
        },
        {
          "indexed": true,
          "internalType": "address",
          "name": "token",
          "type": "address"
        },
        {
          "indexed": false,
          "internalType": "uint256",
          "name": "value",
          "type": "uint256"
        }
      ],
      "name": "Deposit",
      "type": "event"
    },
    {
      "anonymous": false,
      "inputs": [
        {
          "indexed": true,
          "internalType": "address",
          "name": "sender",
          "type": "address"
        },
        {
          "indexed": false,
          "internalType": "uint256",
          "name": "value",
          "type": "uint256"
        },
        {
          "indexed": false,
          "internalType": "uint256",
          "name": "subsidy",
          "type": "uint256"
        }
      ],
      "name": "Harvest",
      "type": "event"
    },
    {
      "anonymous": false,
      "inputs": [
        {
          "indexed": true,
          "internalType": "address",
          "name": "sender",
          "type": "address"
        },
        {
          "indexed": true,
          "internalType": "address",
          "name": "token",
          "type": "address"
        },
        {
          "indexed": false,
          "internalType": "uint256",
          "name": "value",
          "type": "uint256"
        }
      ],
      "name": "Withdraw",
      "type": "event"
    },
    {
      "inputs": [],
      "name": "delay",
      "outputs": [
        {
          "internalType": "uint256",
          "name": "",
          "type": "uint256"
        }
      ],
      "stateMutability": "view",
      "type": "function"
    },
    {
      "inputs": [
        {
          "internalType": "bytes32",
          "name": "",
          "type": "bytes32"
        }
      ],
      "name": "queuedTransactions",
      "outputs": [
        {
          "internalType": "bool",
          "name": "",
          "type": "bool"
        }
      ],
      "stateMutability": "view",
      "type": "function"
    },
    {
      "stateMutability": "payable",
      "type": "receive"
    }
  ],
  "bytecode": "0x608060405234801561001057600080fd5b50610154806100206000396000f3fe60806040526004361061002d5760003560e01c80636a42b8f81461009e578063f2b06537146100c557610099565b3661009957604080517f08c379a000000000000000000000000000000000000000000000000000000000815260206004820152600a60248201527f4e6f207468616e6b732100000000000000000000000000000000000000000000604482015290519081900360640190fd5b600080fd5b3480156100aa57600080fd5b506100b3610103565b60408051918252519081900360200190f35b3480156100d157600080fd5b506100ef600480360360208110156100e857600080fd5b5035610109565b604080519115158252519081900360200190f35b60005481565b60016020526000908152604090205460ff168156fea26469706673582212206014b82b6fb8adaa0ffcdcb63b7a9d15d3d54a81b32763004c3fcc21e57613b264736f6c63430006020033",
  "source": "// SPDX-License-Identifier: MIT\npragma solidity >=0.6.2;\n\n/** @title DataStructure */\n/** @author Zergity */\n\nimport \"./lib/StakeLib.sol\";\n\n// solium-disable security/no-block-members\n\n/**\n * Data Structure and common logic\n */\ncontract DataStructure {\n    // Upgradable Contract Proxy //\n    // mapping(bytes4 => address) impls;   // function signature => implementation contract address\n\n    // Admin TimeLock\n    uint public delay;\n    mapping (bytes32 => bool) public queuedTransactions;\n\n    address earnToken;  // reward token (ZD)\n\n    uint64  subsidyRate;        // [0,1) with 18 decimals\n    address subsidyRecipient;\n\n    uint constant SUBSIDY_UNIT = 10**18;\n\n    uint stakeTokensCount;  // number of authorizedTokens with TOKEN_LEVEL_STAKE\n\n    mapping(address => bool)                    authorizedAdmins;\n    mapping(address => bool)                    authorizedFarmers;\n\n    mapping(address => uint)                    authorizedTokens;   // 1: receiving token, 2: staked token\n    mapping(address => uint)                    authorizedRouters;  // 1: earn token, 2: staked token\n    mapping(address => mapping(bytes4 => uint)) authorizedWithdrawalFunc;\n\n    uint constant TOKEN_LEVEL_RECEIVABLE    = 1;\n    uint constant TOKEN_LEVEL_STAKE         = 2;\n\n    uint constant ROUTER_EARN_TOKEN             = 1 << 0;\n    uint constant ROUTER_STAKE_TOKEN            = 1 << 1;\n    uint constant ROUTER_OWNERSHIP_PRESERVED    = 1 << 2;     // router that always use msg.sender as recipient\n\n    mapping(address => Stake)   stakes;\n    Stake total;\n    using StakeLib for Stake;\n\n    event AuthorizeAdmin(address indexed admin, bool enable);\n    event AuthorizeFarmer(address indexed farmer, bool enable);\n    event AuthorizeToken(address indexed token, uint level);\n    event AuthorizeRouter(address indexed router, uint mask);\n    event AuthorizeWithdrawalFunc(address indexed router, bytes4 indexed func, uint mask);\n\n    event Deposit(address indexed sender, address indexed token, uint value);\n    event Withdraw(address indexed sender, address indexed token, uint value);\n    event Harvest(address indexed sender, uint value, uint subsidy);\n\n    /**\n     * we don't do that here\n     */\n    receive() external payable {\n        revert(\"No thanks!\");\n    }\n\n    // forward the last call result to the caller, including revert reason\n    function _forwardCallResult(bool success) internal pure {\n        assembly {\n            let size := returndatasize()\n            // Copy the returned data.\n            returndatacopy(0, 0, size)\n\n            switch success\n            // delegatecall returns 0 on error.\n            case 0 { revert(0, size) }\n            default { return(0, size) }\n        }\n    }\n}\n",
  "sourcePath": "/home/zergity/src/github.com/ezDeFi/sfarm-contracts/contracts/DataStructure.sol",
  "compiler": {
    "name": "solc",
    "version": "0.6.2+commit.bacdbe57.Emscripten.clang"
  },
  "schemaVersion": "3.2.4",
  "updatedAt": "2021-05-28T15:27:50.993Z",
  "devdoc": {
    "methods": {}
  },
  "userdoc": {
    "methods": {},
    "notice": "Data Structure and common logic"
  }
}