{
  "contractName": "SFarm",
  "abi": [
    {
      "inputs": [
        {
          "internalType": "address",
          "name": "_earnToken",
          "type": "address"
        },
        {
          "internalType": "address",
          "name": "_admin",
          "type": "address"
        },
        {
          "internalType": "uint256",
          "name": "_subsidyRate",
          "type": "uint256"
        },
        {
          "internalType": "uint256",
          "name": "_delay",
          "type": "uint256"
        }
      ],
      "stateMutability": "nonpayable",
      "type": "constructor"
    },
    {
      "anonymous": false,
      "inputs": [
        {
          "indexed": true,
          "internalType": "address",
          "name": "admin",
          "type": "address"
        },
        {
          "indexed": false,
          "internalType": "bool",
          "name": "enable",
          "type": "bool"
        }
      ],
      "name": "AuthorizeAdmin",
      "type": "event"
    },
    {
      "anonymous": false,
      "inputs": [
        {
          "indexed": true,
          "internalType": "address",
          "name": "farmer",
          "type": "address"
        },
        {
          "indexed": false,
          "internalType": "bool",
          "name": "enable",
          "type": "bool"
        }
      ],
      "name": "AuthorizeFarmer",
      "type": "event"
    },
    {
      "anonymous": false,
      "inputs": [
        {
          "indexed": true,
          "internalType": "address",
          "name": "router",
          "type": "address"
        },
        {
          "indexed": false,
          "internalType": "uint256",
          "name": "mask",
          "type": "uint256"
        }
      ],
      "name": "AuthorizeRouter",
      "type": "event"
    },
    {
      "anonymous": false,
      "inputs": [
        {
          "indexed": true,
          "internalType": "address",
          "name": "token",
          "type": "address"
        },
        {
          "indexed": false,
          "internalType": "uint256",
          "name": "level",
          "type": "uint256"
        }
      ],
      "name": "AuthorizeToken",
      "type": "event"
    },
    {
      "anonymous": false,
      "inputs": [
        {
          "indexed": true,
          "internalType": "address",
          "name": "router",
          "type": "address"
        },
        {
          "indexed": true,
          "internalType": "bytes4",
          "name": "func",
          "type": "bytes4"
        },
        {
          "indexed": false,
          "internalType": "uint256",
          "name": "mask",
          "type": "uint256"
        }
      ],
      "name": "AuthorizeWithdrawalFunc",
      "type": "event"
    },
    {
      "anonymous": false,
      "inputs": [
        {
          "indexed": true,
          "internalType": "bytes32",
          "name": "txHash",
          "type": "bytes32"
        },
        {
          "indexed": true,
          "internalType": "address",
          "name": "target",
          "type": "address"
        },
        {
          "indexed": false,
          "internalType": "uint256",
          "name": "value",
          "type": "uint256"
        },
        {
          "indexed": false,
          "internalType": "string",
          "name": "signature",
          "type": "string"
        },
        {
          "indexed": false,
          "internalType": "bytes",
          "name": "data",
          "type": "bytes"
        },
        {
          "indexed": false,
          "internalType": "uint256",
          "name": "eta",
          "type": "uint256"
        }
      ],
      "name": "CancelTransaction",
      "type": "event"
    },
    {
      "anonymous": false,
      "inputs": [
        {
          "indexed": true,
          "internalType": "address",
          "name": "sender",
          "type": "address"
        },
        {
          "indexed": true,
          "internalType": "address",
          "name": "token",
          "type": "address"
        },
        {
          "indexed": false,
          "internalType": "uint256",
          "name": "value",
          "type": "uint256"
        }
      ],
      "name": "Deposit",
      "type": "event"
    },
    {
      "anonymous": false,
      "inputs": [
        {
          "indexed": true,
          "internalType": "bytes32",
          "name": "txHash",
          "type": "bytes32"
        },
        {
          "indexed": true,
          "internalType": "address",
          "name": "target",
          "type": "address"
        },
        {
          "indexed": false,
          "internalType": "uint256",
          "name": "value",
          "type": "uint256"
        },
        {
          "indexed": false,
          "internalType": "string",
          "name": "signature",
          "type": "string"
        },
        {
          "indexed": false,
          "internalType": "bytes",
          "name": "data",
          "type": "bytes"
        },
        {
          "indexed": false,
          "internalType": "uint256",
          "name": "eta",
          "type": "uint256"
        }
      ],
      "name": "ExecuteTransaction",
      "type": "event"
    },
    {
      "anonymous": false,
      "inputs": [
        {
          "indexed": true,
          "internalType": "address",
          "name": "sender",
          "type": "address"
        },
        {
          "indexed": false,
          "internalType": "uint256",
          "name": "value",
          "type": "uint256"
        },
        {
          "indexed": false,
          "internalType": "uint256",
          "name": "subsidy",
          "type": "uint256"
        }
      ],
      "name": "Harvest",
      "type": "event"
    },
    {
      "anonymous": false,
      "inputs": [
        {
          "indexed": true,
          "internalType": "uint256",
          "name": "newDelay",
          "type": "uint256"
        }
      ],
      "name": "NewDelay",
      "type": "event"
    },
    {
      "anonymous": false,
      "inputs": [
        {
          "indexed": true,
          "internalType": "bytes32",
          "name": "txHash",
          "type": "bytes32"
        },
        {
          "indexed": true,
          "internalType": "address",
          "name": "target",
          "type": "address"
        },
        {
          "indexed": false,
          "internalType": "uint256",
          "name": "value",
          "type": "uint256"
        },
        {
          "indexed": false,
          "internalType": "string",
          "name": "signature",
          "type": "string"
        },
        {
          "indexed": false,
          "internalType": "bytes",
          "name": "data",
          "type": "bytes"
        },
        {
          "indexed": false,
          "internalType": "uint256",
          "name": "eta",
          "type": "uint256"
        }
      ],
      "name": "QueueTransaction",
      "type": "event"
    },
    {
      "anonymous": false,
      "inputs": [
        {
          "indexed": true,
          "internalType": "address",
          "name": "sender",
          "type": "address"
        },
        {
          "indexed": true,
          "internalType": "address",
          "name": "token",
          "type": "address"
        },
        {
          "indexed": false,
          "internalType": "uint256",
          "name": "value",
          "type": "uint256"
        }
      ],
      "name": "Withdraw",
      "type": "event"
    },
    {
      "inputs": [],
      "name": "GRACE_PERIOD",
      "outputs": [
        {
          "internalType": "uint256",
          "name": "",
          "type": "uint256"
        }
      ],
      "stateMutability": "view",
      "type": "function"
    },
    {
      "inputs": [],
      "name": "MAXIMUM_DELAY",
      "outputs": [
        {
          "internalType": "uint256",
          "name": "",
          "type": "uint256"
        }
      ],
      "stateMutability": "view",
      "type": "function"
    },
    {
      "inputs": [],
      "name": "MINIMUM_DELAY",
      "outputs": [
        {
          "internalType": "uint256",
          "name": "",
          "type": "uint256"
        }
      ],
      "stateMutability": "view",
      "type": "function"
    },
    {
      "inputs": [
        {
          "internalType": "address",
          "name": "target",
          "type": "address"
        },
        {
          "internalType": "uint256",
          "name": "value",
          "type": "uint256"
        },
        {
          "internalType": "string",
          "name": "signature",
          "type": "string"
        },
        {
          "internalType": "bytes",
          "name": "data",
          "type": "bytes"
        },
        {
          "internalType": "uint256",
          "name": "eta",
          "type": "uint256"
        }
      ],
      "name": "cancelTransaction",
      "outputs": [],
      "stateMutability": "nonpayable",
      "type": "function"
    },
    {
      "inputs": [],
      "name": "delay",
      "outputs": [
        {
          "internalType": "uint256",
          "name": "",
          "type": "uint256"
        }
      ],
      "stateMutability": "view",
      "type": "function"
    },
    {
      "inputs": [
        {
          "internalType": "address",
          "name": "target",
          "type": "address"
        },
        {
          "internalType": "uint256",
          "name": "value",
          "type": "uint256"
        },
        {
          "internalType": "string",
          "name": "signature",
          "type": "string"
        },
        {
          "internalType": "bytes",
          "name": "data",
          "type": "bytes"
        },
        {
          "internalType": "uint256",
          "name": "eta",
          "type": "uint256"
        }
      ],
      "name": "executeTransaction",
      "outputs": [],
      "stateMutability": "payable",
      "type": "function"
    },
    {
      "inputs": [
        {
          "internalType": "address",
          "name": "target",
          "type": "address"
        },
        {
          "internalType": "uint256",
          "name": "value",
          "type": "uint256"
        },
        {
          "internalType": "string",
          "name": "signature",
          "type": "string"
        },
        {
          "internalType": "bytes",
          "name": "data",
          "type": "bytes"
        },
        {
          "internalType": "uint256",
          "name": "eta",
          "type": "uint256"
        }
      ],
      "name": "queueTransaction",
      "outputs": [
        {
          "internalType": "bytes32",
          "name": "",
          "type": "bytes32"
        }
      ],
      "stateMutability": "nonpayable",
      "type": "function"
    },
    {
      "inputs": [
        {
          "internalType": "bytes32",
          "name": "",
          "type": "bytes32"
        }
      ],
      "name": "queuedTransactions",
      "outputs": [
        {
          "internalType": "bool",
          "name": "",
          "type": "bool"
        }
      ],
      "stateMutability": "view",
      "type": "function"
    },
    {
      "inputs": [
        {
          "internalType": "uint256",
          "name": "delay_",
          "type": "uint256"
        }
      ],
      "name": "setDelay",
      "outputs": [],
      "stateMutability": "nonpayable",
      "type": "function"
    },
    {
      "stateMutability": "payable",
      "type": "receive"
    },
    {
      "inputs": [
        {
          "internalType": "address",
          "name": "token",
          "type": "address"
        },
        {
          "internalType": "uint256",
          "name": "amount",
          "type": "uint256"
        }
      ],
      "name": "deposit",
      "outputs": [],
      "stateMutability": "nonpayable",
      "type": "function"
    },
    {
      "inputs": [
        {
          "internalType": "address",
          "name": "token",
          "type": "address"
        },
        {
          "internalType": "uint256",
          "name": "amount",
          "type": "uint256"
        },
        {
          "components": [
            {
              "internalType": "address",
              "name": "receivingToken",
              "type": "address"
            },
            {
              "components": [
                {
                  "internalType": "address",
                  "name": "router",
                  "type": "address"
                },
                {
                  "internalType": "bytes",
                  "name": "input",
                  "type": "bytes"
                }
              ],
              "internalType": "struct SFarm.paramExec[]",
              "name": "execs",
              "type": "tuple[]"
            }
          ],
          "internalType": "struct SFarm.paramRL[]",
          "name": "rls",
          "type": "tuple[]"
        }
      ],
      "name": "withdraw",
      "outputs": [],
      "stateMutability": "nonpayable",
      "type": "function"
    },
    {
      "inputs": [
        {
          "internalType": "uint256",
          "name": "scale",
          "type": "uint256"
        }
      ],
      "name": "harvest",
      "outputs": [
        {
          "internalType": "uint256",
          "name": "earn",
          "type": "uint256"
        }
      ],
      "stateMutability": "nonpayable",
      "type": "function"
    },
    {
      "inputs": [
        {
          "internalType": "address",
          "name": "receivingToken",
          "type": "address"
        },
        {
          "internalType": "address",
          "name": "router",
          "type": "address"
        },
        {
          "internalType": "bytes",
          "name": "input",
          "type": "bytes"
        }
      ],
      "name": "farmerExec",
      "outputs": [],
      "stateMutability": "nonpayable",
      "type": "function"
    },
    {
      "inputs": [
        {
          "internalType": "address",
          "name": "router",
          "type": "address"
        },
        {
          "internalType": "bytes",
          "name": "input",
          "type": "bytes"
        },
        {
          "internalType": "address[]",
          "name": "tokens",
          "type": "address[]"
        }
      ],
      "name": "farmerProcessOutstandingToken",
      "outputs": [],
      "stateMutability": "nonpayable",
      "type": "function"
    },
    {
      "inputs": [
        {
          "internalType": "address",
          "name": "recipient",
          "type": "address"
        },
        {
          "internalType": "uint256",
          "name": "rate",
          "type": "uint256"
        }
      ],
      "name": "setSubsidy",
      "outputs": [],
      "stateMutability": "nonpayable",
      "type": "function"
    },
    {
      "inputs": [
        {
          "internalType": "address[]",
          "name": "tokens",
          "type": "address[]"
        },
        {
          "internalType": "address[]",
          "name": "routers",
          "type": "address[]"
        },
        {
          "internalType": "uint256",
          "name": "amount",
          "type": "uint256"
        }
      ],
      "name": "approve",
      "outputs": [],
      "stateMutability": "nonpayable",
      "type": "function"
    },
    {
      "inputs": [
        {
          "internalType": "bytes32[]",
          "name": "changes",
          "type": "bytes32[]"
        }
      ],
      "name": "authorizeAdmins",
      "outputs": [],
      "stateMutability": "nonpayable",
      "type": "function"
    },
    {
      "inputs": [
        {
          "internalType": "bytes32[]",
          "name": "changes",
          "type": "bytes32[]"
        }
      ],
      "name": "authorizeFarmers",
      "outputs": [],
      "stateMutability": "nonpayable",
      "type": "function"
    },
    {
      "inputs": [
        {
          "internalType": "bytes32[]",
          "name": "changes",
          "type": "bytes32[]"
        }
      ],
      "name": "authorizeRouters",
      "outputs": [],
      "stateMutability": "nonpayable",
      "type": "function"
    },
    {
      "inputs": [
        {
          "internalType": "bytes32[]",
          "name": "changes",
          "type": "bytes32[]"
        }
      ],
      "name": "authorizeTokens",
      "outputs": [],
      "stateMutability": "nonpayable",
      "type": "function"
    },
    {
      "inputs": [
        {
          "internalType": "bytes32[]",
          "name": "changes",
          "type": "bytes32[]"
        }
      ],
      "name": "authorizeWithdrawalFuncs",
      "outputs": [],
      "stateMutability": "nonpayable",
      "type": "function"
    },
    {
      "inputs": [
        {
          "internalType": "address",
          "name": "a",
          "type": "address"
        }
      ],
      "name": "query",
      "outputs": [
        {
          "internalType": "uint256",
          "name": "stake",
          "type": "uint256"
        },
        {
          "internalType": "uint256",
          "name": "value",
          "type": "uint256"
        },
        {
          "internalType": "uint256",
          "name": "totalStake",
          "type": "uint256"
        },
        {
          "internalType": "uint256",
          "name": "totalValue",
          "type": "uint256"
        }
      ],
      "stateMutability": "view",
      "type": "function"
    },
    {
      "inputs": [],
      "name": "queryConfig",
      "outputs": [
        {
          "internalType": "uint256",
          "name": "delay_",
          "type": "uint256"
        },
        {
          "internalType": "address",
          "name": "earnToken_",
          "type": "address"
        },
        {
          "internalType": "uint256",
          "name": "subsidyRate_",
          "type": "uint256"
        },
        {
          "internalType": "address",
          "name": "subsidyRecipient_",
          "type": "address"
        },
        {
          "internalType": "uint256",
          "name": "stakeTokensCount_",
          "type": "uint256"
        }
      ],
      "stateMutability": "view",
      "type": "function"
    }
  ],
  "bytecode": "0x60806040523480156200001157600080fd5b50604051620058893803806200588983398101604081905262000034916200019d565b806202a300811015620000645760405162461bcd60e51b81526004016200005b90620001f1565b60405180910390fd5b62278d008111156200008a5760405162461bcd60e51b81526004016200005b9062000285565b600055670de0b6b3a76400008210620000b75760405162461bcd60e51b81526004016200005b906200024e565b60028054600160a01b600160e01b031916600160a01b6001600160401b038516021790556001600160a01b038316620000ee573392505b600380546001600160a01b038086166001600160a01b0319928316811790935560008381526005602052604090819020805460ff1916600190811790915560028054938a16939094169290921790925590517f9f2a093206efd0cf9bfd4b196198ff63477b0fb72075b86fb6c326e9b992c6c8916200016d91620001e6565b60405180910390a250505050620002e2565b80516001600160a01b03811681146200019757600080fd5b92915050565b60008060008060808587031215620001b3578384fd5b620001bf86866200017f565b9350620001d086602087016200017f565b6040860151606090960151949790965092505050565b901515815260200190565b60208082526037908201527f54696d656c6f636b3a3a636f6e7374727563746f723a2044656c6179206d757360408201527f7420657863656564206d696e696d756d2064656c61792e000000000000000000606082015260800190565b60208082526014908201527f7375627369647952617465206f766572666c6f77000000000000000000000000604082015260600190565b60208082526038908201527f54696d656c6f636b3a3a73657444656c61793a2044656c6179206d757374206e60408201527f6f7420657863656564206d6178696d756d2064656c61792e0000000000000000606082015260800190565b61559780620002f26000396000f3fe6080604052600436106101845760003560e01c80637d645fab116100d6578063d4fc9fc61161007f578063e68f909d11610059578063e68f909d14610438578063eb63a3d51461045e578063f2b065371461047e576101c4565b8063d4fc9fc6146103c8578063ddc63262146103f8578063e177246e14610418576101c4565b8063c1a287e2116100b0578063c1a287e214610373578063d296215214610388578063d3af0792146103a8576101c4565b80637d645fab146103295780639999d6161461033e578063b1b43ae51461035e576101c4565b806347e7ef2411610138578063596412b311610112578063596412b3146102d45780636a42b8f8146102f457806376f9530114610309576101c4565b806347e7ef241461027457806350658dad14610294578063591fcdfe146102b4576101c4565b806323ebd04f1161016957806323ebd04f146101fe57806326cab58f1461021e5780633a66f9011461023e576101c4565b80630825f38f146101c9578063222da3cf146101de576101c4565b366101c4576040517f08c379a00000000000000000000000000000000000000000000000000000000081526004016101bb90615119565b60405180910390fd5b600080fd5b6101dc6101d736600461482e565b6104ab565b005b3480156101ea57600080fd5b506101dc6101f9366004614923565b610770565b34801561020a57600080fd5b506101dc610219366004614923565b6109ca565b34801561022a57600080fd5b506101dc6102393660046148b2565b610c0a565b34801561024a57600080fd5b5061025e61025936600461482e565b610e5c565b60405161026b9190614b4e565b60405180910390f35b34801561028057600080fd5b506101dc61028f3660046147b7565b610fe2565b3480156102a057600080fd5b506101dc6102af3660046146d5565b6112c8565b3480156102c057600080fd5b506101dc6102cf36600461482e565b61169e565b3480156102e057600080fd5b506101dc6102ef366004614923565b6117ca565b34801561030057600080fd5b5061025e611a41565b34801561031557600080fd5b506101dc610324366004614923565b611a47565b34801561033557600080fd5b5061025e611d02565b34801561034a57600080fd5b506101dc6103593660046147b7565b611d09565b34801561036a57600080fd5b5061025e611ee8565b34801561037f57600080fd5b5061025e611eef565b34801561039457600080fd5b506101dc6103a33660046147e1565b611ef6565b3480156103b457600080fd5b506101dc6103c3366004614923565b612c7b565b3480156103d457600080fd5b506103e86103e33660046146b3565b612eee565b60405161026b94939291906154dc565b34801561040457600080fd5b5061025e610413366004614983565b6130c5565b34801561042457600080fd5b506101dc610433366004614983565b613641565b34801561044457600080fd5b5061044d613734565b60405161026b959493929190615456565b34801561046a57600080fd5b506101dc610479366004614738565b613784565b34801561048a57600080fd5b5061049e610499366004614983565b613c99565b60405161026b9190614b43565b3360009081526005602052604090205460ff166104f4576040517f08c379a00000000000000000000000000000000000000000000000000000000081526004016101bb90614fe0565b6000858585858560405160200161050f959493929190614ae9565b604080517fffffffffffffffffffffffffffffffffffffffffffffffffffffffffffffffe081840301815291815281516020928301206000818152600190935291205490915060ff1661058e576040517f08c379a00000000000000000000000000000000000000000000000000000000081526004016101bb90615150565b81610597613cae565b10156105cf576040517f08c379a00000000000000000000000000000000000000000000000000000000081526004016101bb90614db8565b6105e2826212750063ffffffff613cb216565b6105ea613cae565b1115610622576040517f08c379a00000000000000000000000000000000000000000000000000000000081526004016101bb90614cc7565b600081815260016020526040902080547fffffffffffffffffffffffffffffffffffffffffffffffffffffffffffffff001690558351606090610666575082610692565b8480519060200120846040516020016106809291906149fd565b60405160208183030381529060405290505b60008773ffffffffffffffffffffffffffffffffffffffff1687836040516106ba9190614a55565b60006040518083038185875af1925050503d80600081146106f7576040519150601f19603f3d011682016040523d82523d6000602084013e6106fc565b606091505b50509050801561075c578773ffffffffffffffffffffffffffffffffffffffff16837fa560e3198060a2f10670c1ec5b403077ea6ae93ca8de1c32b451dc1a943cd6e7898989896040516107539493929190615491565b60405180910390a35b61076581613cf5565b5050505b5050505050565b3330146108625760408051808201909152600b5477ffffffffffffffffffffffffffffffffffffffffffffffff811682527801000000000000000000000000000000000000000000000000900467ffffffffffffffff16602082015269021e19e0c9bab2400000906107e190613d0c565b1115610819576040517f08c379a00000000000000000000000000000000000000000000000000000000081526004016101bb906153e8565b3360009081526005602052604090205460ff16610862576040517f08c379a00000000000000000000000000000000000000000000000000000000081526004016101bb90614fe0565b600760005b828110156109c457600084848381811061087d57fe5b602002919091013560601c915050308114156108c5576040517f08c379a00000000000000000000000000000000000000000000000000000000081526004016101bb90614f3b565b6000838686858181106108d457fe5b9050602002013560001c16905080600860008473ffffffffffffffffffffffffffffffffffffffff1673ffffffffffffffffffffffffffffffffffffffff16815260200190815260200160002054141561095a576040517f08c379a00000000000000000000000000000000000000000000000000000000081526004016101bb90615252565b73ffffffffffffffffffffffffffffffffffffffff821660008181526008602052604090819020839055517fa15b8110a6fcdec2df48ef83fd2394988b05b4e18d3b03528c020f22ed01418a906109b2908490614b4e565b60405180910390a25050600101610867565b50505050565b333014610abc5760408051808201909152600b5477ffffffffffffffffffffffffffffffffffffffffffffffff811682527801000000000000000000000000000000000000000000000000900467ffffffffffffffff16602082015269021e19e0c9bab240000090610a3b90613d0c565b1115610a73576040517f08c379a00000000000000000000000000000000000000000000000000000000081526004016101bb906153e8565b3360009081526005602052604090205460ff16610abc576040517f08c379a00000000000000000000000000000000000000000000000000000000081526004016101bb90614fe0565b60005b81811015610c05576000838383818110610ad557fe5b9050602002013560601c9050600080858585818110610af057fe5b73ffffffffffffffffffffffffffffffffffffffff8616600090815260066020908152604090912054910292909201356bffffffffffffffffffffffff1692909211925060ff1615158214159050610b74576040517f08c379a00000000000000000000000000000000000000000000000000000000081526004016101bb90614c22565b73ffffffffffffffffffffffffffffffffffffffff82166000818152600660205260409081902080547fffffffffffffffffffffffffffffffffffffffffffffffffffffffffffffff0016841515179055517ff34010570b871c11ed8fb2fbcfc5ee7344a8c24c82654b2c69ed935f6230447990610bf3908490614b43565b60405180910390a25050600101610abf565b505050565b333014610cfc5760408051808201909152600b5477ffffffffffffffffffffffffffffffffffffffffffffffff811682527801000000000000000000000000000000000000000000000000900467ffffffffffffffff16602082015269021e19e0c9bab240000090610c7b90613d0c565b1115610cb3576040517f08c379a00000000000000000000000000000000000000000000000000000000081526004016101bb906153e8565b3360009081526005602052604090205460ff16610cfc576040517f08c379a00000000000000000000000000000000000000000000000000000000081526004016101bb90614fe0565b60005b82811015610e54576000848483818110610d1557fe5b9050602002016020610d2a91908101906146b3565b73ffffffffffffffffffffffffffffffffffffffff8116600090815260086020526040902054909150610d89576040517f08c379a00000000000000000000000000000000000000000000000000000000081526004016101bb906151e4565b60005b86811015610e4a57878782818110610da057fe5b9050602002016020610db591908101906146b3565b73ffffffffffffffffffffffffffffffffffffffff1663095ea7b383866040518363ffffffff1660e01b8152600401610def929190614ac3565b602060405180830381600087803b158015610e0957600080fd5b505af1158015610e1d573d6000803e3d6000fd5b505050506040513d601f19601f82011682018060405250610e419190810190614963565b50600101610d8c565b5050600101610cff565b505050505050565b3360009081526005602052604081205460ff16610ea5576040517f08c379a00000000000000000000000000000000000000000000000000000000081526004016101bb90614fe0565b610ebf600054610eb3613cae565b9063ffffffff613cb216565b821015610ef8576040517f08c379a00000000000000000000000000000000000000000000000000000000081526004016101bb9061532e565b60008686868686604051602001610f13959493929190614ae9565b604080517fffffffffffffffffffffffffffffffffffffffffffffffffffffffffffffffe0818403018152828252805160209182012060008181526001928390529290922080547fffffffffffffffffffffffffffffffffffffffffffffffffffffffffffffff00169091179055915073ffffffffffffffffffffffffffffffffffffffff88169082907f76e2796dc3a81d57b0e8504b647febcbeeb5f4af818e164f11eef8131a6a763f90610fd0908a908a908a908a90615491565b60405180910390a39695505050505050565b81610fec81613d57565b611022576040517f08c379a00000000000000000000000000000000000000000000000000000000081526004016101bb906152c0565b6040517f23b872dd00000000000000000000000000000000000000000000000000000000815273ffffffffffffffffffffffffffffffffffffffff8416906323b872dd9061107890339030908790600401614a92565b602060405180830381600087803b15801561109257600080fd5b505af11580156110a6573d6000803e3d6000fd5b505050506040513d601f19601f820116820180604052506110ca9190810190614963565b5060408051808201909152600b5477ffffffffffffffffffffffffffffffffffffffffffffffff811682527801000000000000000000000000000000000000000000000000900467ffffffffffffffff16602082015261112a9083613d83565b8051600b805460209384015167ffffffffffffffff908116780100000000000000000000000000000000000000000000000090810277ffffffffffffffffffffffffffffffffffffffffffffffff9586167fffffffffffffffff00000000000000000000000000000000000000000000000090941693909317851692909217909255336000908152600a85526040908190208151808301909252549384168152920416918101919091526111e4908363ffffffff613d8316565b336000818152600a602090815260409182902084518154959092015167ffffffffffffffff1678010000000000000000000000000000000000000000000000000277ffffffffffffffffffffffffffffffffffffffffffffffff9283167fffffffffffffffff0000000000000000000000000000000000000000000000009096169590951790911693909317909255905173ffffffffffffffffffffffffffffffffffffffff851691907f5548c837ab068cf56a2c2479df0882a4922fd203edb7517321831d95078c5f62906112bb908690614b4e565b60405180910390a3505050565b3360009081526006602052604090205460ff16611311576040517f08c379a00000000000000000000000000000000000000000000000000000000081526004016101bb9061521b565b73ffffffffffffffffffffffffffffffffffffffff831660009081526008602052604090205461134081614009565b611376576040517f08c379a00000000000000000000000000000000000000000000000000000000081526004016101bb906151e4565b73ffffffffffffffffffffffffffffffffffffffff851661144f5761139a81614011565b6113d0576040517f08c379a00000000000000000000000000000000000000000000000000000000081526004016101bb90614d24565b60008473ffffffffffffffffffffffffffffffffffffffff1684846040516113f9929190614a45565b6000604051808303816000865af19150503d8060008114611436576040519150601f19603f3d011682016040523d82523d6000602084013e61143b565b606091505b5050905061144881613cf5565b50506109c4565b61145885614019565b61148e576040517f08c379a00000000000000000000000000000000000000000000000000000000081526004016101bb90614ea7565b6040517f70a0823100000000000000000000000000000000000000000000000000000000815260009073ffffffffffffffffffffffffffffffffffffffff8716906370a08231906114e3903090600401614a71565b60206040518083038186803b1580156114fb57600080fd5b505afa15801561150f573d6000803e3d6000fd5b505050506040513d601f19601f82011682018060405250611533919081019061499b565b905060008573ffffffffffffffffffffffffffffffffffffffff16858560405161155e929190614a45565b6000604051808303816000865af19150503d806000811461159b576040519150601f19603f3d011682016040523d82523d6000602084013e6115a0565b606091505b50509050806115ba576115b281613cf5565b5050506109c4565b6040517f70a08231000000000000000000000000000000000000000000000000000000008152829073ffffffffffffffffffffffffffffffffffffffff8916906370a082319061160e903090600401614a71565b60206040518083038186803b15801561162657600080fd5b505afa15801561163a573d6000803e3d6000fd5b505050506040513d601f19601f8201168201806040525061165e919081019061499b565b11611695576040517f08c379a00000000000000000000000000000000000000000000000000000000081526004016101bb906152f7565b50505050505050565b3360009081526005602052604090205460ff166116e7576040517f08c379a00000000000000000000000000000000000000000000000000000000081526004016101bb90614fe0565b60008585858585604051602001611702959493929190614ae9565b604080517fffffffffffffffffffffffffffffffffffffffffffffffffffffffffffffffe081840301815282825280516020918201206000818152600190925291902080547fffffffffffffffffffffffffffffffffffffffffffffffffffffffffffffff00169055915073ffffffffffffffffffffffffffffffffffffffff87169082907f2fffc091a501fd91bfbff27141450d3acb40fb8e6d8382b243ec7a812a3aaf87906117ba908990899089908990615491565b60405180910390a3505050505050565b3330146118bc5760408051808201909152600b5477ffffffffffffffffffffffffffffffffffffffffffffffff811682527801000000000000000000000000000000000000000000000000900467ffffffffffffffff16602082015269021e19e0c9bab24000009061183b90613d0c565b1115611873576040517f08c379a00000000000000000000000000000000000000000000000000000000081526004016101bb906153e8565b3360009081526005602052604090205460ff166118bc576040517f08c379a00000000000000000000000000000000000000000000000000000000081526004016101bb90614fe0565b60005b81811015610c055760008383838181106118d557fe5b602002919091013560601c9150503381141561191d576040517f08c379a00000000000000000000000000000000000000000000000000000000081526004016101bb9061504e565b60008085858581811061192c57fe5b73ffffffffffffffffffffffffffffffffffffffff8616600090815260056020908152604090912054910292909201356bffffffffffffffffffffffff1692909211925060ff16151582141590506119b0576040517f08c379a00000000000000000000000000000000000000000000000000000000081526004016101bb90614c22565b73ffffffffffffffffffffffffffffffffffffffff82166000818152600560205260409081902080547fffffffffffffffffffffffffffffffffffffffffffffffffffffffffffffff0016841515179055517f9f2a093206efd0cf9bfd4b196198ff63477b0fb72075b86fb6c326e9b992c6c890611a2f908490614b43565b60405180910390a250506001016118bf565b60005481565b333014611b395760408051808201909152600b5477ffffffffffffffffffffffffffffffffffffffffffffffff811682527801000000000000000000000000000000000000000000000000900467ffffffffffffffff16602082015269021e19e0c9bab240000090611ab890613d0c565b1115611af0576040517f08c379a00000000000000000000000000000000000000000000000000000000081526004016101bb906153e8565b3360009081526005602052604090205460ff16611b39576040517f08c379a00000000000000000000000000000000000000000000000000000000081526004016101bb90614fe0565b600660005b828110156109c4576000848483818110611b5457fe5b602002919091013560601c91505030811415611b9c576040517f08c379a00000000000000000000000000000000000000000000000000000000081526004016101bb90614f3b565b6000858584818110611baa57fe5b9050602002013560001c60a01b9050600084878786818110611bc857fe5b73ffffffffffffffffffffffffffffffffffffffff871660009081526009602090815260408083207fffffffff000000000000000000000000000000000000000000000000000000008a168452825290912054910292909201359290921692508214159050611c63576040517f08c379a00000000000000000000000000000000000000000000000000000000081526004016101bb90615252565b73ffffffffffffffffffffffffffffffffffffffff831660008181526009602090815260408083207fffffffff00000000000000000000000000000000000000000000000000000000871680855292529182902084905590519091907f096b0e8ebc1569dc4e7407479a63ddf5f833ffc3251b2368a5b61f13256d06c990611cec908590614b4e565b60405180910390a3505050806001019050611b3e565b62278d0081565b333014611dfb5760408051808201909152600b5477ffffffffffffffffffffffffffffffffffffffffffffffff811682527801000000000000000000000000000000000000000000000000900467ffffffffffffffff16602082015269021e19e0c9bab240000090611d7a90613d0c565b1115611db2576040517f08c379a00000000000000000000000000000000000000000000000000000000081526004016101bb906153e8565b3360009081526005602052604090205460ff16611dfb576040517f08c379a00000000000000000000000000000000000000000000000000000000081526004016101bb90614fe0565b670de0b6b3a76400008110611e3c576040517f08c379a00000000000000000000000000000000000000000000000000000000081526004016101bb90614fa9565b600280547fffffffff0000000000000000ffffffffffffffffffffffffffffffffffffffff167401000000000000000000000000000000000000000067ffffffffffffffff84160217905573ffffffffffffffffffffffffffffffffffffffff821615611ee457600380547fffffffffffffffffffffffff00000000000000000000000000000000000000001673ffffffffffffffffffffffffffffffffffffffff84161790555b5050565b6202a30081565b6212750081565b83611f0081613d57565b611f36576040517f08c379a00000000000000000000000000000000000000000000000000000000081526004016101bb906152c0565b336000908152600a602090815260409182902082518084019093525477ffffffffffffffffffffffffffffffffffffffffffffffff811683527801000000000000000000000000000000000000000000000000900467ffffffffffffffff1690820152611fa39085614045565b336000908152600a602090815260409182902083518154948301517fffffffffffffffff00000000000000000000000000000000000000000000000090951677ffffffffffffffffffffffffffffffffffffffffffffffff918216178116780100000000000000000000000000000000000000000000000067ffffffffffffffff9687168102919091179092558351808501909452600b54908116845204909216918101919091526120559085614045565b8051600b805460209384015167ffffffffffffffff1678010000000000000000000000000000000000000000000000000277ffffffffffffffffffffffffffffffffffffffffffffffff9384167fffffffffffffffff0000000000000000000000000000000000000000000000009092169190911790921691909117905560408051848152848302810190920190526060908380156120fe578160200160208202803883390190505b50905060005b83811015612a0c57600085858381811061211a57fe5b6020028201905080357fffffffffffffffffffffffffffffffffffffffffffffffffffffffffffffffc13684900301811261215457600080fd5b61216492016020810191506146b3565b905073ffffffffffffffffffffffffffffffffffffffff81161561227c5761218b81614019565b6121c1576040517f08c379a00000000000000000000000000000000000000000000000000000000081526004016101bb90614ea7565b6040517f70a0823100000000000000000000000000000000000000000000000000000000815273ffffffffffffffffffffffffffffffffffffffff8216906370a0823190612213903090600401614a71565b60206040518083038186803b15801561222b57600080fd5b505afa15801561223f573d6000803e3d6000fd5b505050506040513d601f19601f82011682018060405250612263919081019061499b565b83838151811061226f57fe5b6020026020010181815250505b60005b86868481811061228b57fe5b6020028201905080357fffffffffffffffffffffffffffffffffffffffffffffffffffffffffffffffc1368490030181126122c557600080fd5b9190910190506020810180357fffffffffffffffffffffffffffffffffffffffffffffffffffffffffffffffe13684900301811261230257600080fd5b9091016020810191503567ffffffffffffffff81111561232157600080fd5b60208102360382131561233357600080fd5b9050811015612a0257600087878581811061234a57fe5b6020028201905080357fffffffffffffffffffffffffffffffffffffffffffffffffffffffffffffffc13684900301811261238457600080fd5b9190910190506020810180357fffffffffffffffffffffffffffffffffffffffffffffffffffffffffffffffe1368490030181126123c157600080fd5b9091016020810191503567ffffffffffffffff8111156123e057600080fd5b6020810236038213156123f257600080fd5b858181106123fc57fe5b6020028201905080357fffffffffffffffffffffffffffffffffffffffffffffffffffffffffffffffc13684900301811261243657600080fd5b61244692016020810191506146b3565b73ffffffffffffffffffffffffffffffffffffffff8116600090815260096020526040812091925090816126118b8b8981811061247f57fe5b6020028201905080357fffffffffffffffffffffffffffffffffffffffffffffffffffffffffffffffc1368490030181126124b957600080fd5b9190910190506020810180357fffffffffffffffffffffffffffffffffffffffffffffffffffffffffffffffe1368490030181126124f657600080fd5b9091016020810191503567ffffffffffffffff81111561251557600080fd5b60208102360382131561252757600080fd5b8781811061253157fe5b6020028201905080357fffffffffffffffffffffffffffffffffffffffffffffffffffffffffffffffc13684900301811261256b57600080fd5b9190910190506020810180357fffffffffffffffffffffffffffffffffffffffffffffffffffffffffffffffe1368490030181126125a857600080fd5b9091016020810191503567ffffffffffffffff8111156125c757600080fd5b368190038213156125d757600080fd5b8080601f01602080910402602001604051908101604052809392919081815260200183838082843760009201919091525061428492505050565b7fffffffff00000000000000000000000000000000000000000000000000000000168152602081019190915260400160002054905061264f81614009565b612685576040517f08c379a00000000000000000000000000000000000000000000000000000000081526004016101bb90615289565b73ffffffffffffffffffffffffffffffffffffffff84166126df576126a981614011565b6126df576040517f08c379a00000000000000000000000000000000000000000000000000000000081526004016101bb90614d24565b60008273ffffffffffffffffffffffffffffffffffffffff168a8a8881811061270457fe5b6020028201905080357fffffffffffffffffffffffffffffffffffffffffffffffffffffffffffffffc13684900301811261273e57600080fd5b9190910190506020810180357fffffffffffffffffffffffffffffffffffffffffffffffffffffffffffffffe13684900301811261277b57600080fd5b9091016020810191503567ffffffffffffffff81111561279a57600080fd5b6020810236038213156127ac57600080fd5b868181106127b657fe5b6020028201905080357fffffffffffffffffffffffffffffffffffffffffffffffffffffffffffffffc1368490030181126127f057600080fd5b9190910190506020810180357fffffffffffffffffffffffffffffffffffffffffffffffffffffffffffffffe13684900301811261282d57600080fd5b9091016020810191503567ffffffffffffffff81111561284c57600080fd5b3681900382131561285c57600080fd5b60405161286a929190614a45565b6000604051808303816000865af19150503d80600081146128a7576040519150601f19603f3d011682016040523d82523d6000602084013e6128ac565b606091505b50509050806128ca576128be81613cf5565b50505050505050610769565b73ffffffffffffffffffffffffffffffffffffffff8516156129f4576040517f70a0823100000000000000000000000000000000000000000000000000000000815260009073ffffffffffffffffffffffffffffffffffffffff8716906370a082319061293b903090600401614a71565b60206040518083038186803b15801561295357600080fd5b505afa158015612967573d6000803e3d6000fd5b505050506040513d601f19601f8201168201806040525061298b919081019061499b565b905087878151811061299957fe5b602002602001015181116129d9576040517f08c379a00000000000000000000000000000000000000000000000000000000081526004016101bb906152f7565b808888815181106129e657fe5b602002602001018181525050505b50505080600101905061227f565b5050600101612104565b506040517fa9059cbb00000000000000000000000000000000000000000000000000000000815273ffffffffffffffffffffffffffffffffffffffff87169063a9059cbb90612a619033908990600401614ac3565b602060405180830381600087803b158015612a7b57600080fd5b505af1158015612a8f573d6000803e3d6000fd5b505050506040513d601f19601f82011682018060405250612ab39190810190614963565b5060005b83811015612c1d576000858583818110612acd57fe5b6020028201905080357fffffffffffffffffffffffffffffffffffffffffffffffffffffffffffffffc136849003018112612b0757600080fd5b612b1792016020810191506146b3565b905073ffffffffffffffffffffffffffffffffffffffff811615612c14576064838381518110612b4357fe5b602002602001015181612b5257fe5b048173ffffffffffffffffffffffffffffffffffffffff166370a08231306040518263ffffffff1660e01b8152600401612b8c9190614a71565b60206040518083038186803b158015612ba457600080fd5b505afa158015612bb8573d6000803e3d6000fd5b505050506040513d601f19601f82011682018060405250612bdc919081019061499b565b1115612c14576040517f08c379a00000000000000000000000000000000000000000000000000000000081526004016101bb90615017565b50600101612ab7565b508573ffffffffffffffffffffffffffffffffffffffff163373ffffffffffffffffffffffffffffffffffffffff167f9b1bfa7fa9ee420a16e124f794c35ac9f90472acc99140eb2f6447c714cad8eb876040516117ba9190614b4e565b333014612d6d5760408051808201909152600b5477ffffffffffffffffffffffffffffffffffffffffffffffff811682527801000000000000000000000000000000000000000000000000900467ffffffffffffffff16602082015269021e19e0c9bab240000090612cec90613d0c565b1115612d24576040517f08c379a00000000000000000000000000000000000000000000000000000000081526004016101bb906153e8565b3360009081526005602052604090205460ff16612d6d576040517f08c379a00000000000000000000000000000000000000000000000000000000081526004016101bb90614fe0565b60005b81811015610c05576000838383818110612d8657fe5b9050602002013560601c90506000848484818110612da057fe5b73ffffffffffffffffffffffffffffffffffffffff8516600090815260076020908152604090912054910292909201359250506bffffffffffffffffffffffff8216811415612e1b576040517f08c379a00000000000000000000000000000000000000000000000000000000081526004016101bb906151ad565b6002826bffffffffffffffffffffffff161415612e4057600480546001019055612e72565b6002811415612e7257600480547fffffffffffffffffffffffffffffffffffffffffffffffffffffffffffffffff0190555b73ffffffffffffffffffffffffffffffffffffffff8316600081815260076020526040908190206bffffffffffffffffffffffff85169055517f1464b325679b3d6e47425f6f128fa127a13e437cd0614dc73559bf67ab24f08d90612ed89085906154f7565b60405180910390a2505050806001019050612d70565b73ffffffffffffffffffffffffffffffffffffffff81166000908152600a6020908152604080832081518083019092525477ffffffffffffffffffffffffffffffffffffffffffffffff811682527801000000000000000000000000000000000000000000000000900467ffffffffffffffff1691810191909152819081908190612f7890613d0c565b73ffffffffffffffffffffffffffffffffffffffff86166000908152600a602090815260409182902082518084019093525477ffffffffffffffffffffffffffffffffffffffffffffffff811683527801000000000000000000000000000000000000000000000000900467ffffffffffffffff1690820152612ffa9061428b565b60408051808201909152600b5477ffffffffffffffffffffffffffffffffffffffffffffffff811682527801000000000000000000000000000000000000000000000000900467ffffffffffffffff16602082015261305890613d0c565b60408051808201909152600b5477ffffffffffffffffffffffffffffffffffffffffffffffff811682527801000000000000000000000000000000000000000000000000900467ffffffffffffffff1660208201526130b69061428b565b93509350935093509193509193565b60006130cf614553565b50336000908152600a6020908152604080832081518083019092525477ffffffffffffffffffffffffffffffffffffffffffffffff811682527801000000000000000000000000000000000000000000000000900467ffffffffffffffff16918101919091529061313f8261432b565b60408051808201909152600b5477ffffffffffffffffffffffffffffffffffffffffffffffff811682527801000000000000000000000000000000000000000000000000900467ffffffffffffffff1660208201529091506000906131a39061432b565b90506131b5838363ffffffff6143af16565b336000908152600a602090815260409182902083518154948301517fffffffffffffffff00000000000000000000000000000000000000000000000090951677ffffffffffffffffffffffffffffffffffffffffffffffff918216178116780100000000000000000000000000000000000000000000000067ffffffffffffffff9687168102919091179092558351808501909452600b549081168452049092169181019190915261326790836143af565b8051600b805460209093015167ffffffffffffffff1678010000000000000000000000000000000000000000000000000277ffffffffffffffffffffffffffffffffffffffffffffffff9283167fffffffffffffffff000000000000000000000000000000000000000000000000909416939093179091169190911790556002546040517f70a0823100000000000000000000000000000000000000000000000000000000815260009173ffffffffffffffffffffffffffffffffffffffff16906370a082319061333c903090600401614a71565b60206040518083038186803b15801561335457600080fd5b505afa158015613368573d6000803e3d6000fd5b505050506040513d601f19601f8201168201806040525061338c919081019061499b565b90508561339857600195505b8281116133bf576133ba8684816133ab57fe5b8391900463ffffffff6144bd16565b6133da565b6133da8682816133cb57fe5b8591900463ffffffff6144bd16565b905060006133f8878484816133eb57fe5b049063ffffffff6144bd16565b9050600061344c8885670de0b6b3a764000061343d600260149054906101000a900467ffffffffffffffff1667ffffffffffffffff16886144bd90919063ffffffff16565b8161344457fe5b04816133eb57fe5b9050600081118015613475575060035473ffffffffffffffffffffffffffffffffffffffff1615155b1561352a576002546003546040517fa9059cbb00000000000000000000000000000000000000000000000000000000815273ffffffffffffffffffffffffffffffffffffffff9283169263a9059cbb926134d6929116908590600401614ac3565b602060405180830381600087803b1580156134f057600080fd5b505af1158015613504573d6000803e3d6000fd5b505050506040513d601f19601f820116820180604052506135289190810190614963565b505b61353a828263ffffffff61450e16565b6002546040517fa9059cbb00000000000000000000000000000000000000000000000000000000815291985073ffffffffffffffffffffffffffffffffffffffff169063a9059cbb906135939033908b90600401614ac3565b602060405180830381600087803b1580156135ad57600080fd5b505af11580156135c1573d6000803e3d6000fd5b505050506040513d601f19601f820116820180604052506135e59190810190614963565b503373ffffffffffffffffffffffffffffffffffffffff167f71bab65ced2e5750775a0613be067df48ef06cf92a496ebf7663ae0660924954888360405161362e9291906154ce565b60405180910390a2505050505050919050565b3360009081526005602052604090205460ff1661368a576040517f08c379a00000000000000000000000000000000000000000000000000000000081526004016101bb90614fe0565b6202a3008110156136c7576040517f08c379a00000000000000000000000000000000000000000000000000000000081526004016101bb90614ede565b62278d00811115613704576040517f08c379a00000000000000000000000000000000000000000000000000000000081526004016101bb906150bc565b600081815560405182917f948b1f6a42ee138b7e34058ba85a37f716d55ff25ff05a763f15bed6a04c8d2c91a250565b60005460025460035460045473ffffffffffffffffffffffffffffffffffffffff8084169367ffffffffffffffff7401000000000000000000000000000000000000000090910416921691929394565b3360009081526006602052604090205460ff166137cd576040517f08c379a00000000000000000000000000000000000000000000000000000000081526004016101bb9061521b565b6004548114613808576040517f08c379a00000000000000000000000000000000000000000000000000000000081526004016101bb906153b1565b73ffffffffffffffffffffffffffffffffffffffff85166000908152600860205260409020546138379061454b565b61386d576040517f08c379a00000000000000000000000000000000000000000000000000000000081526004016101bb906151e4565b6002546040517f70a0823100000000000000000000000000000000000000000000000000000000815260009173ffffffffffffffffffffffffffffffffffffffff16906370a08231906138c4903090600401614a71565b60206040518083038186803b1580156138dc57600080fd5b505afa1580156138f0573d6000803e3d6000fd5b505050506040513d601f19601f82011682018060405250613914919081019061499b565b905060008673ffffffffffffffffffffffffffffffffffffffff16868660405161393f929190614a45565b6000604051808303816000865af19150503d806000811461397c576040519150601f19603f3d011682016040523d82523d6000602084013e613981565b606091505b505090508061399a5761399381613cf5565b5050610769565b6002546040517f70a08231000000000000000000000000000000000000000000000000000000008152839173ffffffffffffffffffffffffffffffffffffffff16906370a08231906139f0903090600401614a71565b60206040518083038186803b158015613a0857600080fd5b505afa158015613a1c573d6000803e3d6000fd5b505050506040513d601f19601f82011682018060405250613a40919081019061499b565b11613a77576040517f08c379a00000000000000000000000000000000000000000000000000000000081526004016101bb90614c59565b6000805b84811015613c00576000868683818110613a9157fe5b9050602002016020613aa691908101906146b3565b905060005b82811015613b4157878782818110613abf57fe5b9050602002016020613ad491908101906146b3565b73ffffffffffffffffffffffffffffffffffffffff168273ffffffffffffffffffffffffffffffffffffffff161415613b39576040517f08c379a00000000000000000000000000000000000000000000000000000000081526004016101bb90614f72565b600101613aab565b506040517f70a08231000000000000000000000000000000000000000000000000000000008152613bf59073ffffffffffffffffffffffffffffffffffffffff8316906370a0823190613b98903090600401614a71565b60206040518083038186803b158015613bb057600080fd5b505afa158015613bc4573d6000803e3d6000fd5b505050506040513d601f19601f82011682018060405250613be8919081019061499b565b849063ffffffff613cb216565b925050600101613a7b565b5060408051808201909152600b5477ffffffffffffffffffffffffffffffffffffffffffffffff811682527801000000000000000000000000000000000000000000000000900467ffffffffffffffff1660208201528190613c6190613d0c565b1115610765576040517f08c379a00000000000000000000000000000000000000000000000000000000081526004016101bb9061541f565b60016020526000908152604090205460ff1681565b4290565b80820182811015613cef576040517f08c379a00000000000000000000000000000000000000000000000000000000081526004016101bb90614e70565b92915050565b3d806000803e818015613d0757816000f35b816000fd5b600067ffffffffffffffff826020015167ffffffffffffffff1614613d32578151613d35565b60005b77ffffffffffffffffffffffffffffffffffffffffffffffff1690505b919050565b73ffffffffffffffffffffffffffffffffffffffff166000908152600760205260409020546002111590565b613d8b614553565b60008067ffffffffffffffff856020015167ffffffffffffffff161415613df657839150613def62015180610eb386886000015177ffffffffffffffffffffffffffffffffffffffffffffffff1681613de057fe5b4291900463ffffffff61450e16565b9050613f36565b8451613e229077ffffffffffffffffffffffffffffffffffffffffffffffff168563ffffffff613cb216565b9150846020015167ffffffffffffffff164210613ea0576000613e8a866000015177ffffffffffffffffffffffffffffffffffffffffffffffff16613e7e886020015167ffffffffffffffff164261450e90919063ffffffff16565b9063ffffffff6144bd16565b9050613e98838281613de057fe5b915050613f06565b6000613ee5866000015177ffffffffffffffffffffffffffffffffffffffffffffffff16613e7e42896020015167ffffffffffffffff1661450e90919063ffffffff16565b9050613f02838281613ef357fe5b4291900463ffffffff613cb216565b9150505b613f3382613f1d620151808763ffffffff6144bd16565b81613f2457fe5b8391900463ffffffff613cb216565b90505b77ffffffffffffffffffffffffffffffffffffffffffffffff821115613f88576040517f08c379a00000000000000000000000000000000000000000000000000000000081526004016101bb90614b57565b67ffffffffffffffff811115613fca576040517f08c379a00000000000000000000000000000000000000000000000000000000081526004016101bb90614e3b565b6040805180820190915277ffffffffffffffffffffffffffffffffffffffffffffffff909216825267ffffffffffffffff166020820152905092915050565b600216151590565b600416151590565b73ffffffffffffffffffffffffffffffffffffffff166000908152600760205260409020546001111590565b61404d614553565b67ffffffffffffffff836020015167ffffffffffffffff161061409c576040517f08c379a00000000000000000000000000000000000000000000000000000000081526004016101bb90614bb4565b826020015167ffffffffffffffff164210156140e4576040517f08c379a00000000000000000000000000000000000000000000000000000000081526004016101bb90615085565b6000614129846000015177ffffffffffffffffffffffffffffffffffffffffffffffff16613e7e866020015167ffffffffffffffff164261450e90919063ffffffff16565b845190915060009061415b9077ffffffffffffffffffffffffffffffffffffffffffffffff168563ffffffff61450e16565b9050806141f25777ffffffffffffffffffffffffffffffffffffffffffffffff8211156141b4576040517f08c379a00000000000000000000000000000000000000000000000000000000081526004016101bb90614d81565b506040805180820190915277ffffffffffffffffffffffffffffffffffffffffffffffff909116815267ffffffffffffffff60208201529050613cef565b6000614200828481613de057fe5b905067ffffffffffffffff811115614244576040517f08c379a00000000000000000000000000000000000000000000000000000000081526004016101bb90614e3b565b6040805180820190915277ffffffffffffffffffffffffffffffffffffffffffffffff909216825267ffffffffffffffff16602082015291505092915050565b6020015190565b600067ffffffffffffffff826020015167ffffffffffffffff1614156142cd5750805177ffffffffffffffffffffffffffffffffffffffffffffffff16613d52565b816020015167ffffffffffffffff1642116142ea57506000613d52565b81516020830151613cef9177ffffffffffffffffffffffffffffffffffffffffffffffff1690613e7e90429067ffffffffffffffff1663ffffffff61450e16565b600067ffffffffffffffff826020015167ffffffffffffffff1614614390578151602083015161438b9177ffffffffffffffffffffffffffffffffffffffffffffffff1690613e7e90429067ffffffffffffffff1663ffffffff61450e16565b613cef565b505177ffffffffffffffffffffffffffffffffffffffffffffffff1690565b6143b7614553565b67ffffffffffffffff836020015167ffffffffffffffff1614156144225782516144019077ffffffffffffffffffffffffffffffffffffffffffffffff168363ffffffff61450e16565b77ffffffffffffffffffffffffffffffffffffffffffffffff1683526144b6565b6000614467846000015177ffffffffffffffffffffffffffffffffffffffffffffffff16613e7e866020015167ffffffffffffffff164261450e90919063ffffffff16565b84519091506000906144a49077ffffffffffffffffffffffffffffffffffffffffffffffff1661449d848763ffffffff61450e16565b81613de057fe5b67ffffffffffffffff16602086015250505b5090919050565b60008115806144d8575050808202828282816144d557fe5b04145b613cef576040517f08c379a00000000000000000000000000000000000000000000000000000000081526004016101bb90614c90565b80820382811115613cef576040517f08c379a00000000000000000000000000000000000000000000000000000000081526004016101bb90614beb565b600116151590565b604080518082019091526000808252602082015290565b803573ffffffffffffffffffffffffffffffffffffffff81168114613cef57600080fd5b60008083601f84011261459f578182fd5b50813567ffffffffffffffff8111156145b6578182fd5b60208301915083602080830285010111156145d057600080fd5b9250929050565b60008083601f8401126145e8578182fd5b50813567ffffffffffffffff8111156145ff578182fd5b6020830191508360208285010111156145d057600080fd5b600082601f830112614627578081fd5b813567ffffffffffffffff8082111561463e578283fd5b60405160207fffffffffffffffffffffffffffffffffffffffffffffffffffffffffffffffe0601f850116820101818110838211171561467c578485fd5b60405282815292508284830160200186101561469757600080fd5b8260208601602083013760006020848301015250505092915050565b6000602082840312156146c4578081fd5b6146ce838361456a565b9392505050565b600080600080606085870312156146ea578283fd5b84356146f58161553c565b935060208501356147058161553c565b9250604085013567ffffffffffffffff811115614720578283fd5b61472c878288016145d7565b95989497509550505050565b60008060008060006060868803121561474f578081fd5b614759878761456a565b9450602086013567ffffffffffffffff80821115614775578283fd5b61478189838a016145d7565b90965094506040880135915080821115614799578283fd5b506147a68882890161458e565b969995985093965092949392505050565b600080604083850312156147c9578182fd5b6147d3848461456a565b946020939093013593505050565b600080600080606085870312156147f6578384fd5b614800868661456a565b935060208501359250604085013567ffffffffffffffff811115614822578283fd5b61472c8782880161458e565b600080600080600060a08688031215614845578081fd5b61484f878761456a565b945060208601359350604086013567ffffffffffffffff80821115614872578283fd5b61487e89838a01614617565b94506060880135915080821115614893578283fd5b506148a088828901614617565b95989497509295608001359392505050565b6000806000806000606086880312156148c9578081fd5b853567ffffffffffffffff808211156148e0578283fd5b6148ec89838a0161458e565b90975095506020880135915080821115614904578283fd5b506149118882890161458e565b96999598509660400135949350505050565b60008060208385031215614935578182fd5b823567ffffffffffffffff81111561494b578283fd5b6149578582860161458e565b90969095509350505050565b600060208284031215614974578081fd5b815180151581146146ce578182fd5b600060208284031215614994578081fd5b5035919050565b6000602082840312156149ac578081fd5b5051919050565b600081518084526149cb816020860160208601615510565b601f017fffffffffffffffffffffffffffffffffffffffffffffffffffffffffffffffe0169290920160200192915050565b60007fffffffff00000000000000000000000000000000000000000000000000000000841682528251614a37816004850160208701615510565b919091016004019392505050565b6000828483379101908152919050565b60008251614a67818460208701615510565b9190910192915050565b73ffffffffffffffffffffffffffffffffffffffff91909116815260200190565b73ffffffffffffffffffffffffffffffffffffffff9384168152919092166020820152604081019190915260600190565b73ffffffffffffffffffffffffffffffffffffffff929092168252602082015260400190565b600073ffffffffffffffffffffffffffffffffffffffff8716825285602083015260a06040830152614b1e60a08301866149b3565b8281036060840152614b3081866149b3565b9150508260808301529695505050505050565b901515815260200190565b90815260200190565b60208082526021908201527f5374616b654c69623a206164646974696f6e207374616b65206f766572666c6f60408201527f7700000000000000000000000000000000000000000000000000000000000000606082015260800190565b60208082526010908201527f5374616b654c69623a20215374616b6500000000000000000000000000000000604082015260600190565b60208082526015908201527f64732d6d6174682d7375622d756e646572666c6f770000000000000000000000604082015260600190565b60208082526017908201527f617574686f72697a6174696f6e20756e6368616e676564000000000000000000604082015260600190565b6020808252601c908201527f6561726e20746f6b656e2062616c616e636520756e6368616e67656400000000604082015260600190565b60208082526014908201527f64732d6d6174682d6d756c2d6f766572666c6f77000000000000000000000000604082015260600190565b60208082526033908201527f54696d656c6f636b3a3a657865637574655472616e73616374696f6e3a20547260408201527f616e73616374696f6e206973207374616c652e00000000000000000000000000606082015260800190565b6020808252602c908201527f726f75746572206e6f7420617574686f72697a6564206173206f776e6572736860408201527f6970207072657365727665640000000000000000000000000000000000000000606082015260800190565b6020808252601d908201527f5374616b654c69623a20756e636c61696d6564206f766572666c6f776e000000604082015260600190565b60208082526045908201527f54696d656c6f636b3a3a657865637574655472616e73616374696f6e3a20547260408201527f616e73616374696f6e206861736e2774207375727061737365642074696d652060608201527f6c6f636b2e000000000000000000000000000000000000000000000000000000608082015260a00190565b6020808252818101527f5374616b654c69623a206164646974696f6e2074696d65206f766572666c6f77604082015260600190565b60208082526014908201527f64732d6d6174682d6164642d6f766572666c6f77000000000000000000000000604082015260600190565b6020808252601c908201527f756e617574686f72697a656420726563656976696e6720746f6b656e00000000604082015260600190565b60208082526034908201527f54696d656c6f636b3a3a73657444656c61793a2044656c6179206d757374206560408201527f7863656564206d696e696d756d2064656c61792e000000000000000000000000606082015260800190565b60208082526008908201527f6e69636520747279000000000000000000000000000000000000000000000000604082015260600190565b60208082526010908201527f6475706c696361746520746f6b656e7300000000000000000000000000000000604082015260600190565b60208082526014908201527f7375627369647952617465206f766572666c6f77000000000000000000000000604082015260600190565b60208082526006908201527f2161646d696e0000000000000000000000000000000000000000000000000000604082015260600190565b60208082526017908201527f746f6f206d616e7920746f6b656e206c6566746f766572000000000000000000604082015260600190565b6020808252600e908201527f6e6f2073656c662072656d6f7665000000000000000000000000000000000000604082015260600190565b60208082526010908201527f5374616b654c69623a206c6f636b656400000000000000000000000000000000604082015260600190565b60208082526038908201527f54696d656c6f636b3a3a73657444656c61793a2044656c6179206d757374206e60408201527f6f7420657863656564206d6178696d756d2064656c61792e0000000000000000606082015260800190565b6020808252600a908201527f4e6f207468616e6b732100000000000000000000000000000000000000000000604082015260600190565b6020808252603d908201527f54696d656c6f636b3a3a657865637574655472616e73616374696f6e3a20547260408201527f616e73616374696f6e206861736e2774206265656e207175657565642e000000606082015260800190565b6020808252601d908201527f617574686f72697a6174696f6e206c6576656c20756e6368616e676564000000604082015260600190565b60208082526013908201527f756e617574686f72697a656420726f7574657200000000000000000000000000604082015260600190565b60208082526013908201527f756e617574686f72697a6564206661726d657200000000000000000000000000604082015260600190565b6020808252601c908201527f617574686f72697a6174696f6e206d61736b20756e6368616e67656400000000604082015260600190565b6020808252601c908201527f756e617574686f72697a656420726f757465722e66756e6374696f6e00000000604082015260600190565b60208082526012908201527f756e617574686f72697a656420746f6b656e0000000000000000000000000000604082015260600190565b60208082526017908201527f746f6b656e2062616c616e636520756e6368616e676564000000000000000000604082015260600190565b60208082526049908201527f54696d656c6f636b3a3a71756575655472616e73616374696f6e3a204573746960408201527f6d6174656420657865637574696f6e20626c6f636b206d75737420736174697360608201527f66792064656c61792e0000000000000000000000000000000000000000000000608082015260a00190565b60208082526016908201527f696e636f727265637420746f6b656e7320636f756e7400000000000000000000604082015260600190565b60208082526009908201527f2174696d656c6f636b0000000000000000000000000000000000000000000000604082015260600190565b6020808252600f908201527f6f7665722070726f636365737365640000000000000000000000000000000000604082015260600190565b94855273ffffffffffffffffffffffffffffffffffffffff938416602086015260408501929092529091166060830152608082015260a00190565b6000858252608060208301526154aa60808301866149b3565b82810360408401526154bc81866149b3565b91505082606083015295945050505050565b918252602082015260400190565b93845260208401929092526040830152606082015260800190565b6bffffffffffffffffffffffff91909116815260200190565b60005b8381101561552b578181015183820152602001615513565b838111156109c45750506000910152565b73ffffffffffffffffffffffffffffffffffffffff8116811461555e57600080fd5b5056fea26469706673582212208c31f2e3ec8eb9046d84edc80a167ed044544c3c7a3bfc269eefd650899a2dcd64736f6c63430006020033",
  "source": "// SPDX-License-Identifier: MIT\npragma solidity >=0.6.2;\npragma experimental ABIEncoderV2;\n\n/** @title SFarm */\n/** @author Zergity */\n\n// solium-disable security/no-inline-assembly\n\nimport \"./Timelock.sol\";\nimport './interfaces/IUniswapV2Router01.sol';\nimport './interfaces/IERC20.sol';\n\ncontract SFarm is Timelock {\n    using SafeMath for uint;\n    using SafeMath for uint192;\n    using SafeMath for uint64;\n\n    // accept 1/LEFT_OVER_RATE token left over\n    uint constant LEFT_OVER_RATE = 100;\n\n    // admin operations require no locktime when the total stake in the farm not more than this value\n    uint constant LOCK_FREE_STAKE = 10000 * 10**18;\n\n    constructor(\n        address _earnToken,\n        address _admin,\n        uint _subsidyRate,\n        uint _delay\n    ) Timelock(_delay) public {\n        require(_subsidyRate < SUBSIDY_UNIT, \"subsidyRate overflow\");\n        subsidyRate = uint64(_subsidyRate);\n        if (_admin == address(0x0)) {\n            _admin = msg.sender;\n        }\n        subsidyRecipient = _admin;\n        authorizedAdmins[_admin] = true;\n        earnToken = _earnToken;\n        emit AuthorizeAdmin(_admin, true);\n    }\n\n    modifier onlyStakeToken(address token) {\n        require(_isTokenStakable(token), \"unauthorized token\"); _;\n    }\n\n    modifier onlyFarmer {\n        require(authorizedFarmers[msg.sender], \"unauthorized farmer\"); _;\n    }\n\n    modifier onlyAdmin {\n        if (msg.sender != address(this)) {\n            require(total.stake() <= LOCK_FREE_STAKE, \"!timelock\");\n            require(authorizedAdmins[msg.sender], \"!admin\");\n        }\n        _;\n    }\n\n    function deposit(address token, uint amount) external onlyStakeToken(token) {\n        IERC20(token).transferFrom(msg.sender, address(this), amount);\n        total = total.deposit(amount);\n        stakes[msg.sender] = stakes[msg.sender].deposit(amount);\n        emit Deposit(msg.sender, token, amount);\n    }\n\n    struct paramRL {\n        address receivingToken;\n        paramExec[] execs;\n    }\n\n    struct paramExec {\n        address router;\n        bytes   input;\n    }\n\n    function withdraw(\n        address     token,\n        uint        amount,\n        paramRL[]   calldata rls\n    ) external onlyStakeToken(token) {\n        stakes[msg.sender] = stakes[msg.sender].withdraw(amount);\n        total = total.withdraw(amount);\n\n        uint[] memory lastBalance = new uint[](rls.length);\n\n        for (uint i = 0; i < rls.length; ++i) {\n            address receivingToken = rls[i].receivingToken;\n\n            if (receivingToken != address(0x0)) {\n                require(_isTokenReceivable(receivingToken), \"unauthorized receiving token\");\n                lastBalance[i] = IERC20(receivingToken).balanceOf(address(this));\n            }\n\n            for (uint j = 0; j < rls[i].execs.length; ++j) {\n                address router = rls[i].execs[i].router;\n\n                uint mask = authorizedWithdrawalFunc[router][_funcSign(rls[i].execs[j].input)];\n                require(_isRouterForStakeToken(mask), \"unauthorized router.function\");\n                if (receivingToken == address(0x0)) {\n                    require(_isRouterPreserveOwnership(mask), \"router not authorized as ownership preserved\");\n                }\n\n                (bool success,) = router.call(rls[i].execs[j].input);\n                if (!success) {\n                    return _forwardCallResult(success);\n                }\n\n                if (receivingToken != address(0x0)) {\n                    uint newBalance = IERC20(receivingToken).balanceOf(address(this));\n                    require(newBalance > lastBalance[i], \"token balance unchanged\");\n                    lastBalance[i] = newBalance;\n                }\n            }\n        }\n\n        IERC20(token).transfer(msg.sender, amount);\n\n        // accept 1% token left over\n        for (uint i = 0; i < rls.length; ++i) {\n            address receivingToken = rls[i].receivingToken;\n            if (receivingToken != address(0x0)) {\n                require(IERC20(receivingToken).balanceOf(address(this)) <= lastBalance[i] / LEFT_OVER_RATE, \"too many token leftover\");\n            }\n        }\n\n        emit Withdraw(msg.sender, token, amount);\n    }\n\n    // harvest ZD\n    function harvest(uint scale) external returns (uint earn) {\n        Stake memory stake = stakes[msg.sender];\n        uint value = stake.value();\n        uint totalValue = total.value();\n\n        // update the sender and total stake\n        stakes[msg.sender] = stake.harvest(value);\n        total = total.harvest(value);\n\n        uint totalEarn = IERC20(earnToken).balanceOf(address(this));\n        if (scale == 0) {\n            scale = 1;\n        }\n        totalEarn = totalEarn > value ? value.mul(totalEarn/scale) : totalEarn.mul(value/scale);\n        uint bothEarn = (totalEarn/totalValue).mul(scale);    // first, assign the total earned\n\n        uint subsidyEarn = (totalEarn.mul(subsidyRate)/SUBSIDY_UNIT/totalValue).mul(scale);\n        if (subsidyEarn > 0 && subsidyRecipient != address(0x0)) {\n            IERC20(earnToken).transfer(subsidyRecipient, subsidyEarn);\n        }\n\n        earn = bothEarn.sub(subsidyEarn);\n        IERC20(earnToken).transfer(msg.sender, earn);\n\n        emit Harvest(msg.sender, earn, subsidyEarn);\n    }\n\n    function farmerExec(address receivingToken, address router, bytes calldata input) external onlyFarmer {\n        uint mask = authorizedRouters[router];\n        require(_isRouterForStakeToken(mask), \"unauthorized router\");\n\n        // skip the balance check for router that always use msg.sender instead of `recipient` field (unlike Uniswap)\n        if (receivingToken == address(0x0)) {\n            require(_isRouterPreserveOwnership(mask), \"router not authorized as ownership preserved\");\n            (bool success,) = router.call(input);\n            return _forwardCallResult(success);\n        }\n\n        require(_isTokenReceivable(receivingToken), \"unauthorized receiving token\");\n        uint balanceBefore = IERC20(receivingToken).balanceOf(address(this));\n\n        (bool success,) = router.call(input);\n        if (!success) {\n            return _forwardCallResult(success);\n        }\n\n        require(IERC20(receivingToken).balanceOf(address(this)) > balanceBefore, \"token balance unchanged\");\n    }\n\n    // this function allow farmer to convert token fee earn from LP in the authorizedTokens\n    function farmerProcessOutstandingToken(\n        address             router,           // LP router to swap token to earnToken\n        bytes     calldata  input,\n        address[] calldata  tokens\n    ) external onlyFarmer {\n        require(tokens.length == stakeTokensCount, \"incorrect tokens count\");\n        require(_isRouterForEarnToken(authorizedRouters[router]), \"unauthorized router\");\n\n        uint lastBalance = IERC20(earnToken).balanceOf(address(this));\n\n        (bool success,) = router.call(input);\n        if (!success) {\n            return _forwardCallResult(success);\n        }\n\n        require(IERC20(earnToken).balanceOf(address(this)) > lastBalance, \"earn token balance unchanged\");\n\n        // verify the remaining stake is sufficient\n        uint totalBalance;\n        for (uint i; i < tokens.length; ++i) {\n            address token = tokens[i];\n            for (uint j; j < i; ++j) {\n                require(token != tokens[j], \"duplicate tokens\");\n            }\n            totalBalance = totalBalance.add(IERC20(token).balanceOf(address(this)));\n        }\n        require(total.stake() <= totalBalance, \"over proccessed\");\n    }\n\n    function setSubsidy(address recipient, uint rate) external onlyAdmin {\n        require(rate < SUBSIDY_UNIT, \"subsidyRate overflow\");\n        subsidyRate = uint64(rate);\n        if (recipient != address(0x0)) {\n            subsidyRecipient = recipient;\n        }\n    }\n\n    function approve(address[] calldata tokens, address[] calldata routers, uint amount) external onlyAdmin {\n        for (uint j = 0; j < routers.length; ++j) {\n            address router = routers[j];\n            require(authorizedRouters[router] > 0, \"unauthorized router\");\n            for (uint i = 0; i < tokens.length; ++i) {\n                IERC20(tokens[i]).approve(router, amount);\n            }\n        }\n    }\n\n    function authorizeAdmins(bytes32[] calldata changes) external onlyAdmin {\n        for (uint i; i < changes.length; ++i) {\n            address admin = address(bytes20(changes[i]));\n            require(admin != msg.sender, \"no self remove\");\n            bool  enable = uint96(uint(changes[i])) > 0;\n            require(authorizedAdmins[admin] != enable, \"authorization unchanged\");\n            authorizedAdmins[admin] = enable;\n            emit AuthorizeAdmin(admin, enable);\n        }\n    }\n\n    function authorizeFarmers(bytes32[] calldata changes) external onlyAdmin {\n        for (uint i; i < changes.length; ++i) {\n            address farmer = address(bytes20(changes[i]));\n            bool  enable = uint96(uint(changes[i])) > 0;\n            require(authorizedFarmers[farmer] != enable, \"authorization unchanged\");\n            authorizedFarmers[farmer] = enable;\n            emit AuthorizeFarmer(farmer, enable);\n        }\n    }\n\n    function authorizeRouters(bytes32[] calldata changes) external onlyAdmin {\n        uint ROUTER_MASK = ROUTER_EARN_TOKEN + ROUTER_STAKE_TOKEN + ROUTER_OWNERSHIP_PRESERVED;\n        for (uint i; i < changes.length; ++i) {\n            address router = address(bytes20(changes[i]));\n            require(router != address(this), \"nice try\");\n            uint mask = uint(changes[i]) & ROUTER_MASK;\n            require(authorizedRouters[router] != mask, \"authorization mask unchanged\");\n            authorizedRouters[router] = mask;\n            emit AuthorizeRouter(router, mask);\n        }\n    }\n\n    function authorizeTokens(bytes32[] calldata changes) external onlyAdmin {\n        for (uint i; i < changes.length; ++i) {\n            address token = address(bytes20(changes[i]));\n            uint96  level = uint96(uint(changes[i]));\n            uint oldLevel = authorizedTokens[token];\n            require(oldLevel != level, \"authorization level unchanged\");\n            if (level == TOKEN_LEVEL_STAKE) {\n                stakeTokensCount++;\n            } else if (oldLevel == TOKEN_LEVEL_STAKE) {\n                stakeTokensCount--;\n            }\n            authorizedTokens[token] = level;\n            emit AuthorizeToken(token, level);\n        }\n    }\n\n    // 20 bytes router address + 4 bytes func signature + 8 bytes bool\n    function authorizeWithdrawalFuncs(bytes32[] calldata changes) external onlyAdmin {\n        uint ROUTER_MASK = ROUTER_STAKE_TOKEN + ROUTER_OWNERSHIP_PRESERVED;\n        for (uint i; i < changes.length; ++i) {\n            address router = address(bytes20(changes[i]));\n            require(router != address(this), \"nice try\");\n            bytes4 func = bytes4(bytes12(uint96(uint(changes[i]))));\n            uint mask = uint(changes[i]) & ROUTER_MASK;\n            require(authorizedWithdrawalFunc[router][func] != mask, \"authorization mask unchanged\");\n            authorizedWithdrawalFunc[router][func] = mask;\n            emit AuthorizeWithdrawalFunc(router, func, mask);\n        }\n    }\n\n    function query(address a) external view returns (\n        uint stake,\n        uint value,\n        uint totalStake,\n        uint totalValue\n    ) {\n        return (\n            stakes[a].stake(),\n            stakes[a].safeValue(),\n            total.stake(),\n            total.safeValue()\n        );\n    }\n\n    function queryConfig() external view returns (\n        uint delay_,\n        address earnToken_,\n        uint subsidyRate_,\n        address subsidyRecipient_,\n        uint stakeTokensCount_\n    ) {\n        return (\n            delay,\n            earnToken,\n            uint(subsidyRate),\n            subsidyRecipient,\n            stakeTokensCount\n        );\n    }\n\n    function _funcSign(bytes memory input) internal pure returns (bytes4 output) {\n        assembly {\n            output := mload(add(input, 32))\n        }\n    }\n\n    function _isRouterForEarnToken(uint mask) internal pure returns (bool) {\n        return mask & ROUTER_EARN_TOKEN != 0;\n    }\n\n    function _isRouterForStakeToken(uint mask) internal pure returns (bool) {\n        return mask & ROUTER_STAKE_TOKEN != 0;\n    }\n\n    function _isRouterPreserveOwnership(uint mask) internal pure returns (bool) {\n        return mask & ROUTER_OWNERSHIP_PRESERVED != 0;\n    }\n\n    function _isTokenReceivable(address token) internal view returns (bool) {\n        return authorizedTokens[token] >= TOKEN_LEVEL_RECEIVABLE;\n    }\n\n    function _isTokenStakable(address token) internal view returns (bool) {\n        return authorizedTokens[token] >= TOKEN_LEVEL_STAKE;\n    }\n}\n",
  "sourcePath": "/home/zergity/src/github.com/ezDeFi/sfarm-contracts/contracts/SFarm.sol",
  "compiler": {
    "name": "solc",
    "version": "0.6.2+commit.bacdbe57.Emscripten.clang"
  },
  "schemaVersion": "3.2.4",
  "updatedAt": "2021-05-28T15:27:51.010Z",
  "devdoc": {
    "methods": {}
  },
  "userdoc": {
    "methods": {}
  }
}